:020000040801F1
:1000000000000220151E0208016C0108056C0108A1
:10001000096C01080D6C0108116C0108111E020821
:10002000111E0208111E0208111E02085D7E010841
:10003000111E0208111E0208817E01085164010888
:10004000111E0208111E0208111E0208111E0208CC
:10005000111E0208111E0208A95F0108AF5F010806
:10006000B55F0108BB5F0108C15F0108355E01088B
:10007000455E0108555E0108655E0108755E010870
:10008000855E0108955E0108111E0208111E020816
:10009000111E0208111E0208111E0208C75F010886
:1000A000E1670108ED670108F967010805680108C3
:1000B000116801081D68010829680108B562010876
:1000C000CD620108C1620108D9620108111E02084F
:1000D000111E0208996A0108A56A0108B16A01089F
:1000E000CF5F0108111E0208111E0208596801089D
:1000F00065680108716801087D680108A55E01084E
:10010000111E0208111E020835680108111E02089E
:10011000BD6A0108C96A0108416801084D68010803
:10012000B55E0108C55E0108D55E0108E55E0108FF
:10013000F55E0108111E0208111E0208111E0208B8
:10014000111E0208111E0208111E02086582010814
:10015000055F0108155F0108255F0108111E0208EF
:10016000111E0208111E0208111E0208111E0208AB
:10017000111E0208111E0208111E0208111E02089B
:10018000111E0208111E02080C4BDA68D1030ED4AE
:10019000D868C2060DD4D96811F0EF0F0BD1DA6818
:1001A00002F00203002B0CBF05200C207047012039
:1001B0007047032070470B20704700BF003C02408F
:1001C00013B50446FFF7E0FF0CE000230193FF2383
:1001D00001E00198431E019301990029F9D1FFF72D
:1001E000D3FF013C012803D1002CEED1062002E010
:1001F000002C08BF06201CBD70B5044641B1012982
:1002000008D0022914BF4FF440764FF4007603E083
:100210000E4601E04FF4807640F6FF70FFF7D0FF06
:10022000052820D1104D286920F440732B612A69DC
:1002300016432E61296921F0F80028612B6943F0EB
:10024000020214432C61296941F48030286140F690
:10025000FF70FFF7B5FF2B6923F002022A612969BD
:1002600021F0F8032B6170BD003C024000F178439F
:10027000B3F5803F05DA002BBCBF074BC3189B13B7
:1002800006E0B3F5003F02DB5B14043300E0042317
:10029000D8000321FFF7B0BFFF3F00F8134B00F178
:1002A00078429A4270B504460E461CD81F20FFF7CC
:1002B00087FF052818D10E4D296921F44070286167
:1002C0002B6943F480722A61296941F00100286199
:1002D0001F202680FFF774FF062805D02B6923F026
:1002E00001022A6170BD072070BD00BFFEFF07003C
:1002F000003C0240044B1A69002A03DA034904480F
:1003000059605860704700BF003C024023016745B8
:10031000AB89EFCD014B9868704700BF10E000E05B
:10032000014B1868704700BF442F002038B5FFF715
:10033000F7FF0446FFF7EEFF054600BF00BFFFF7DB
:10034000EFFF8442F3D109480368DB0303D5FFF7CD
:10035000E1FF01340546C5F524354035A822B5FB3B
:10036000F2F54FF47A7101FB045038BD10E000E063
:1003700010B5029C401AE41A6043511A90FBF1F048
:10038000C01810BD064B1B5C072B06DC054A30204D
:1003900000FB0321888A80B2704740F2DC5070472E
:1003A000EA51020800270020114B986800689989DB
:1003B000421A92B230B5A2F56074611F89B240F260
:1003C000AE44A1421C460B4B08D8197807290DD81A
:1003D000094D25F811204A1C1A7007E040F6C41C8C
:1003E000624501D9002200E008221A70A08130BDC8
:1003F000FC2800205C2D0020540C00200249034BF7
:100400000A5C33F812007047F2510208540C0020C5
:1004100070B50F480F4C104D1049114A2468006800
:1004200009682B681268C0EB040C20185A430CEBC7
:1004300001060C4BC1EB0C054418411AB61AAD1855
:10044000A4188A1A1E605D60DC609A6070BD00BFEF
:10045000502D0020AC0C0020440C00203829002036
:10046000102C0020702C002010B50E490E4C0F48A7
:100470000F4A0968006823681268C0EB010C5A43F0
:10048000C2EB0C0401EB000C0A480B4B00681C602B
:10049000C2EB0C049C600C1A0918A4188A185C6042
:1004A000DA6010BDAC0C0020440C0020502D002060
:1004B000102C002038290020702C0020F0B517499E
:1004C000174F09683E681748174B184A00681B68A1
:1004D000126806EBD67501EBD17464106F10C51964
:1004E00066425A4305EB060C114B9444C71BC3F8F4
:1004F00014C007EB040CC2EB0C0CC3F808C005EBEE
:10050000040CC2EB0C04BE191C61441A4118B61845
:10051000A41A8A185E601C60DA60F0BD502D0020BD
:1005200038290020AC0C0020440C0020102C0020A6
:10053000702C0020174A184918480968184B0068A1
:100540001B68F0B51668174A01EBD17506EBD67437
:1005500064106F101268C51966425A4305EB060C09
:10056000114BC2EB0C0CC71BC3F800C007EB040C0B
:100570009444C3F80CC005EB040CC2EB0C04BE1988
:100580001C61441A4118B618A41A8A185E609C604F
:100590005A61F0BD502D002038290020AC0C0020FD
:1005A000440C0020102C0020702C00202A492B4BDA
:1005B00009681B6830B52A4C246848006FF00202B5
:1005C00090FBF2FC1D19274A1C1B04EB0C00890050
:1005D0009060032091FBF0F01B18234823498068AA
:1005E000D3600028B8BF404209686FF031031B1A7E
:1005F00065449942556002DA07EE903A05E03230E0
:100600008842B8BF014607EE901A19490868B8EE4B
:10061000E70A07EE900AF8EEE76ADFED167A46EE93
:10062000807A9FED157AF4EEC77AF1EE10FA0BD4CA
:10063000DFED120AF4EEE07AF1EE10FA07DCBDEE1F
:10064000E71A11EE103A04E040F24C4301E040F2A8
:100650006C73136030BD00BF502D0020AC0C002027
:1006600038290020702C00206C0C0020102C002059
:10067000440C00200080BB44008089440080ED448D
:1006800030B50B4B0B4C0C4D1968226828680B4B8E
:100690008C1A2518201A89185860094A09481268C6
:1006A00000681D60424388188A1AD8609A6030BD7D
:1006B000AC0C0020502D002038290020702C002088
:1006C000440C0020102C0020F0B5154F15483F6851
:1006D0001549164A096803681268BC00032694FB92
:1006E000F6FC134E5A4301EB0C04124B3668A51A64
:1006F0006FF002009D607D0095FBF0F58F1B89195E
:1007000007EB050C49190CEB02078D1AA418C2EB74
:100710000C008A185F601D605C611861DA60F0BDD2
:10072000502D0020440C0020AC0C0020102C002088
:1007300038290020702C0020F0B51449144E154DB6
:10074000154F164A0868366829683B681268C0EB7E
:10075000060C5A430CEB0105114BAC1A36181C6001
:10076000C1EB0C047018A718C1EB060C5F60C2EB5C
:100770000C068718AD18A41A801A0CEB0201DF6072
:100780009E601D615C619861D961F0BD502D0020B3
:10079000AC0C002038290020440C0020102C002034
:1007A000702C00202DE9F0411E481F491F4C204AA3
:1007B00009682468036812681E485A43C4EB01089C
:1007C0001D4B0068C2EB0807E600361B4FEAC00C61
:1007D0001F606FF0090796FBF7F5C0EB0C0C4D1985
:1007E0009CFBF7F805EB0807BF185F600F1ABF1AEC
:1007F0000C199F600A27A41A96FBF7F68E191C6144
:100800009CFBF7F4B044081836192C199044B6181C
:10081000811AA218C3F80C805E619961DA61BDE8A3
:10082000F08100BF440C0020AC0C0020502D0020B3
:10083000102C002038290020702C00203849394A1B
:1008400009681268384B881A04EE100A1868374B8A
:1008500001EE100A36481B680068B8EEC11AB6EE01
:10086000006A4343F8EEC41A00EE903A21EE064ABD
:10087000F8EEE00A71EE846A04EE902A76EEE02A41
:1008800007EE901ABDEEE22AF8EEE42AF8EEE76AE7
:1008900071EEC45A62EE862A35EEA07A36EEE26A2E
:1008A0008818244BBDEEC70A76EEA22A36EE415ACE
:1008B00007EE100A75EE603A83ED002AB8EEC75ACB
:1008C00032EEC12ABDEEE33A72EE201A83ED010A40
:1008D00075EE043A35EE440A32EE812A36EE017A9C
:1008E000FDEEE15A70EE607A83ED023A72EE601A24
:1008F00033EEA03A37EE200AFDEEE74AC3ED035A85
:10090000FDEEC36AFDEEE15AFDEEC07AC3ED044A86
:10091000C3ED056AC3ED065AC3ED077A704700BF01
:10092000AC0C0020502D002038290020440C002061
:10093000102C0020702C002010B500231A46C45C37
:1009400006495C540133A2182C2B92B2F7D1044B08
:1009500081F82C200020187010BD00BF642D0020ED
:10096000392A0020064A0749B2F806C00A780A2345
:10097000BCFBF3F30AB18021017118B2704700BFCC
:10098000340D0020D8260020064B9A7AFF2A05D085
:10099000B3F91000642390FBF3F000E0002000B2F4
:1009A000704700BF340D0020054B9A7AFF2A05D00E
:1009B00058694FF47A7390FBF3F07047002070474A
:1009C000340D002010B50E480378012B12D10D48CC
:1009D0000D4A0E4B00681268DB6881188B420CDCF4
:1009E000821A47F2305C47F204449342B4BF204677
:1009F000604610BD47F2305010BD47F25C6010BD3C
:100A0000E0260020900C00204C0C00206C0C0020F4
:100A100008B51C20002106F0D7FF1C20012107F09B
:100A200029F803480349BDE8084006F009BD00BFA6
:100A3000E82D0020A086010081627047C1627047E6
:100A40003430013940F821207047410101F18440E0
:100A50000123C0F88032704706F0F2BA70470000F8
:100A6000204B07EE901A196800EE901A92ED046A76
:100A7000B8EE600A07EE100A1B48DFED1C6A30EE84
:100A8000466A037886EE266A82ED040A77EE676A84
:100A900033B192ED051A06EE861A82ED051A01E0D1
:100AA0000020506192ED034AD2ED023A37EEC43A8B
:100AB0009FED0F2A23EE233A26EE022AD2ED015AA9
:100AC00083EE022AD2ED051AD2ED002A65EEA11AB4
:100AD00046EEA21AC2ED037A71EE827A17EE900A00
:100AE000704700BFD42B0020292A0020002474491D
:100AF0000000C8420848036807EE103A074BF8EEBA
:100B0000477A03F190020021196043ED017A18330E
:100B10009342F8D1704700BFD42B0020542A002004
:100B200091ED005A9FED203A05EE900A9FED1F2AA5
:100B300065EE037A45EE827AD1ED014ADFED1C2A9B
:100B400044EEA27A91ED024A44EE037AD1ED031A03
:100B500041EE827A91ED047A9FED161A47EE017A02
:100B6000D1ED056ADFED140A46EEE07A91ED066AF2
:100B70009FED120A46EE007A91ED073ADFED103A4A
:100B800043EE637A086081ED034AC1ED024A81EDCC
:100B9000015A81ED076AC1ED066A81ED057AC1ED62
:100BA000047A17EE900A7047D58111BB7932F83A72
:100BB0001A1B5E3B382F5740200B89400A771C4098
:100BC0004CF3063F0D4B0E4A0020186058609860A9
:100BD000D860186158619861D8611862586298624B
:100BE000D862186358639863D8631A645A649A6425
:100BF000DA641A655A659A65DA6570473C290020FF
:100C00006DE71CC173B50024012527E0174A184879
:100C100092F90010174E50F8213056F82460204603
:100C20009847154AA300D118144AD1ED000AD118EB
:100C300091ED000ABDEEE07AFDEEC07A4FF4FA6362
:100C4000009317EE101A17EE902A4FF47A73FFF7FD
:100C50008FFB0134864218BF0025E4B2084B93F89D
:100C600000C0A445D2D828467CBD00BF4C0D002052
:100C7000E40C0020902C0020F40C0020140D002027
:100C8000BD0C002008B5FFF7BDFF094B18B118686F
:100C9000421C1A6002E00749186008701B68282B84
:100CA00003DD044A0120107008BD002008BD00BF0C
:100CB000402B0020B92B0020154A164B107892F8D3
:100CC00001C040F2DC5143F82010907843F82C101A
:100CD00092F803C043F820104FF4AF6043F82C00A3
:100CE000107992F805C04FF4FA6143F820100A48D1
:100CF00043F82C100178082908D192F806C0D2795F
:100D00004FF47A7143F82C1043F82210704700BF5B
:100D10003C0C00206C0C0020BD0C002013B50024FE
:100D20002DE0FFF7AFFF10B1FFF7C6FF25E0164A31
:100D3000164892F9003050F8231020468847144A8C
:100D4000A1005318134AD3ED000A531893ED000A7B
:100D5000BDEEE07AFDEEC07A4FF4FA62009217EE33
:100D6000101A4FF47A7317EE902AFFF701FB0A4925
:100D70000A4B41F8240043F824000134E4B2084847
:100D80000178A142CDD81CBD4C0D0020E40C002000
:100D9000F40C0020140D00206C0C0020902C00207E
:100DA000BD0C00202DE9F041069DD061002797621F
:100DB00013606E1E1D68B30005F1340808EB0300D4
:100DC000556014469060D762918216624FF001021E
:100DD00002FA03F84FEA480060622168087905F0DA
:100DE00025FB1A4AB0FBF2F3581E4FF6FF71A862BA
:100DF000E9622F60EA6822F00103EB60286A20EACA
:100E0000080129622B6A626A012E23EA02032B621F
:100E1000D4BF05F1180305F11C0306F001001968A1
:100E2000C000FF2616FA00F221EA02061E601A68C8
:100E3000612111FA00F616431E60296A012348EA6F
:100E4000010028622B60BDE8F08100BF40420F0026
:100E500073B500241148124A235C1B01D5186E6833
:100E6000BEB1D058297B0A2205F0E6F8697B0D4B0C
:100E70000091302202FB0432204640F2DC5133461E
:100E8000FFF790FF084A697B52F82420304605F0AE
:100E9000F9FB0134082CDDD17CBD00BFFE510208F6
:100EA000BC1A002000270020C00C0020FFF7D0BF94
:100EB00043681A6A416A4A401A6270474168836807
:100EC0001B680A6A416A1142816A10B514BF002288
:100ED000012291B10AB1C38213E0C48A191B1FFA1F
:100EE00081FCACF560735C1FA1B240F2AE44A1423C
:100EF00094BFA0F814C0826203E012B10122C38241
:100F00008262BDE81040FFF7D3BF0000024B3022E1
:100F100002FB0030FFF7D2BF002700200720FFF7B9
:100F2000F5BF0620FFF7F2BF0520FFF7EFBF042053
:100F3000FFF7ECBF0320FFF7E9BF0220FFF7E6BF92
:100F40000120FFF7E3BF0020FFF7E0BFF8B5234D16
:100F500029600C68561EB10001278F4004F1340C43
:100F60007B000CEB01026C60AA602E616B6128684B
:100F7000007905F05BFA1A49B0FBF1F2531E00212B
:100F80004FF6FF70A362E0622160E26822F0010385
:100F9000E360206A20EA07012162236A6A69012E60
:100FA00023EA02032362D4BF04F1180304F11C03F3
:100FB00006F001001968C000FF2616FA00F221EAC7
:100FC00002061E601A68612111FA00F616431E60BF
:100FD000206A0123074327622360F8BDFC28002014
:100FE00040420F0038B50F4C0F4BD4F8F453082291
:100FF0001A70ADB1D4F8F00394F8FC130A2205F08E
:101000001BF8294694F8FD2340F2DC50FFF79EFFC1
:1010100094F8FD13054A2846BDE8384005F032BB78
:1010200038BD00BFBC1A00205C2D0020A9030108B8
:10103000FFF7D8BF38B588E0494806F062FA7C2847
:1010400003D80AE0464806F047FA454806F059FA40
:101050000028F7D1434B186077E0414806F03CFA8E
:1010600040490A680AB90F286FD13F4B182A985493
:101070001C4668D1B0B10123E25C0F2A01D10022E5
:1010800009E00133192BF7D166E004EB030C1CF8DF
:101090000200A0540132C3F1180E7245F5D9C3F114
:1010A00019035AE09C7893F801E0304A93F804C0A1
:1010B0004EEA04204505680D1080D878E51045EA11
:1010C000401465056C0D548085115C7945EA8C0EE1
:1010D0004EEA84204505680DD080987993F808C0C1
:1010E000641044EAC0156C05650D9580DD79041126
:1010F00044EA05104405600D1081ED11587A45EA67
:101100004C0E4EEA40246405640D54819C7A93F899
:101110000BC0801040EA84104005400D908164119E
:10112000134844EACC04D4810278AAB1114ADB7D89
:101130001068013010601A070ED40F4B1A885AB18C
:10114000013A1A8008E0531C0B60054806F0D9F9F3
:1011500000287FF471AF38BD00230B60F5E700BFB6
:10116000E82D002034290020142D0020540C0020EC
:10117000A42B0020182B00203C2B002010B5044687
:1011800008B9FFF757FF0348034B025D33F812001D
:1011900010BD00BF06520208540C00204160704789
:1011A00010B5044606F0C6FA204606F070FB01466C
:1011B0002046FFF7F3FF00232372204610BD2DE9E0
:1011C000F04104460D460079012117461E4606F0FF
:1011D00051FC2079002106F0F7FB204629463A46CB
:1011E0003346BDE8F04106F0CBBAF8B504460D46EB
:1011F000007900211F46164606F03CFC207A60F07C
:101200007F031D43E9B2204606F038FB3D4606E069
:101210002046002106F032FB06F8010B013D002DAF
:10122000F6DC20790121BDE8F84006F023BC07B5C3
:1012300001230DF10702FFF7D8FF9DF807000EBD4F
:10124000F8B504460D46007900211F46164606F003
:1012500011FC237A1D43E9B2204606F00FFB3D4600
:1012600005E0204616F8011B06F008FB013D002DA5
:10127000F7DC20790121BDE8F84006F0FBBB07B59B
:1012800002AB03F8012D1A460123FFF7D9FF0EBD6B
:101290000248052101220323FFF791BFE426002025
:1012A00010B5064C204606F089FA012120460A4670
:1012B0000323BDE81040FFF782BF00BFE4260020F3
:1012C00008B503460A4604481946FFF7D8FF01202F
:1012D000BDE8084006F06CBBE426002010B50146CE
:1012E0000448FFF7A4FF0446012006F061FB2046F6
:1012F00010BD00BFE426002008B5FFF7C9FF752028
:10130000FFF7ECFF00F07E0068282BD1164B196820
:1013100041F003021A6080216B20FFF7D1FF6420A7
:1013200006F046FB6A201021FFF7CAFF6B2003215D
:10133000FFF7C6FF6C200021FFF7C2FF1920002134
:10134000FFF7BEFF1A200321FFF7BAFF1B20182169
:10135000FFF7B6FF1C200821FFF7B2FFBDE80840E9
:10136000FFF79EBF08BD00BF582D002001EBD171D3
:10137000491004E00378427843700270023011F1A2
:10138000FF31F7D27047000010B5064C06483B21EC
:1013900022460E23FFF729FF20460E21BDE810400C
:1013A000FFF7E4BF002C0020E42600200348044996
:1013B000044A054B08601A60FFF79EBF58A08B3A9D
:1013C000F8280020FAAE6A44542C002008B5FEF735
:1013D000ADFF124BDFED127A93ED027AB4EEE77AAD
:1013E000F1EE10FA0F4B06DC9FED0F0AB4EEC07A57
:1013F000F1EE10FA10D519680C4A411A01EE901A54
:101400009FED0B1AF8EE616AD2ED000AC6EE816A12
:1014100047EE260AC2ED000A186008BD582C0020CD
:1014200035FA8E3CBC29002035FA8EBCA02B00205A
:101430000024744910B50D4B0D491C68B1F9080022
:101440000C4A24181C6010605C68B1F90A00B1F9FC
:101450000C1050602018586098689160411899608D
:10146000054B1878421C1A7010BD00BF342D0020A7
:10147000002C0020242900204C2D0020F0B51F4B0B
:101480001F4E196896F800C058681E4A91FBFCF57B
:101490001D490C684F682D1B90FBFCF43C1B9F689A
:1014A00088681A49156097FBFCFCCCEB000001EE44
:1014B000905A00EE904A06EE900AD1ED007AB8EE0E
:1014C000E11AB8EEE00AB8EEE67A546090600022C5
:1014D0001A605A609A6021EE271A0D4B327020EE86
:1014E000270A67EE277A83ED001A83ED010AC3ED20
:1014F000027ABDE8F040FFF769BF00BF342D00203D
:101500004C2D00200C2B00206C2B0020F8280020F4
:10151000582C002070B5B2B000243194154D22E053
:10152000FFF732FF144B14B9B3F9083005E0012C72
:101530000CBFB3F90A30B3F90C304DF806300A206D
:10154000043606F035FAC42EEAD13121684631AAB4
:1015500004F0ECFB319B0F2B07DC0134E4B2032CCD
:1015600045F8040F03D00026DAE7002000E0012050
:1015700032B070BD682B0020002C00200B4B0C4AB1
:101580001868B2F900C000EB0C0119605868B2F994
:101590000210B2F904C09A68401802EB0C015860BE
:1015A0009960044B1878421C1A707047E828002094
:1015B000002C0020642C0020F0B5114A114C177843
:1015C0001148124900231646114D5A5992FBF7F261
:1015D00000EE102A04340430F8EEC06A94ED007A6C
:1015E000D0ED007A46EE877A002217EE90CA5A5163
:1015F00004330C2B41F804CFE6D13270F0BD00BFAC
:10160000642C002014290020282A0020C42900204E
:10161000E828002010B5FFF7CFFF022006F0C8F938
:10162000002408E0FFF7B0FEFFF7A8FF40F6C41063
:1016300006F0B8F90134B4F5C87FF3D11F4820494A
:101640000023204C1A5900EE902A9FED1F0AB8EE95
:10165000E07A043087EE007AD0ED007A67EE277AE0
:1016600017EE902A41F8042F00221A5104330C2B54
:10167000E7D11649164B17481A7091ED022ADFED93
:10168000162A72EEC21AD1ED004A32EE211AD1EDBD
:10169000013AB5EEC01AF1EE10FA104BB1EE644A01
:1016A000B1EE633AD8BFB1EE411A80ED004A80ED49
:1016B000013AC0ED021A83ED001A10BD1429002072
:1016C000C4290020E82800200000C843C8290020C1
:1016D000642C00202C2A00206DE71CC1182C00204F
:1016E000044901EB800393ED000AFDEEC07A17EE8A
:1016F000900A7047002B002010B54620002106F00C
:1017000063F90024462004F00101013406F0B2F927
:10171000E4B2322006F04CF90A2CF3D14520002126
:1017200006F052F94520002106F0A4F945200021D9
:1017300006F04AF94520002106F09CF920200321FB
:1017400006F042F91020032106F03EF9242003217F
:1017500006F03AF91120032106F036F9252003217D
:1017600006F032F92220032106F02EF9032123206E
:1017700006F02AF93720002106F026F94020002142
:1017800006F022F94120002106F01EF93420002144
:1017900006F01AF916220D48172106F05BFA0C48DC
:1017A0000378092B1A460B4B0DD852B24FF0485113
:1017B000914006D44FF0E07010FA02F103D50822F0
:1017C00002E0062200E004221A7010BD042E002060
:1017D000B82B0020BC0C0020074B08490848094AD8
:1017E000196058609A600849084B0948094A19600D
:1017F00058609A60704700BF1829002036069D3A4D
:101800006D8C9DBA75029ABA000018438428002096
:101810000000C0410000844138B5094C094DFEF775
:1018200085FD23682860C01AB0F57A7F07D3FFF7DB
:10183000ABFDFFF7FFFDFFF7A1FE2968216038BD72
:10184000C42B002014290020024B00221A605A6089
:101850009A607047DC280020F8B517462DED088BFC
:1018600004460BEE103A0D46DDED0EAADDED0FBA83
:10187000FFF7EAFF87F000400FF0A4F806460F4696
:1018800085F000400FF09EF832463B4610F0F8FC21
:101890000FF0CEFB09EE900A20460FF093F8324687
:1018A0003B4610F0EDFC0FF0C3FB0AEE100A19EEF8
:1018B000900A0FF087F806460F4610F05FFB0FF016
:1018C000B7FB394608EE900A304610F039FC0FF0AD
:1018D000AFFB08EE100A1AEE100A0FF073F8044678
:1018E0000D4610F04BFB06460F462046294610F0E9
:1018F00027FC0FF09DFB2BEE886A1AEEA86A09EE12
:10190000100AB1EE460A10EE100A0FF05BF804461A
:101910000D46304639460FF08BFB6AEE887A06EEAC
:10192000900A67EE897A4BEE267A2BEEA87AB6EE0D
:10193000008A47EE097A17EE900A0FF043F80B463B
:1019400002462946204610F09BFC29EE884A0646AE
:1019500014EE100A0F460FF035F804460D4610F04D
:101960000DFB0FF065FB294609EE900A204610F0AA
:10197000E7FB0FF05DFB6AEE083A08EE900A13EE03
:10198000900A0FF01FF804460D4610F0F7FA0FF01A
:101990004FFB294609EE100A204610F0D1FB0FF04C
:1019A00047FB39460AEE100A30460FF041FB03EEC2
:1019B000100A23EE083A13EE100A0FF003F804465B
:1019C0000D4610F0DBFA0FF033FB294608EE100A43
:1019D000204610F0B5FB0FF02BFB68EE8A7A02EE82
:1019E000900A69EE8A4A29EE895A28EE897A27EE0A
:1019F000A21A24EEA20A17EE080A05EE081A27EE2C
:101A0000227A67EE887A04EE887A55EE227A2048A8
:101A1000204B80ED001A83ED000A1F481F4B80ED1C
:101A2000007AC3ED007A61EE001A21EE012A1C480B
:101A30001C4B80ED002AC3ED001A61EE075A1A48CC
:101A40001A4B21EE271AC0ED005A83ED001A20EE42
:101A5000076A60EE000A1648164BC0ED000A83EDD7
:101A6000006A20EE270A1448144B67EE076A80EDDF
:101A7000000AC3ED006A27EE277A1148114B67EE82
:101A8000A77A80ED007AC3ED007ABDEC088BF8BD33
:101A9000000C0020942D0020982D00209C2D00206B
:101AA0001C2C0020202C0020242C0020282C00207E
:101AB000A82B0020AC2B0020DC2C0020242B0020A5
:101AC000282B0020E42900202DE9F04F2DED0C8B70
:101AD00083B09DED18BA0AEE903A2BEE0B0A0AEE8F
:101AE000AA0ADDED19BADDED1D7A0BEEAB0AB6EEF2
:101AF00000CA67EE8C7ADF4DDF4CE04FDFF8E483FD
:101B0000DFF8E493DFF8B4B3DD4EC5ED007A09EEFB
:101B1000100A10EE100A08EE902A08EE101A0EF0C5
:101B200051FFDDED1ACA9DED1BDADDED1CDA10F078
:101B300043FDD4ED006ADFEDD35A9FEDD36A66EE24
:101B4000A59A26EE86AAD14AD14DC2ED009A87ED1C
:101B500000AA0FF06DFA07EE100AB7EE006A86EEE3
:101B6000074ADFF85CC3DFF850E3CA48CA49CB4BE9
:101B7000CB4ABA464C464FF00007D8ED001A9CED10
:101B8000002A9EED001A71EEC20ADBED004A96EDC6
:101B9000005AD9ED003A95ED003AD0ED007A30EEDA
:101BA000C10A6BEE045A73EE232A35EE64BA2AEEAC
:101BB000847A6BEE846A30EE274A3BEE0B5A72EE63
:101BC000A24A64EE257A54EEA67A65EE266A54EEB1
:101BD000076A24EE877A15EE257AB5EEC0AAF1EEF3
:101BE00010FA07EEA99A06EEA98A47EE298AC2EDF5
:101BF000007AC1ED006A83ED007AB0EE4CBAF0EEE7
:101C0000469A8B4699465CDDDFF8A082A54BD8ED5D
:101C1000000A47EE8A0A1868C8ED000A17EE901A03
:101C20008DE80C0004F0A6F89DE80C0008B14146D0
:101C30000F60DFF8B88210689BED001AD8ED001A2B
:101C40009AED002A41EE021A1860974BC8ED001A6F
:101C50001868019311EE101A04F08CF84246019BAB
:101C600000B11760DFF88882DBF800E0D9ED002AC8
:101C7000DAED003A98ED003A02EEA33ADFF874A2EA
:101C8000C3F800E088ED003ADAF80000009212EEA6
:101C9000901A04F06FF843465146009A00B11F6055
:101CA000824FD9F8009097ED004AD2ED004A93EDAB
:101CB000005A39EE049A38EE248A78EE858AC1F803
:101CC00000902DEE0D7A0CEEAC7A0DEEAD7A784FD9
:101CD000DFF8248217EE100A0EF074FE10F06CFC90
:101CE000744B1A78012A40F01B810FF0A1F907EE1E
:101CF000900AF5EE407AF1EE10FA00F01181C9EE8B
:101D0000A77A6D4863496D4B6D4AD0ED006AD7EDF7
:101D100000BA98ED000A7BEE665AD1ED003A2DEE3E
:101D200027AA3BEEC06A75EEE34A6CEEA7AAD3ED94
:101D3000001A96ED004A2AEE066A0AEEA46A6DEED3
:101D4000A79A34EE217A92ED005A09EE876A7BEE6B
:101D5000802A36EE067A3BEE456A94ED001A36EE9E
:101D6000633AD5ED000A6AEE037A4AEEA27A31EEC2
:101D7000602A71EE205A49EE827A74EE614A37EE9B
:101D8000A70A6AEE25BA20EE000A07EE070A4AEE15
:101D9000A4BA36EE665A10EE100A49EE85BA0EF075
:101DA00011FE10F009FC0FF043F9454A4349394B45
:101DB00007EE100A4048D2ED004AD0ED006A95EDDA
:101DC000001A3BEE663AD4ED000A3BEE64BA91EDA0
:101DD000000AD3ED003AD6ED005AD7ED001AD8ED3F
:101DE000007A7BEEABBA31EE204A3BEE665A73EED8
:101DF000632A31EEE76A35EEC02A70EE253A2BEE03
:101E0000844A2BEE853A07EE064A2BEE822A07EE2D
:101E1000233A07EE222A74EE041A73EE032A32EEF6
:101E2000022A29EEA11A6AEEA20A59EE820A1AEED5
:101E3000221A24482449254A254B2AEE020A80ED1D
:101E4000001AC1ED000A1AEEA10A22482249DFED6C
:101E5000237ADFED235A92ED006AD0ED006AD1EDCE
:101E6000009A01EE256A40EEA56A40EE259A01EE41
:101E7000279A43E0782B0020080C0020C82C002073
:101E8000DC2C0020CDCC4C3E6F12033AB02B00204E
:101E9000202C0020E42900203C2A0020C02900201A
:101EA000642B0020402D0020442D0020D82B002042
:101EB000AC2B0020382A0020242B0020242C0020CA
:101EC000A82B00205C2B0020E02C00203C2C0020C4
:101ED0004C2C002094280020EC2C00206F12033B97
:101EE00017B751381C2C0020282B0020D8280020A0
:101EF000EC2B0020482D0020282C002000EEA78A83
:101F000040EE278A83ED000A82ED006AC0ED006A88
:101F1000C1ED009A39EE069A38EE268A78EEA98A43
:101F2000DFF884C2DFF884B2DFF884A2DFF884929D
:101F3000934ADCED003A9BED000A9AED007A63EEDD
:101F4000A89A23EE885A40EE099AD9ED001A17EEA6
:101F5000495A67EE284A41EEC89A01EEE85A50EE17
:101F6000084A92ED003A67EE087AF0EE472A49EE09
:101F7000832A41EE894A40EE287AB0EE404A05EEC7
:101F8000034A43EEC97AB0EE632A04EE832A22EEB6
:101F9000A21A04EE041A47EE831A02EE021A01EEA8
:101FA000A11AC9ED001A11EE100A8CED002A8BED72
:101FB000004ACAED002ACDF804C00EF003FD10F06F
:101FC000FBFA02460B4600206E490EF079FE0FF038
:101FD0002FF8DDF804C06C496C4B9CED007AD9ED0C
:101FE000005ADBED006ADAED000A04EE900A64EEB6
:101FF000A68A64EEA09A24EE877A64EEA54A8CED58
:10200000007A28EEA90A28EE876A29EE875A28EE78
:10201000A88A27EE079ACBED008A27EE247A68EE8D
:10202000A48A70EE073ACAED009AC8ED008A69EEFC
:10203000A98A69EEA49A33EEA33A85ED000A81EDF0
:10204000008A534D53485449C6ED009A38EE688AC9
:1020500064EEA49A85ED006A84ED007AC9ED004A29
:1020600087ED005AC3ED009AC0ED008A81ED009A19
:1020700013EE100A38EE499A0EF0A4FC39EE299AB4
:10208000044619EE100A0D460EF09CFC02460B4663
:102090002046294610F0F4F80EF0CAFF3F4C2060AD
:1020A0003B48D6ED002A90ED002A72EEC27A37EE58
:1020B000A74A14EE100A0EF085FC10F08DF80EF011
:1020C000B7FFD7ED001A98ED001A71EE816A80F023
:1020D000004576EEA60A656010EE900A0EF072FCDE
:1020E0002C4B0D462849D3ED005AD1ED004A044649
:1020F0002948264990ED007A34EEA56A91ED000A50
:1021000036EE475A75EE403A13EE900A0EF05AFC3E
:102110000B4602462946204610F0B2F80EF088FF22
:10212000DBED001ADAED000A31EEA12ADDF804C079
:102130001B4B30EEA03A22EE204A60EEA00A51EE90
:10214000A10A9CED001A41EE410AD9ED006A71EE38
:10215000017A62EE012A53EE262A07EEA64A46EEDF
:10216000A60A80F0004018600E4BC3ED002A83EDF4
:10217000014AC3ED020A03B0BDEC0C8BBDE8F08F41
:10218000782B00200000F03F1C2C0020E4290020C8
:10219000242C0020A82B0020242B0020DC28002049
:1021A000BC2B0020502B0020982D0020000C00207C
:1021B000942D00209C2D002070B51748174D0378F2
:1021C000174E0024042B22D10EE0164A164814F8AC
:1021D00002C055F8042F00EB0C1392B2596808683E
:1021E000597BFEF72DFC013433689C42EDDB70BD5A
:1021F0000E4A0D4814F802E055F8042F00EB0E13B8
:1022000092B259680868597BFEF71AFC01343368AA
:102210009C42EDDB70BD00BFB82B00206C2C002071
:102220004C2B0020FA510208BC1A002079500208F9
:1022300070B505461348144E03780024042B1DD1B5
:102240000BE01249124B605C03EB001101344A6849
:10225000497B1068AAB2FEF7F3FB32689442F0DBC8
:1022600070BD0C4A0A4914F802C001EB0C13AAB263
:102270005868597B0068FEF7E3FB013433689C42E1
:10228000EFDB70BDB82B00204C2B0020FA51020868
:10229000BC1A002079500208F8B53E493E4C0B7834
:1022A0005BB2042B39D10328C8BF18462060002533
:1022B00020E03A4F3A4EEF5D06EB07167068007962
:1022C00004F0B4F8374A7368B0FBF2F14A1E18689C
:1022D00091B2FEF7B1FB7068006815B944F6206151
:1022E00001E040F6C411FEF7A9FB3846072105F0CE
:1022F0006BFB01352668B542DBDB00240AE0274A88
:10230000274814F802C000EB0C1101344B68186820
:10231000FEF79BFBB442F2DB35E008250728C8BF77
:102320002846206000251CE01F4F1D4EEF5D06EB88
:10233000071601357168087904F078F8194A73684E
:10234000B0FBF2F0411E89B21868FEF775FB7668A3
:1023500040F6C4113068FEF771FB3846072105F0DE
:1023600033FB2668B542DFDB00240AE00E4A0C4945
:1023700014F802E001EB0E10013443681868FEF710
:1023800064FBB442F2DB4FF47A70BDE8F840FFF72B
:102390004FBF00BFB82B00204C2B0020FA51020881
:1023A000BC1A002040420F007950020838B505469B
:1023B00000240FE040F24C40FFF73AFFFA2005F00E
:1023C000F7FA4FF47A70FFF733FFFA2005F0F0FACE
:1023D0000134E4B2AC42EDD138BD10B5044603F08F
:1023E0004EFC01EE900AB8EEE11A84ED011A03F0FA
:1023F00046FC404200EE900AB8EEE00A84ED020A84
:1024000003F03DFC07EE100AF8EEC77AC4ED007A3F
:1024100010BD0000F8B5424D2DED088B07460E4665
:102420001E20032103F00EFC1E2106223D4805F06C
:102430008BFC2846FFF7D1FF1E200221012203F06A
:102440003FFC394A394995ED022AD2ED003A92ED26
:10245000013AD2ED022AD5ED009A95ED019A72EE7D
:10246000628A39EE439A79EEE39AC1ED028A3846E0
:10247000C1ED009A81ED019A0EF0A4FA04460D46D2
:102480000FF07CFD0EF0D4FD29460BEE100A20461D
:102490000FF056FE0EF0CCFD0AEE900A30460EF01C
:1024A00091FA04460D460FF069FD06460F46204698
:1024B00029460FF045FE0EF0BBFD39460AEE100A24
:1024C00030460EF0B5FD69EE2A1A01EE100A21EE33
:1024D0008A8A09EE818A68EE8B0A68EEAA8A59EE2A
:1024E0000B8A00EE8A8A28EEA80A08EE080AF1EEA6
:1024F000688A10EE100A0EF065FA10F05DF80EF022
:1025000097FD07EE900A88EE277A0948094BC8EE36
:10251000A77A80ED007AC3ED007ABDEC088BF8BD98
:10252000F42B0020042E002084280020002B002003
:10253000F8260020FC260020322008B505F038FAE5
:102540001E2003F0A1FB102804D10D4B186840F0A9
:1025500004021A60012120221E2003F0B1FB322068
:1025600005F026FA02211E20012203F0A9FB3220E9
:1025700005F01EFA00200146BDE80840FFF74ABFFB
:10258000582D00200548064B90ED007A93ED000A87
:1025900077EE407A17EE900A704700BFD02C0020EB
:1025A000302D002008B5FFF7EDFF00EE100AFDEE1C
:1025B000C07A084B17EE900A1A6800F5FA7090423C
:1025C00001DD186008BD044B19688842B8BF186067
:1025D00008BD00BF500C0020B00C002030B5C489ED
:1025E000002224F0FF03C38113464FEA620112F078
:1025F000010F15BF10F8111030F811104B4083EA8D
:102600001123082113F4004F4FEA43031DBF83F445
:1026100040554FF6FE732B409BB20139F2D1013287
:10262000102AE2D1C481180B30BD000070B5124DE4
:102630000646A0243046214603F004FB02220F4840
:10264000314605F081FB022813D103F00FFB023461
:10265000E4B2B02C25F8020FECD1094C2046FFF76C
:10266000BDFFE28902F00F03C11A484240EB0100AE
:1026700070BD002070BD00BFAE2C0020042E0020D5
:10268000B02C00201E2103F0DDBA000038B5002177
:10269000044603F0D7FA032221460B4805F054FB09
:1026A000094805F064FB03280CD103F0DDFA044669
:1026B00003F0DAFA054603F0D7FA40EA052040EACB
:1026C000044038BD002038BD042E0020762058215B
:1026D00003F0B8BA2DE9F8437620FFF7D7FF184981
:1026E000184A8B884C8910604FEA034824020B89F2
:1026F000154D041BA3FB04674FEAE47C03FB0C7736
:10270000F20942EA4762FB114FF0000912EB08029E
:1027100043EB0903C5E900234B88DE03CB880B4953
:10272000A3FB044503FB0C55220A42EA056200277D
:102730002B12921943EB0703C1E90023BDE8F8838C
:10274000B02C0020D4290020302B0020402C002069
:102750007620482103F076BA38B57620FFF796FF49
:10276000124B134918600B684968C217414303FBB9
:102770000212A3FB00010F4B5118D3E90023440DB3
:1027800044EAC1244D15A21A65EB0303900A40EAFE
:10279000835099120EF06CFDDFED077A06EE900A79
:1027A00066EEA76A16EE900A38BD00BF30290020F9
:1027B000402C0020302B00200000003D38B5164C86
:1027C00023782DED028BF3B1144D95ED008AFFF7C0
:1027D000C3FF07EE900A124938EE278A85ED008A7A
:1027E0000D786A1C0F4D0A702878012805D1FFF773
:1027F0006DFF00232B70237001E0FFF7A9FF2A78FB
:10280000501C287005E0FFF765FFFFF7A1FF0121CD
:102810002170BDEC028B38BDF4280020382C00203C
:10282000812B0020602B0020F8B52D4D2B78002B3C
:1028300051D006EE903A2B4C2B4B94ED007AF8EEEB
:10284000E67AC7EE277A9FED297AC7EE876AC3ED4D
:10285000007A16EE900A0EF0B5F8254B0646186879
:102860000F460EF0AFF802460B46304639460FF0E1
:1028700009FD02460B4600201E491F4E0DF042FF87
:1028800015A3D3E900230EF0F1F80EF0D1FB1B4B9A
:1028900018601B4B197819B1002230601A7005E0DE
:1028A000184B31681A6803F023FA30600022226066
:1028B000154C20780021297068B9FDF737FD1349C0
:1028C0000B68C3EB000C1248844504D93068114BE7
:1028D000012218602270F8BD0000000040A5E5400C
:1028E000812B0020382C0020F026002080E6C547F0
:1028F000500D00200000F03FD02C0020C42C002000
:10290000E00C0020B40C00203E2B0020F426002018
:1029100080969800302D002008B5FFF74FFFBDE8E6
:102920000840FFF781BF000010B52DED028B9FED31
:102930000C8A1924FFF7F0FF0A4BD3ED007A0C2024
:1029400038EE278A05F034F8013CF3D1B3EE090ADA
:1029500088EE000A044880ED000ABDEC028B10BD31
:1029600000000000C42C0020302D002010B5FDF721
:10297000DDFC1A4C1A4920601A4A1B4B1B4C1A608A
:102980000020086020607620FFF77CFE032005F021
:102990000FF87620FFF74AFE20B1154B186840F07B
:1029A00008021A60FFF792FE1249134800230B70C9
:1029B00003700A2004F0FCFFFFF700FF0A2004F078
:1029C000F7FFFFF7A9FF0A2004F0F2FFFFF7ACFFC3
:1029D000FFF7AAFF2168094A116010BDF426002004
:1029E000F0260020AEDC423E500D0020302D0020AD
:1029F000582D0020F4280020602B0020D02C00202F
:102A000007EE100A9FED0B0ADFED0B6A27EE001AA6
:102A100027EE267AFCEEC10A27EE000A10EE900A95
:102A2000FCEEC07A0549064B088017EE902A1A8002
:102A3000704700BF0000C842CDCC8C3F640C002022
:102A4000A80C002009490B7883420ED908491822A6
:102A500002FB00104FF49663C38042F2AC61002386
:102A60000022018103824282436170479128002045
:102A7000340D00200B4B182202FB0033587880B92C
:102A8000DB88B3F5FA7F09D3B3F5577F08D340F25B
:102A9000135083428CBF04200320704701207047ED
:102AA00002207047340D002010B50446FFF7E2FF06
:102AB000064A182101FB04230549DB880A88504394
:102AC0008342ACBF0020012010BD00BF340D0020A8
:102AD000640C002010B50446FFF7CCFF064A18210D
:102AE00001FB04230549DB880A8850438342ACBFBD
:102AF0000020012010BD00BF340D0020A80C0020D4
:102B000010B50446FFF7B6FF064A182303FB04215D
:102B10004FF4AF72CB8850438342ACBF00200120FA
:102B200010BD00BF340D00202DE9F047324A334B71
:102B3000334F344C0025824615701D703D70914610
:102B4000984652E0207804F01FFFB4F90230B4F840
:102B500004C02189434344BF03F57E631F330CEB5C
:102B60002336B0B2814288BF2081E080A07AFF285E
:102B700024D004F009FFB4F90C60E389B4F912C061
:102B800046430A20464344BF06F57E661F360A21A7
:102B90004B4303EB2630208202B2B4F91030616956
:102BA0009445B8BF60820AFB03F05B26704344BFC4
:102BB00000F5FE40FF3001EBE0326261EEB23046DC
:102BC000FFF772FF10B1012289F800203046FFF7AD
:102BD00081FF10B1012388F800303046FFF790FFE5
:102BE00008B10121397001351834074A107885423F
:102BF000A8DBBDE8F08700BFD82900205D2D0020AC
:102C0000D8260020340D00209128002038B5094C2A
:102C100020700846FFF7F4FE002503E0E8B2FFF756
:102C200011FF013523789D42F8DB0020BDE83840D4
:102C3000FFF77ABF9128002010B52DED028B344CA0
:102C40003448E2783449354C50F82220096820682D
:102C500043189A42324B06DD93ED007ADFED317A6C
:102C600077EE277A09E0C1EB000C624507DAD3ED75
:102C7000000A9FED2C0A70EEC07AC3ED007A186846
:102C8000294B2A4A1968FDF7EBFE9FED298A07EECA
:102C9000900AF4EEC87AF1EE10FA08D49FED258A76
:102CA000F4EE487AF1EE10FAD8BFB0EE678A224906
:102CB0009FED227AD1ED007AF4EEC77AF1EE10FAA8
:102CC0000BD49FED1F1AF4EE417AF1EE10FACCBF4F
:102CD00011EE101A17EE901A01E017EE101A18EE06
:102CE000100A184AFDF7BCFE2368174A03EE103A93
:102CF000F8EEC32A02EE100A72EE881A31EE828ACA
:102D0000BDEEC88A82ED008ABDEC028B10BD00BF0B
:102D10003C0C00206C0C00204C0C0020900C00207F
:102D2000902B00200AD7A33CE0290020D02A0020C5
:102D30000000C8C30000C8437C2B0020000096C3DD
:102D400000009643E82A0020AC0C002010B5214C6E
:102D50002149E078214C51F820202368D11A204BDA
:102D600001EBD170D3ED007A9FED1E7A4010C82898
:102D7000A8BFC8206FF0C702F4EEC77A9042B8BF70
:102D80001046F1EE10FA0BD49FED177AF4EE477A65
:102D9000F1EE10FACCBF17EE101A17EE901A01E000
:102DA00017EE101A02EE900AB8EEE22A0F4A12EE5F
:102DB000100AFDF755FE22680D4B01EE902A01EE38
:102DC000100AF8EEE10A30EE810AFDEEC07AC3ED9A
:102DD000007A10BD3C0C00206C0C0020900C0020F0
:102DE0007C2B0020000096C300009643E82A0020B8
:102DF000AC0C0020134A1378032B21D0012B14D1E3
:102E00001149124891F803C0114B016853F82C3056
:102E10001048C91A03680029B8BF4942994202DD27
:102E2000032313707047FFF707BF022B01D1FFF791
:102E30008DBF054A064BD178074853F82120026020
:102E4000704700BFE02600203C0C0020900C0020C2
:102E50006C0C0020480C0020AC0C00202DE9F04741
:102E60002DED048BA04DA14C29786A7854F821707F
:102E70009F4B54F822001B789E4C9F4E9F4DA7F508
:102E8000BA670C3F06EE107AA0F5BA6A022B82B040
:102E9000AAF10C0AB8EEC67A27D1994F994A97ED54
:102EA000002AD4ED002A9FED988A62EE221A27EEBE
:102EB000083A11EE901A13EE100AFDF7D1FD01EE5B
:102EC00010AA97ED017AF8EEC10AD4ED007A20EE4F
:102ED000880A67EE676A306016EE901A10EE100AE4
:102EE0008A4AFDF7BDFD2860ACE0012BDFF8448283
:102EF00040F09A8087EAE770A0EBE7708AEAEA730D
:102F0000A3EBEA73FA3BFA3804EE103A04EE900AA7
:102F1000DFED7F7AB8EEE47AF8EEC43A27EE277A4E
:102F200063EEA77AB4EEE77AF1EE10FAD4BF00238D
:102F3000012313B1B5EEC07A01E0F5EEC07AF1EEEF
:102F400010FA54BF00220122B2B9DFED726A13B148
:102F5000B4EEE67A01E0F4EEE67AF1EE10FAD4BFD0
:102F60000021012159B9DFED6C6A13B187EE268A81
:102F700007E087EEA68A04E09FED688A01E0B0EEE4
:102F8000048ADFF87C915F4A07EE107A99ED006AB7
:102F9000D4ED006AF8EEC78A66EE265A18EE900A5B
:102FA00015EE901AFDF75CFD28EE285AD8ED007A50
:102FB000B7EE009A002F39EE489A07EE100A65EE38
:102FC000277A4B4606DAF5EEC07AF1EE10FAC8BF62
:102FD000F1EE677A49EE077A01EE90AAC6ED007A23
:102FE00093ED011AD4ED007AF8EEE18A61EE670AFA
:102FF00018EE900A10EE901A444AFDF731FD28EEC3
:10300000280AD8ED007ABAF1000F07EE100A60EE38
:10301000277A06DAF5EEC07AF1EE10FAC8BFF1EEC3
:10302000677A49EE077A0BE0D8ED007A02EE90AAB3
:1030300027EE277AB8EEE22A86ED007A62EE277A4A
:10304000C5ED007A94ED002AB1EE423AFDEEC32AB6
:10305000FDEEC21ADFF8E080314B4FF47A7700972B
:1030600012EE901A11EE902AD8F80000FDF780F9C0
:1030700007EE900AB8EEE71A2A4A306811EE101AE5
:10308000FDF7EEFC94ED006A00EE900AB1EE467A90
:10309000BDEEE00A2448224BFDEEC76AFDEEC65A9B
:1030A00080ED000A009716EE901A15EE902AD8F8D7
:1030B0000400FDF75DF905EE100AF8EEC54A286830
:1030C0001A4AB1EE644A14EE101AFDF7C9FC03EE79
:1030D000900A174BBDEEE33A83ED003A02B0BDEC27
:1030E000048BBDE8F08700BF3C0C00206C0C002076
:1030F000282A0020542C0020202B0020142C0020F3
:10310000DC280020882A00206666A63FA02A00202E
:10311000CDCCCC3E00007A430000C8420000000045
:1031200018FCFFFF402A002038290020582A0020E0
:10313000502D0020680C00200C2B002010B52D4BCA
:103140001A782D4B032A08D0052A02D0012A19D15A
:1031500014E0187800231A463AE0284918780A68DB
:10316000B2F5966FB4BF11464FF49661B2F57A7F0F
:10317000B8BF4FF47A710023214A14E01978204A2D
:10318000002309E019781E4A00232DE04FF4FA606D
:1031900042F8040F581CC3B28B42F7D126E001332A
:1031A00042F8041FDBB28342F9D11FE0154C1959D4
:1031B000B1F57A7F05DBB1F5966FA8BF4FF4966144
:1031C00001E04FF47A71104C01321951D2B204333C
:1031D0008242EBD10D480121017007E04FF47A7073
:1031E000013342F8040FDBB28B42F7D1BDE8104047
:1031F000FEF7E2BF8C2B0020BC0C0020F00C00205E
:103200006C2C0020082A0020702C00209028002020
:10321000074A1368B3F57A7F05DB40F23A718B42B7
:10322000A8BF0B4601E04FF47A731360704700BFEC
:10323000AC0C002070B5194B1948196800780023B0
:103240001A4608E0174D184C595101324FF4FA65EF
:103250001D51D2B204338242F4D1144B01211A68B9
:103260001C4606E053F8045F0131AA42B8BF2A4663
:10327000C9B28142F6D3002319460BE0B2F5FA6FCA
:1032800005DDE658C2F5FA6C06EB0C05E550013198
:10329000C9B204338142F1D170BD00BF1C2B0020A4
:1032A000BC0C0020E8290020F42C0020702C002009
:1032B000084B186810F008000AD0074B07485A79E5
:1032C00050F8220040F281618842CCBF00200120EA
:1032D000704700BF582D00203C0C00206C0C0020D3
:1032E0000C4A0D4811680D4B427911F0080F53F844
:1032F000220006D140F2816C6045CCBF0020012045
:103300007047A0F5A663981FB0F5A67F2CBF0020DC
:1033100001207047582D00203C0C00206C0C002030
:1033200010B5FFF7DDFF234CE0B12378032B3FD02E
:10333000214B1A78A2B921482149D0F800E0214850
:10334000C1F800E02049C0F89CE091F803C01F4894
:103350001F4950F82C0008601E490A7001221A709B
:1033600002231EE0FFF7A4FFE8B12378032B1FD050
:10337000184A1378A3B911481149D0F800E0114850
:10338000C1F800E01049C0F89CE091F803C00F4874
:103390000F4950F82C00086001211170064A137083
:1033A0000123237010BD0B4A034B1070187020705E
:1033B00010BD00BFE0260020E82C0020E0290020FE
:1033C000902B0020402A00203C0C00206C0C002098
:1033D000900C0020D42C00206048614A614B90ED95
:1033E000007ADFED617A9FED616A67EE277A92EDF0
:1033F000007A77EE465A2DE9F04177EEC76AC3EDC1
:10340000007AF4EEE57A5A4BF1EE10FAC3ED006A59
:1034100005D89FED580A76EE806AC3ED006A77EE14
:10342000060AF4EEE07AF1EE10FA07DB93ED002ADB
:10343000DFED501A32EE611A83ED001A4E4F4F4EF7
:10344000F87856F8204040F24C418C424C4C47DD15
:10345000B87856F82010A1F5B860C11E32290ED9EF
:1034600048490023C2ED007AC1F88C30464A4749EA
:10347000236000201070464B0A681A6037E093ED15
:10348000007AF5EE002AB4EEE27AF1EE10FA06D5F3
:10349000BDEE003AB4EEC37AF1EE10FA22DC3A49FE
:1034A0003B4D0878DFF8E48078B92868D8F8003018
:1034B000C0EB030E3748864519D90120C2ED007ACA
:1034C000002208702B60226011E017EE101A002015
:1034D000314AFDF7C5FAD8F800102060296006E0EF
:1034E000C2ED007A274A00232360C2F88C30BA78F4
:1034F00056F82210A1F5BA600C3807EE900AD4ED08
:10350000004AF8EEE73ADFED257A9FED254A64EEB2
:10351000A77A43EE847A9FED237AF4EEC77AF1EE30
:1035200010FA0BD49FED205AF4EE457AF1EE10FA22
:10353000CCBF15EE100A17EE900A01E017EE100A44
:103540001A491B4A8968FDF78BFA05EE900A194B58
:10355000BDEEE56A83ED006ABDE8F081A02B002096
:10356000E42B0020882B0020E12E6542000034432C
:10357000E42C00200000B4433C0C00206C0C002024
:1035800080280020402A0020802B0020D42B0020FF
:10359000602D002020A10700B82A002035FA8E3CBB
:1035A0000BD7A33BDB0F49C0DB0F4940582C002051
:1035B000702A0020102C00202DE9F041FFF74EFC6E
:1035C000FFF70AFF33480368D80703D4FFF712FC5C
:1035D000FFF71EFE304C217859B1304E327842B19F
:1035E0002F4A304892F800C04FFA8CF150F8213041
:1035F0009847FFF71FFE2C4A2C49D07851F82060DD
:103600002B4840F24B439E420ADC2A4B2A4F2B4E5A
:10361000196890F800C03F78367800231A4614E005
:10362000002306781A4622E0254D59512FB1002E6D
:1036300014BF0D464FF4FA6500E00D46DFF88880B0
:10364000013243F80850D2B204336245ECD1E7E7C7
:103650001C481B491D5859588D4204DB1A495958BA
:103660008D42B8BF2946C150501CC2B20433B24289
:10367000EED123780BB9FFF761FD2278012A07D13B
:1036800006480178012903D1BDE8F041FEF794BD59
:10369000BDE8F081442B00203A2A00209028002029
:1036A000B82B0020140C00203C0C00206C0C0020D7
:1036B000BC0C00201C2B0020292A0020282A0020D6
:1036C000E8290020702C0020F42C002038B585B2A9
:1036D0002946074802F07CFA0024A91C60F30F0475
:1036E00089B2034802F074FA60F31F44204638BDE3
:1036F000A02D002038B504468DB22946A2B2054857
:1037000002F06EFAA91C034889B2220CBDE83840C9
:1037100002F066BAA02D002038B585B229460748C8
:1037200002F056FA0024A91C60F30F0489B2034882
:1037300002F04EFA60F31F44204638BDA02D002051
:1037400038B504468DB22946A2B2054802F048FABF
:10375000A91C034889B2220CBDE8384002F040BAE7
:10376000A02D00200B4A38B5182404FB002408467D
:103770000D46FFF7ABFF2060281DFFF7A7FF606035
:1037800005F10800FFF7A2FF0023A060E36063617A
:1037900038BD00BF402A002038B5094B182404FB6F
:1037A00000340D462068FFF7A5FF6068291DFFF76C
:1037B000A1FFA06805F10801BDE83840FFF79ABFF6
:1037C000402A0020002070B50146FFF7CBFF012002
:1037D0002421FFF7C7FF02201821FFF7C3FF0320B2
:1037E0000C21FFF7BFFF04203021FFF7BBFF3C2176
:1037F0000520FFF7B7FF9820FFF768FF624A1060C7
:103800009C20FFF789FF61490860B820FFF75EFF41
:1038100000EE100ABDEEC07A5D4B17EE100A0024D0
:1038200018701BE004F10906F6003046FFF774FF3C
:1038300001EE900A574AA500B8EEE11A511981ED40
:10384000001A301DFFF768FF00EE900A524BF8EEA9
:10385000E07A5D190134C5ED007AE4B24F4D287865
:10386000A042DFD800240EE004F12F029000FFF701
:103870002DFF02EE900ABCEEE22A494B12EE101A1E
:1038800019550134E4B22878A042EDD8DC20FFF7C6
:1038900043FF444C2060E020FFF73EFF424B434C87
:1038A00018704FF486710620FFF75CFF4FF48070AC
:1038B000FFF70CFF3E4A10604FF48270FFF706FFDF
:1038C00001EE900A3B49BDEEE11A4FF4847081EDA0
:1038D000001AFFF7FBFE00EE900AFDEEE07A4FF4CF
:1038E0008C71C4ED007A0720FFF73CFFE420FFF75E
:1038F000EDFE314C2060E820FFF7E8FE6060EC2030
:10390000FFF7E4FEA060F020FFF7E0FE00EE100AF3
:10391000BCEEC07A294817EE10CA80F800C0F42027
:10392000FFF7D4FE264B1860F820FFF7CFFE06EE17
:10393000900A244ABDEEE66AFC2082ED006AFFF799
:10394000C5FE05EE900A2049BCEEE55A8C2081EDBB
:10395000005AFFF7BBFE04EE900A1C48BDEEE44A95
:1039600080ED004A9020FFF7B1FE03EE900ABCEE16
:10397000E33A174B13EE102A94201A70FFF7A6FEB5
:103980001449086070BD00BF680C0020682C00203E
:103990004C0D0020F40C0020140D0020BD0C002064
:1039A0003C0C0020440C0020B82B0020480C0020C8
:1039B000B40C00204C0C002084280020502C002047
:1039C0000C0C0020040C0020A00C00201C2B00205C
:1039D000282A0020182C0020002070B50146FFF78F
:1039E000DBFE01202421FFF7D7FE03200C21FFF787
:1039F000D3FE04203021FFF7CFFE02201821FFF76D
:103A0000CBFE05203C21FFF7C7FE694A98211068CC
:103A1000FFF770FE674908689C21FFF791FE664B2F
:103A200093F9000000EE100AF8EEC07AB82117EE04
:103A3000900AFFF75FFE00241BE06049A6008B1987
:103A400093ED002A04F10902FDEEC21AD50011EE31
:103A5000900A2946FFF774FE5948861996ED001A18
:103A6000FDEEC10A291D10EE900AFFF769FE013430
:103A7000E4B2544D2878A042DFD800240EE0524A28
:103A8000115D03EE101AF8EE432A04F12F0312EE33
:103A9000900A9900FFF72EFE0134E4B22878A04284
:103AA000EDD84A490868DC21FFF74AFE484B1C78EC
:103AB000E02160B2FFF744FE06204FF48671FFF765
:103AC0006BFE44484FF480710068FFF713FE424AD2
:103AD000116802EE101AF8EEC21A4FF4827111EE5C
:103AE000900AFFF707FE3D4B1C6801EE104AF8EE06
:103AF000C10A3B4C10EE900A4FF48471FFF7FAFDB7
:103B000007204FF48C71FFF747FE2068E421FFF790
:103B1000F1FD6068E821FFF7EDFDA068EC21FFF7FB
:103B2000E9FD3048026800EE102AF8EEC07A8C21D8
:103B300017EE900AFFF7DEFD2B490B7807EE103ADF
:103B4000F8EE476A902116EE900AFFF7D3FD27485A
:103B500094210068FFF7CEFD88212548FFF7CAFDB4
:103B6000244A117806EE101AF8EE465AF02115EEA6
:103B7000900AFFF7BFFD204BF4211868FFF7BAFD4C
:103B80001E48026805EE102AF8EEC54AF82114EE28
:103B9000900AFFF7AFFD1A490B6804EE103AF8EEF1
:103BA000443AFC2113EE900ABDE87040FFF7A2BD35
:103BB000680C0020682C00204C0D0020F40C002024
:103BC000140D0020BD0C00203C0C0020440C0020F3
:103BD000B82B0020B40C00204C0C0020480C002016
:103BE000842800201C2B0020282A0020182C0020CC
:103BF000CDCC4C40502C00200C0C0020040C00209C
:103C0000A00C002038B59420FFF760FD0E4B0F4D3F
:103C10001860A420FFF75AFD2860A020FFF756FD8A
:103C20000B4C2060AC20FFF751FD6860A820FFF727
:103C30004DFD6060B420FFF749FDA860B020FFF79C
:103C400045FDA06038BD00BF182C002018290020B9
:103C50002C2A002038B5104B104D1868104C9421B8
:103C6000FFF748FD2868A421FFF744FD2068A02144
:103C7000FFF740FD6868AC21FFF73CFD6068A821B4
:103C8000FFF738FDA868B421FFF734FDA068B02124
:103C9000BDE83840FFF72EBD182C00201829002061
:103CA0002C2A00202DE9F8434B4D4C4E4C484D4BEF
:103CB0004D492E634FF07C574C4E6F60EF614C4F77
:103CC0004C4A4D4C686319200F6030604B492B60A3
:103CD000AB61EB674A4E4B4B4B4FAC602C62AA6416
:103CE00000242A66AA6701221A70EC642C656C66AF
:103CF000AC66AC63C5F880400A78BE463046002307
:103D0000894607E0414940F8041F41494EF8041F25
:103D1000591CCBB29342F5D1002302E03D4819541F
:103D20000133D9B29142F9D33B4B3C4A3C49012083
:103D300018603C4B4FF07E5C4FF00008C2F800C0AA
:103D4000C2F804C0C2F808C081F800801C605C6042
:103D50009C60FFF77FFF3448344A354B35491A6081
:103D6000C5F89000344B3548C5F8A8104FF496724A
:103D70001E2101601A60C5F89440C5F89840C5F846
:103D8000AC40C5F8B040FDF727FD2D4A2D4B2E481D
:103D90001A6040F27E41016099F80020434607E036
:103DA0001A491B4846F8041F47F8040F591CCBB2A8
:103DB0009342F5D1254A2648264B00211170264A08
:103DC00001701A602549264B40F2AA504EF6602237
:103DD00008601A60BDE8F883402A002000004843CC
:103DE0000000A040CDCCCC3D680C0020682C002009
:103DF0000000E040000040409A9999BEBD0C0020B0
:103E0000F00C00204C0D0020100D002000007A4422
:103E10000000FA443C0C0020440C0020182900202B
:103E2000B82B00202C2A002000009642295C8F3DF0
:103E3000B40C00200000C040480C00204C0C0020B6
:103E40000AE81CC1182C00201C2B0020282A002066
:103E5000502C00200C0C0020B81E5540040C0020F3
:103E6000A00C002070B5434D434C2B7854F8232010
:103E700040F24B439A421ADC697854F82100984288
:103E800015DCA87854F820209A4210DC3B4E96F8B6
:103E900000C0BCF1010F0AD14FF47A70FEF7C8F9E7
:103EA000374A384B0020262130701070197095F871
:103EB00002C0314A54F82C002E4940F24B4398423C
:103EC00019DC0E7852F8266040F26C70864212DDE2
:103ED000487852F8201099420DDC2A4B18221A70AB
:103EE000FDF718FBFDF796FBFFF7B4FEFCF702FEAB
:103EF0000320FEF75BFA6B781F4A54F823001D4934
:103F000040F24B4C604528DC91F800C052F82C0080
:103F100040F26C73984220DD887852F82010994264
:103F20001BDD164A1378C3B9174991F800C0BCF1DC
:103F3000010F12D113493420087014481449007835
:103F400005E040F24C46013341F8046FDBB2834296
:103F5000F7D101201070FCF7CDFD95F802C054F8A0
:103F60002C2040F24C418A4202DD074B01201870A0
:103F700070BD00BF3C0C00206C0C00203A2A0020D1
:103F8000292A0020100C002090280020BC0C0020C2
:103F90006C2C002038B51A4D1A4CFCF7BFFEE8789F
:103FA00054F8202040F24B439A4201DCFFF75AFFBD
:103FB000154B197859B9154A1278012A07D1E878B2
:103FC000134954F8200009688842C8BF1A7095F850
:103FD00004E0104B54F82E2040F2826C624501DD63
:103FE000022208E0A2F5A6618A1FB2F5A67F01D2DF
:103FF000012200E000221A70BDE83840FFF790B9B6
:104000003C0C00206C0C0020292A00203A2A0020B9
:104010001C2B0020282A002010B51348134C0378CD
:1040200023B12178452001F004010CE0104A1178F9
:1040300041B1207800F00F034520D3F1010138BFD2
:10404000002100E0452003F015FD0A4A11784520C3
:10405000022901D1012100E0002103F00BFD2078AD
:10406000431C237010BD00BFD8290020DC2B00208A
:104070005D2D0020282A0020014B1868704700BFE2
:10408000BC2B0020F8B5002604460F4606703546C6
:104090000F4803F055FC28B90120013603F088FCD5
:1040A000F6B206E00A4803F05EFC60550135EDB259
:1040B000002625B1601910F8013C3B2B04D0092ED5
:1040C00002D8791E8D42E3DB00226255F8BD00BFA5
:1040D000002E00201FB500210B2201A8009105F041
:1040E000B5FF68460F21FFF7CDFF684605F0FEFEDD
:1040F0000CF09EFF05B000BD084910B5182404FB64
:104100000014FFF7E7FF2060FFF7E4FF6060FFF7B0
:10411000E1FF0023A060E360636110BD402A00203E
:1041200010B50446FFF7D6FFDFED0B7A07EE100A55
:10413000B4EE677AF1EE10FA4FF00000074B04D1AD
:10414000074A1C701070012010BD1870054B4FF409
:104150007A71196010BD00BF66E6F6428C2B002014
:104160003A2A0020F00C002070B5934803F0E8FBD9
:10417000002800F06A81904803F0F5FB8F4B18701F
:104180003138292800F26181DFE810F01301420183
:104190005F015F0147015F015F015F015F015F0137
:1041A0005F015F015F015F015F015F0138004A004D
:1041B0005400590076005F0134002E009900080178
:1041C0009E00A800AE00B9005F015F015F01E10041
:1041D0002A005F015F015F01EE005F01F400FE0055
:1041E000774800230178BBE07549764A087876491C
:1041F000002361E0744E734D002450E00020FFF76F
:104200007BFF0120FFF778FFFFF764FF6F4A106024
:10421000FFF760FF07EE900A6D4BFDEEE77ABAE01C
:104220000320FFF769FF0420FFF766FFBDE8704039
:10423000FFF7D2BB0220FFF75FFF0520F4E706205F
:10424000FFF75AFFFFF746FFFFF744FF01EE900A22
:104250006049BDEEE11A81ED001AFFF73BFF00EE69
:10426000900A5D48BDEEE00A80ED000AFFF732FFDC
:104270005A4B18600720D7E7FFF72CFF02EE900A91
:10428000BCEEE22A564B12EE100A90E0FFF722FF36
:1042900046F8040FFFF71EFF45F8040F0134484BA2
:1042A0001A789442F2DBC1E74E4C41F8044F4E4C71
:1042B000013342F8044FDBB28342F5D1B6E7FFF792
:1042C000F1FCFFF789FB0BE0FFF704FF474C206090
:1042D000FFF700FF6060FFF7FDFEA060FDF79AF9B1
:1042E000BDE87040FFF7B6BCFFF7F4FE404C20601D
:1042F000FFF7F0FE6060FFF7EDFEA06096E7FFF7C6
:10430000E9FE3C4C2060FFF7E5FE04EE900A3A49D6
:10431000BDEEE44A81ED004AFFF7DCFE03EE900AB1
:104320003648BCEEE33A80ED003A2068FEF768FBC1
:104330007CE7FFF7CFFE05EE900ABCEEE55A304B66
:1043400015EE10CA621C03F804C0D4B200E00024C9
:104350001B490878A042ECD868E729481A54013371
:10436000DAB28A42F9D361E7FFF736FBBDE8704065
:10437000FCF7C0BBFFF7AEFE06EE900ABDEEE66AA4
:10438000204B16EE100A12E0FFF7A4FE07EE100A0B
:104390001D4BFDEEC77AC3ED007A47E7FFF79AFEA3
:1043A00000EE100AFDEEC07A184B17EE900A187056
:1043B0003CE701202DE000BF002E00208C0C0020E7
:1043C000BD0C0020100D0020F00C0020680C002017
:1043D000682C00204C0C0020480C0020B40C00205D
:1043E000502C002000007A440000FA4418290020D4
:1043F000842800200C0C0020040C0020A00C0020BD
:104400003C0C0020B82B0020440C00204C0D002058
:104410000220BDE87040FFF783BE0520FFF780FE55
:1044200070B970BDFFF756FE01EE100AFDEEC10A2D
:10443000064B10EE902A43F824200134E4B200E049
:10444000002403480178A142ECD870BD082A00205E
:10445000BC0C002001482C2102F01EBC002E0020C4
:1044600008B501460A22034802F08BFCBDE808406B
:10447000FFF7F0BF002E002008B501460A220348CE
:1044800002F078FCBDE80840FFF7E4BF002E0020F2
:1044900008B501460A22034802F09AFCBDE808402C
:1044A000FFF7D8BF002E002038B50546002404E0F1
:1044B0000020FFF7EDFF0134E4B2AC42F8D138BD83
:1044C00007B50CF07FFA02460B4605480221009121
:1044D00002F036FD03B05DF804EBFFF7BBBF00BF91
:1044E000002E0020074B10B5182404FB0034206870
:1044F000FFF7E6FF6068FFF7E3FFA068BDE8104044
:10450000FFF7DEBF402A0020844638B50B480C4632
:104510006146154602F0C5FB0848094902F0C1FB97
:10452000084803681C4203D10448074902F0B9FB5C
:1045300002482946BDE8384002F0B3BB002E0020F7
:1045400040530208582D002081500208000000004E
:1045500013B50A220F216E4802F03AFC6D496C48EF
:1045600002F09FFB322003F023FA6B49684802F007
:1045700098FB022464A3D3E900236548009402F069
:10458000DFFC6449624802F08CFB322003F010FA31
:104590005F48624902F085FB5D48614902F081FB9A
:1045A0005C495B4802F07DFB322003F001FA584879
:1045B0005C4902F076FB5C4B554819780A2249B2F7
:1045C00002F006FC5349524802F06BFB322003F024
:1045D000EFF94F48554902F064FB554B4C4893F9AD
:1045E00000100A2202F0F4FB4A49494802F059FB44
:1045F000322003F0DDF946484E4902F052FB4E4BA3
:10460000434819780A2202F0BCFB4249404802F0B4
:1046100048FB322003F0CCF93D48484902F041FB09
:10462000474B3B4819780A2202F0ABFB394938481E
:1046300002F037FB322003F0BBF93548414902F064
:1046400030FB414B324819680A2202F0C1FB314964
:104650002F4802F026FB322003F0AAF901213B4A41
:104660003B48FFF751FF322003F0A2F92146374AB9
:104670003848FFF749FF322003F09AF90821334AFE
:104680003548FFF741FF322003F092F904212F4A09
:104690003248FFF739FF322003F08AF91021304AFF
:1046A0003048FFF731FF322003F082F920212C4AF5
:1046B0002D48FFF729FF322003F07AF94021284ADC
:1046C0002A48FFF721FF322003F072F98021244AA3
:1046D0002748FFF719FF322003F06AF9204A2548DE
:1046E0004FF48071FFF710FF322003F061F9224987
:1046F000074802F0D6FA322003F05AF9044802B013
:10470000BDE8104002F0D2BA000000A0999909401B
:10471000002E00209151020886500208995002088C
:10472000A6500208B1500208B82B0020C050020861
:104730004C0D0020CF500208BD0C0020E4500208B0
:10474000BC0C0020ED500208440C00200651020869
:10475000FC500208105102081E510208285102089C
:104760008A5102083551020842510208505102088C
:10477000605102087151020881510208AFF30080B4
:10478000F0B52DED028B9B4C2378692B83B0274627
:104790002ED018D8622B50D00ED8242B00F0A78131
:1047A00006D8212B00F0D281232B40F0DC81D6E10A
:1047B000612B40F0D88131E0642B4FD042D3672B7E
:1047C00040F0D18183E06E2B00F0C98006D86A2BBF
:1047D00000F09B806C2B40F0C681A8E0732B00F0AA
:1047E000D580742B00F07C81712B40F0BC81C6E039
:1047F000814C2068FFF764FE6068FFF761FEA068E7
:104800007E4CFFF75DFE2068FFF75AFE6068FFF7F9
:1048100057FEA068FFF754FE002463E00020FFF776
:1048200061FE0120FFF75EFE75480068FFF748FE55
:10483000744B1868FFF72CFE9DE00320FFF752FE33
:10484000042003E00220FFF74DFE0520FFF74AFE9B
:104850006D4800210A2202F0C2FA82E10620FFF729
:1048600041FE0020FFF714FE684B1868FFF710FEAA
:10487000674A1068FFF70CFE66490868FFF720FEDC
:104880000720FFF72FFE76E06349A5004E1901349B
:1048900030680CF097F8022602460B465A480096FC
:1048A00002F04EFB58482C2102F0F6F95B484519FE
:1048B000E4B228680CF086F802460B46524800968F
:1048C00002F03EFB50482C2102F0E6F900E0002403
:1048D000534B1A78A242D7D84B4802F0E7F9582038
:1048E000387040E120460134FCF7FAFEE4B2FFF7ED
:1048F000CFFD032CF6D1FDF745FEFFF7E1FD494959
:10490000DFED497A91ED007A12E1484C2068FFF71B
:10491000D7FD6068FFF7D4FDA0680CF053F802469D
:10492000022000900B46384802F00FFB1BE1404C80
:10493000FCF742FE022003F03BF8FCF76DFF206815
:10494000FFF7A6FD6068FFF7A3FD2F48A1680A22C4
:1049500003B0BDEC028BBDE8F04002F040BA35492F
:104960000868FFF7ADFD344B1868FFF791FD334A37
:104970001068FFF781FD244802F098F9F1E0304A11
:10498000214811680A2202F0E8F9EAE01E482D4C9D
:10499000532102F081F92C490878FFF761FD206866
:1049A000FFF78EFD6068294CFFF78AFDFFF764FB77
:1049B000FFF786FD264B1868FFF782FD19489FED2B
:1049C0001A8AD0ED007A87EE887A17EE100AFFF780
:1049D00077FD2078FFF75CFD00241E481E4A14F87E
:1049E00000C0013452F82C00FFF752FD082CF4D11E
:1049F00000243AE08C0C0020582C0020C82B00200A
:104A0000680C0020682C0020002E00204C0C002098
:104A1000480C0020B40C0020F40C0020140D0020E1
:104A2000BD0C00207C2B00200000C842F42B00208D
:104A3000E82800200C0C0020040C0020A00C002012
:104A4000582D0020DC2800203A2A0020E0260020F3
:104A5000E02900203C0C00206C0C0020464951F855
:104A60002400FFF715FD631CDCB2444A1078844231
:104A7000F4D3C0F10801C8B2FFF716FD404BB3F8FC
:104A800006C006EE90CAF8EE660A80EE880A10EEBE
:104A9000100AFFF715FD3B480078FFF7E1FC002006
:104AA000FFF7F6FC0020FFF7F3FC0020FFF7F0FC17
:104AB0000020FFF7EDFC0020FFF7EAFC0020FFF7E5
:104AC000E7FC0020FFF7E4FC38E02F482F4A10F8FD
:104AD00004E0013452F82E00FFF7DAFCE4B200E003
:104AE00000242B4B93F800C0A445EED826E0244CBC
:104AF000E08804EE100A9FED278AF8EE443A83EE30
:104B0000883A13EE100AFFF7DBFCB4F9102002EE2E
:104B1000902AB8EEE22AC2EE081A11EE900AFFF7C8
:104B2000CFFC616901EE101ADFED1B7AB8EEC17A95
:104B3000C7EE274A14EE900AFFF7C2FC174803B0ED
:104B4000BDEC028BBDE8F04002F0B0B80123009349
:104B5000124807A3D3E9002302F0F7F901E0FFF7B9
:104B6000F7FC5821217003B0BDEC028BF0BD00BFF3
:104B7000000000A099990940702C0020BC0C002076
:104B8000340D0020282A00203C0C00206C0C002052
:104B9000BD0C00200000C84200007A44002E002016
:104BA00010B502E0206802F097FC034C206802F088
:104BB000A8FC0028F6D110BD302C002010B501E073
:104BC00002F08AFC084C206802F09BFC0128206857
:104BD000F6D802F096FC20B12068BDE8104002F043
:104BE0007BBCFF2010BD00BF302C0020024A1168A2
:104BF0004B1C1818704700BF842B002004490B6819
:104C0000C21A02F40041480A00F04000704700BF99
:104C1000842B0020024B4FF49641186002F010BC28
:104C2000302C0020F0B5342899B000F0E88108D885
:104C3000322800F0AB8000F22381312840F034822A
:104C40000DE08A280BD003D8892840F02D8217E187
:104C50008D2800F0D4818E2840F0268296E02D2207
:104C600000217C24684605F0F1F901278A21F4230C
:104C70008DF80040A02078247D268DF801108DF855
:104C800015308DF816708DF817408DF819408DF895
:104C90002B608DF80300FDF785FC05128DF816508A
:104CA0008DF81500FBF78EFEA6498DF8170091EDE3
:104CB000007ADFEDA50A87EE207A020A4FF4B47776
:104CC0008DF81820A14AA2498DF819401478002CBB
:104CD00014BF022400249FED9F0A27EE000AFDEE78
:104CE000C07A17EE90CA0CF5B47090FBF7F307FB8F
:104CF000130675108DF80650974D08782B7800280C
:104D000018BF102403BB9549954A0B789548012B91
:104D100001D1137004E0032B00D00BB901260670FB
:104D200017783FB10B78032B00D01BB90023137009
:104D300028222A70007838B10978012904D1894ADB
:104D40000027272617702E7004B92C78864F874EBF
:104D500097F800E0A64506D13068FFF74FFF88B10D
:104D600041F2883001E04FF4FA60FFF73FFF306016
:104D700034B195F800C0A44502D1774B00201870DB
:104D80003C7000E004468DF8024033E100212D2202
:104D90008E24684605F05AF914207C228DF80140D3
:104DA000E0234824F4218DF800208DF803300122FF
:104DB0007D238DF818008DF819008DF82240684683
:104DC00078248DF82B308DF81B208DF81A108DF873
:104DD0002440FBF7C7FD8DF81E008DF816008DF8F6
:104DE000140000128DF81F008DF817008DF81500C3
:104DF000FBF7CAFD01128DF81D108DF81C00FBF7A2
:104E0000D3FD02128DF821208DF82000FDF7CAFB9A
:104E100003128DF81B308DF81A00FBF7D3FD8DF8C7
:104E20002200000A8DF823008DF82440FBF778FA61
:104E30004F4B1A68811A89B2881818604D4B1A684E
:104E400088184D4A186010784C4B4D4A80B118882C
:104E500001EB000C1FFA8CF14EF65F2E71451980A4
:104E600006D9107801F5AD5E411CA3F800E0117081
:104E700011781A888DF8271093128DF82830B9E030
:104E8000404B6A4603F1280518685968144603C464
:104E90000833AB422246F7D11A68226093F804C067
:104EA00084F804C0FDF77EFB8DF8050000128DF834
:104EB0000600354935480A6801688DF80720131245
:104EC0000A128DF808308DF809108DF80A20FBF7CA
:104ED00079FD030A8DF80F008DF80D008DF80B0099
:104EE0001E488DF810308DF80E308DF80C30037898
:104EF000012B01D0022B12D125492648264B0968E7
:104F00000268DB6801EB020E734501DD2B2309E02B
:104F10008A1A934201DA2D2304E03D2302E0032B99
:104F200002D121238DF826300849087818B10CA841
:104F300016211A4A42E0064803789BB30CA81621B2
:104F4000174A3BE0BC2B0020DB0F4940B92B002067
:104F5000D826002000003443100C0020E02600205A
:104F6000482C0020982B0020BA2B0020CC2C0020AD
:104F70009C2B0020842B00203A2A0020682B002044
:104F8000D52C00204C500208500C0020B00C002002
:104F9000900C00204C0C00206C0C00209351020857
:104FA000A151020842490B781621022B0CA801D10D
:104FB000404A03E0012B0CBF3F4A404A05F0BCF8D1
:104FC0000CA805F0EFF8C0F115035A08D2B200237F
:104FD0000BE00DF1600C0CEB030010F8301C49B134
:104FE000801800F84F1C581CC3B203EB020EBEF130
:104FF000140FEEDD6846FBF79FFC012055E0002111
:105000002D220CA805F022F8F4247C224825142334
:105010008D218DF83020D0207D228DF847408DF8ED
:105020004950012478258DF85B208DF840308DF8AB
:1050300041308DF831108DF833008DF848408DF8EF
:105040004B50FDF7AFFA01128DF848108DF847006C
:10505000FBF7B8FC8DF84900000A8DF84A000CA84F
:105060008DF84B50FBF77EFC03128DF83F308DF826
:105070003D308DF84F308DF83E008DF83C008DF8B6
:105080004E00FBF781FC02128DF84D208DF84C008C
:10509000FBF78AFC01128DF850000CA88DF8511016
:1050A000FBF74AFC204600E0002019B0F0BD00BF2D
:1050B000282A0020B3510208C7510208DA51020819
:1050C00070B52A4C2378032B4ED8DFE803F0021189
:1050D0001F3DFFF773FDC0B2FF2845D0FFF7A2FDCB
:1050E000002841D0FBF722F92149012308600BE099
:1050F0001F4DFBF71BF92A68801AB0F5FA6F33D9F8
:10510000FBF714F902232860237070BD184EFBF7DB
:105110000DF93368C3EB000CBCF57A7F24D9154D2B
:1051200015482B78006815495A1CC95C03682A7019
:105130001A689047FFF734FDFBF7F8F829783060DC
:105140002C2911D90323DFE7094DFFF729FDFBF7D0
:10515000EDF82B68C21A41F28830824204D9FBF77D
:10516000E5F800212860217070BD00BF482B0020A9
:105170002C2C0020392A0020302C0020642D002007
:1051800013B53C484FF4E13102F0D8FB4620002132
:1051900002F01AFC4620002102F06CFCFEF712FB24
:1051A0008820FEF793FADFED347A07EE100AB4EEAA
:1051B000677AF1EE10FA05D0FEF774FD0124FEF7D0
:1051C0000BFC00E00024FCF797FA2C4B1878FDF755
:1051D00063F82B492B4891F9002050F8223098476A
:1051E000FCF7E4F8FCF796F90028FBD01CB1FCF7BB
:1051F00011FAFEF7F1FB244CFBF7E4FCFEF702FD8D
:10520000206840F010032360FDF796F90020014666
:10521000FDF700F91D4B1E495A68D1F800C00092F5
:1052200098680190002001468CF000421B68FCF752
:1052300013FBFDF79BFB174A2368107843F020010E
:10524000216038B1144A43F06001216001201168E7
:10525000FDF7DCFC1148FFF7DDFCFBF767F8104AAF
:1052600001211060462002F005FC0E4B0020187052
:105270001CBD00BF002E0020CDCC4C40BC0C00203B
:105280004C0D0020940C0020582D0020002B0020F5
:10529000182C0020502C00200C0C0020E82D0020A1
:1052A0006C2C002090280020094B0A4A19681268CB
:1052B000501A00EE100ADFED087AB8EE407A07497E
:1052C0001A60C7EE277AC1ED007AFEF763BE00BF11
:1052D000F02B0020D42B002000247449A40C0020C3
:1052E00008B50F4A0F4B126819681A60501A00EE81
:1052F000100ADFED0D7AB8EE407A0C480C490368CD
:10530000C7EE277A5B07C1ED007A07D5094908681F
:105310004968FDF77FF8084B0120187008BD00BFF1
:10532000D42B0020DC29002000247449582D0020B3
:10533000A40C0020DC280020382A002008B5134ADD
:10534000134B126819681A60501A07EE900AB8EEEB
:10535000677ADFED107AC7EE277A0F480F490368A6
:105360005A06C1ED007A0AD5DFED0D0A67EEA07A84
:10537000BCEEE70A10EE103A98B2FDF7D5FBFEF747
:10538000F3FEBDE80840FFF7FBB900BFD42B0020B7
:10539000C429002000247449582D0020A40C0020AA
:1053A00000007A44094B0A4A19681268501A00EE44
:1053B000100ADFED087AB8EE407A07491A60C7EEA6
:1053C000277AC1ED007AFEF727BE00BFF02C00203F
:1053D000D42B002000247449A40C00200022027069
:1053E0004270704700780E2894BF0020012070475B
:1053F00010B5027844781319DBB20E2B01D90F3B9C
:10540000DBB2096800EB83030E2A596002D801322F
:10541000027010BD631CD9B20E29417001D900225F
:10542000427010BD07EE901A244A2549254B91ED94
:10543000003AD2ED004A07EE100A23482349244AD5
:1054400090ED001A63EE244A93ED000A04EEA71AC9
:10545000204B80ED001A93ED004A1F481F4B77EE5A
:10546000401A9FED1F2A90ED000A63EE043A01EE08
:10547000821A03EEA70A21EE276AF6EE000AF0EE82
:10548000405A91ED005A46EE205A1649D2ED002AB4
:10549000D1ED006A23EE055A30EE067A45EE272A52
:1054A00045EEA76A80ED007A0F48C2ED002AC1EDF3
:1054B000006A83ED007AFFF79BBF00BFC02B00207E
:1054C000E02B0020182C0020D82C0020542D002088
:1054D000C02C0020DC260020E82B0020942B00208C
:1054E0000000C842B42B002098280020027843789E
:1054F0008A4209D9CB18DBB20E2B01D90F3BDBB2A4
:1055000000EB8300043070470048704748500208A1
:105510000021FFF7EBBF000008B52DED028B08EE70
:10552000100A0E48FFF75EFF28B10C48FFF7F0FFA6
:10553000D0ED007A02E00A4BD3ED007A09490A481F
:1055400091ED000A9FED097A77EE807A58EE077A9E
:10555000C0ED007ABDEC028B08BD00BF982800208A
:10556000B42B0020C02C0020E02B00200000C842FB
:10557000F0B53C4B3C4C186822683C4F1A60111A3D
:1055800000EE101ADFED3A7AB8EE407A87B0C7EE37
:10559000277A384E384D0024C7ED007AFBF76EFFAE
:1055A000FCF70AF8354A56F8040F6301D118FBF7E7
:1055B000B7FA0134032C45F8040FF3D1304B314ACC
:1055C000D3F800E0304B586800909968CDF808E0B7
:1055D0000191CDF80CE0CDF810E0D7F800C0CDF87F
:1055E00014C0106851681B689268FCF76DFA274870
:1055F000274B0168002208071A702DD5FDF7DEF849
:10560000244A2548194B92ED016A90ED011A92ED5A
:10561000002AD0ED002A26EE011A02EE221AD2ED5F
:10562000026AD0ED021A06EEA11A1968F1EE410ADB
:1056300010EE900AFFF7F6FE18490A68D1070BD45E
:10564000FDF7F2F8FCF79EFF154A1060FFF764FFC4
:105650001448154B0168196007B0BDE8F040FDF72C
:10566000ABBF00BF342C0020D42B0020A40C0020A2
:1056700000247449C4290020C42B00203C290020A8
:10568000002B0020582C0020C82B0020582D002073
:10569000382A0020C8290020502B0020442B00204D
:1056A000E0290020942B00207C2B002070B5254C95
:1056B000254D264EFAF73AFE21682860401A3060E0
:1056C000FCF7AAF8326842F20F739A422646204C41
:1056D0002FD92068431C2360FFF74AFFFCF79CF892
:1056E0002268D30701D4FFF7DFFDFCF795F82268A5
:1056F0000A23B2FBF3F003FB102111B9FFF7F0FD11
:1057000011E0144B2A681968134BC1EB020C9C453D
:1057100002D9FFF713FE06E010480168501A9842BC
:1057200001D9FFF73FFEFCF777F8FCF775F82A6818
:105730003260FFF7C5FC2368632B02D904480021BF
:10574000016070BD6C2C0020D42B0020382B002071
:10575000442B0020C4290020A0860100F02C00204A
:1057600008B5FFF70DFDFFF7A1FFFCE708B5042121
:105770001348FBF715FD134B134A14491448D3ED96
:10578000007A27EEA70AF0EE080AC0EEA70A60EE3C
:10579000277AB7EE007AF2EE046AC6EE806AC7EEA8
:1057A000277AC2ED000AC0ED007AC1ED006A09480F
:1057B000FFF714FEFAF7BAFD074B186008BD00BFEB
:1057C000E4260020B80C0020542D0020DC26002008
:1057D000C02B002098280020602D002010B50C88D8
:1057E0008068A4B24FF6FF739C420ED00B889BB228
:1057F000934208D109E01A68013204D104338B4284
:10580000F9D3002010BD832010BD0B1D0918F6E749
:1058100038B50B889BB20C46591E89B24FF6FD7203
:10582000914203D84EF6EE62934203D1658801356A
:10583000ADB200E000252046FAF718FD052805D195
:10584000A01C2946BDE83840FAF728BD38BD70B520
:1058500005460C461646FFF7C1FF60B128462146B3
:10586000FFF7D6FF052806D1284621463246BDE877
:105870007040FFF7B3BF70BD016840680B880288B5
:105880009BB292B233B94FF6FF7082420CBF08460A
:10589000002070470AB1002070474FF6FF72934214
:1058A000F9D17047F0B585684FF6FF764D190020A5
:1058B000063111E00C88A4B2B4420CD094420AD054
:1058C0000B1D04E01F88BFB2A74204D00433AB42D3
:1058D000F8D3013080B20431A942EBD3F0BD2DE9F9
:1058E000F74F856880460E4691469B464F190C1D22
:1058F00003E02368013340D00434BC42F9D3812152
:1059000040E02B884FF6FF729BB293421FD05B455D
:105910001DD0B11D04E0088880B2984217D0043130
:10592000A142F8D326E035F8021C0193204689B243
:10593000FAF7B4FC0528019B00D005E0A01C19462D
:10594000FAF7ACFC052801D001461BE00434043D05
:105950005545D6D8494640464FF6FF72FFF777FFC8
:10596000014678B93046FAF799FC052814BF01467C
:10597000002107E0BC42D6D3C1E7023D09F1040A89
:105980004D44E5E70846BDE8FE8F2DE9F0470546A2
:105990000F469046FFF770FF0446002861D0AB68C1
:1059A00000EB0309A9F1020619E033889BB2BB4260
:1059B00014D136F8023C9BB2B01E434502D1002000
:1059C000BDE8F0874FF6FF72934201D0261D1BE021
:1059D0004146FAF763FC0528F8D1F0E7043EA642F9
:1059E000E3D8F3E7336801330DD130464146FAF787
:1059F00055FC052839D1B01C3946FAF74FFC05286B
:105A0000DDD0BDE8F08704364E45EBD3284621466D
:105A10003A46FFF747FFAB6801309B0880B2013B75
:105A2000984221D26E68B44208BF2E684EF6EE61ED
:105A30003046FAF733FC052817D1301D4146FAF7F6
:105A40002DFC052811D1B01D3946FAF727FC052891
:105A50000BD12846314622463B46BDE8F047FFF7CA
:105A60003EBFAB20BDE8F0878120BDE8F08710B5D0
:105A70000446FAF73FFC216820460022FFF7E7FEC4
:105A80000146A0B9206802884FF6FF7392B29A428D
:105A900005D1FAF703FC052801D0014607E061684B
:105AA00020464FF6FF72BDE81040FFF7D0BE084613
:105AB00010BD2DE9F0410446FAF71CFCAB23226827
:105AC000A38117886668BFB235884EF6EE639F42A1
:105AD000ADB21DD04FF6FF78474502D0002F33D02E
