:020000040801F1
:1000000000000220B5200208F16E0108F56E01081B
:10001000F96E0108FD6E0108016F0108B1200208A8
:10002000B1200208B1200208B12002086D81010848
:10003000B1200208B120020891810108456701083A
:10004000B1200208B1200208B1200208B120020844
:10005000B1200208B1200208A1620108A7620108CC
:10006000AD620108B3620108B962010829610108A3
:100070003961010849610108596101086961010894
:100080007961010889610108B1200208B1200208E4
:10009000B1200208B1200208B1200208BF620108A5
:1000A000CD6A0108D96A0108E56A0108F16A010808
:1000B000FD6A0108096B0108156B0108A9650108B3
:1000C000C1650108B5650108CD650108B1200208C8
:1000D000B1200208856D0108916D01089D6D010830
:1000E000C7620108B1200208B1200208456B01086F
:1000F000516B01085D6B0108696B0108996101088A
:10010000B1200208B1200208216B0108B1200208C9
:10011000A96D0108B56D01082D6B0108396B010847
:10012000A9610108B9610108C9610108D961010823
:10013000E9610108B1200208B1200208B1200208DB
:10014000B1200208B1200208B12002087985010817
:10015000F96101080962010819620108B120020869
:10016000B1200208B1200208B1200208B120020823
:10017000B1200208B1200208B1200208B120020813
:10018000B1200208B120020810B542F25864C2F250
:100190000004237863B940F20000C0F2000028B1E7
:1001A00045F22C60C0F60200AFF3008001212170FF
:1001B00010BD00BF08B540F20003C0F200034BB110
:1001C00045F22C6042F25C61C0F60200C2F200010E
:1001D000AFF3008042F25860C2F20000016829B11A
:1001E00040F20003C0F2000303B1984708BD00BF0E
:1001F0000C4BDA68D1030ED4D868C2060DD4D96886
:1002000011F0EF0F0BD1DA6802F00203002B0CBFE4
:1002100005200C20704701207047032070470B20F9
:10022000704700BF003C024013B50446FFF7E0FFF3
:100230000CE000230193FF2301E00198431E01938A
:1002400001990029F9D1FFF7D3FF013C012803D11F
:10025000002CEED1062002E0002C08BF06201CBDB9
:1002600070B5044641B1012908D0022914BF4FF4EA
:1002700040764FF4007603E00E4601E04FF48076BE
:1002800040F6FF70FFF7D0FF052820D1104D2869F8
:1002900020F440732B612A6916432E61296921F0ED
:1002A000F80028612B6943F0020214432C6129698C
:1002B00041F48030286140F6FF70FFF7B5FF2B69ED
:1002C00023F002022A61296921F0F8032B6170BD35
:1002D000003C024000F17843B3F5803F05DA002B83
:1002E000BCBF074BC3189B1306E0B3F5003F02DB0E
:1002F0005B14043300E00423D8000321FFF7B0BFF0
:10030000FF3F00F8134B00F178429A4270B5044663
:100310000E461CD81F20FFF787FF052818D10E4D69
:10032000296921F4407028612B6943F480722A61A5
:10033000296941F0010028611F202680FFF774FF22
:10034000062805D02B6923F001022A6170BD072021
:1003500070BD00BFFEFF0700003C0240044B1A695D
:10036000002A03DA0349044859605860704700BF07
:10037000003C024023016745AB89EFCD036801399A
:10038000343343F821207047014B1868704700BF91
:100390002C2E002038B5FFF7F7FF094B04469D6867
:1003A000FFF7F2FF8442F6D1C5F524354035A82188
:1003B000B5FBF1F54FF47A7000FB045038BD00BF77
:1003C00010E000E0174B30B558689C682468026A5A
:1003D000596911EA02001DD19D89611B89B2A1F5FD
:1003E0006072551F1FFA85FC40F2AE45AC450E4ABF
:1003F00007D8107807280CD80C4D25F810100130BC
:1004000003E040F6C415A94201D9107001E00920AB
:1004100010709C815A68116A586980EA010313625E
:1004200030BD00BF4C2C0020482C0020200C0020A8
:1004300010B500231A46C45C06495C540133A21867
:100440002C2B92B2F7D1044B81F82C20002018708D
:1004500010BD00BFB4260020D027002010B50E48E4
:100460000378012B12D10D480D4A0E4B006812681B
:10047000DB6881188B420CDC821A47F2305C47F251
:10048000CC449342B4BF2046604610BD47F2305082
:1004900010BD47F2945010BD89260020380C002072
:1004A000180C0020B82B002006F052BF244A254B20
:1004B000106040F2DC514FF47A7219605960996013
:1004C000DA601A615A619A61DA61002307E001215A
:1004D0001D4A03EB010C42F823105FFA8CF38342B0
:1004E000F5DB1A4B40F2DC5119605960996000232A
:1004F00008E0174A02EB83014FF07E5C5A1CC1F8FA
:1005000000C0D3B28342F4DB002308E0114A02EBBF
:1005100083014FF07E5C0133C1F800C0DBB283423F
:10052000F4DB002308E00C4A02EB83014FF07E5C11
:100530000133C1F800C0DBB28342F4DB704700BF77
:10054000F0260020B82B0020D82B0020AC2800205B
:100550003C27002008270020CC2900200849094B0F
:1005600051F8202053F82010531A00EE103ADFED16
:10057000067AB8EEC07A67EE276A16EE900A7047E0
:10058000B82B0020AC2800200BD7A33B2A4B07EE4A
:10059000101A196801EE101AD2ED040AB8EE410AD9
:1005A00007EE900A254830EE606ADFED256A037891
:1005B00086EE265A82ED040A77EEC75A33B1D2EDA1
:1005C000051A45EE851AC2ED051A01E000205061BA
:1005D000D2ED066A92ED056AF1EE667AB4EEE76A4C
:1005E000F1EE10FA08D4B4EE666AF1EE10FACCBF60
:1005F000F0EE667AF0EE467AD2ED034A92ED024AC8
:1006000077EE643ADFED0F2A63EE843A65EE222A34
:1006100092ED013AC3EEA22A82ED037A92ED007ABE
:10062000C2ED057A67EE837A45EE877A37EEA22A25
:1006300012EE100A704700BF74290020C127002065
:10064000002474490000C8420C490D4B086807EEAD
:10065000100AF8EE477A00225A61C3ED047A1A6351
:10066000C3ED0B7ADA64C3ED127A9A66C3ED197A98
:10067000C3F88420C3ED207A704700BF742900209E
:100680007C2A002091ED005A9FED203A05EE900A59
:100690009FED1F2A65EE037A45EE827AD1ED014A7D
:1006A000DFED1C2A44EEA27A91ED024A44EE037A71
:1006B000D1ED031A41EE827A91ED047A9FED161A7C
:1006C00047EE017AD1ED056ADFED140A46EEE07AD5
:1006D00091ED066A9FED120A46EE007A91ED073A17
:1006E000DFED103A43EE637A086081ED034AC1ED15
:1006F000024A81ED015A81ED076AC1ED066A81ED7A
:10070000057AC1ED047A17EE900A7047D58111BBC6
:100710007932F83A1A1B5E3B382F5740200B89403C
:100720000A771C404CF3063F0D4B0E4A0020186020
:1007300058609860D860186158619861D8611862F3
:1007400058629862D862186358639863D8631A64D1
:100750005A649A64DA641A655A659A65DA6570476C
:10076000DC2800206DE71CC14160704710B50446CD
:1007700007F06AF9204607F00FFA01462046FFF716
:10078000F3FF00232372204610BD2DE9F0410446FB
:100790000D460079012117461E4607F0F1FA20792F
:1007A000002107F097FA204629463A463346BDE82D
:1007B000F04107F06FB9F8B504460D460079002105
:1007C0001F46164607F0DCFA207A60F07F031D43CF
:1007D000E9B2204607F0D7F93D4606E02046002161
:1007E00007F0D1F906F8010B013D002DF6DC207968
:1007F0000121BDE8F84007F0C3BA07B501230DF1A8
:100800000702FFF7D8FF9DF807000EBDF8B50446B4
:100810000D46007900211F46164607F0B1FA237AEB
:100820001D43E9B2204607F0AEF93D4605E02046FB
:1008300016F8011B07F0A7F9013D002DF7DC207920
:100840000121BDE8F84007F09BBA07B502AB03F8F9
:10085000012D1A460123FFF7D9FF0EBD08B5034845
:10086000052101220323FFF790FF08BD90260020F9
:1008700010B5054C204607F02BF9012120460A4609
:100880000323FFF782FF10BD9026002008B5034622
:100890000A4604481946FFF7D8FF0120BDE8084082
:1008A00007F00CBA9026002010B501460448FFF767
:1008B000A4FF0446012007F001FA204610BD00BF46
:1008C00090260020254B10B51C78002C44D1012225
:1008D0001A702348234906F06CFBFFF7BFFF752011
:1008E000FFF7E2FF00F07E0068282FD11E4B18684A
:1008F00040F0030119601A481C4906F05AFB802198
:100900006B20FFF7C3FF642007F0D8F96A2010219D
:10091000FFF7BCFF6B200321FFF7B8FF6C202146D7
:10092000FFF7B4FF19202146FFF7B0FF1A2003217B
:10093000FFF7ACFF1B201021FFF7A8FF1C200821A8
:10094000FFF7A4FFBDE81040FFF792BF0448084935
:10095000BDE8104006F02DBB10BD00BF0D280020E3
:10096000E82C0020B5560208442C0020CE56020880
:10097000DC56020801EBD171491004E0037842789B
:1009800043700270023011F1FF31F7D2704700005E
:1009900010B5064C06483B2122460E23FFF70BFFFD
:1009A00020460E21BDE81040FFF7E4BF602700207D
:1009B00090260020074810B5074C016822684B1CA0
:1009C0009342036004D0FFF7E3FF23685A1C2260C0
:1009D00010BD00BF942B00207426002010B5074CDA
:1009E0000748216802684B1C9342236004D0FFF73C
:1009F000CFFF23685A1C226010BD00BF402C00208E
:100A000074260020024A034B1A60FFF75BBF00BF49
:100A100058A00B3A5C27002008B5FFF7BBFC124B2F
:100A2000DFED127A93ED027AB4EEE77AF1EE10FA86
:100A30000F4B06DC9FED0F0AB4EEC07AF1EE10FA10
:100A400010D519680C4A411A01EE901A9FED0B1A45
:100A5000F8EE616AD2ED000AC6EE816A47EE260A18
:100A6000C2ED000A186008BD1028002035FA8E3C3F
:100A70009427002035FA8EBCC02800200024744939
:100A800010B5FFF7ABFF0D4B0D491C68B1F908001D
:100A90000C4A24181C6010605C68B1F90A00B1F9B6
:100AA0000C10506020185860986891604118996047
:100AB000054B1878421C1A7010BD00BF042C002092
:100AC000602700207C270020202C00207FB51F4BB2
:100AD0001F4D1A6895F800C0596892FBFCF41D4A36
:100AE00092E84100241A91FBFCF0301A9E6891684C
:100AF000019496FBFCFC0022CCEB01011A605A60C9
:100B00009A602A7001EE904A134A144B029000EE4C
:100B1000900A06EE901AD2ED007AB8EEE11AB8EE1D
:100B2000E00AB8EEE67A21EE271A20EE270A67EEF1
:100B3000277A039183ED001A83ED010AC3ED027A4F
:100B400004B0BDE87040FFF767BF00BF042C002071
:100B5000202C0020702A00205C2700201028002074
:100B6000F0B5124DB3B000241CE0FFF711FF104B9D
:100B70000CB91B8903E0012C0CBF5B899B8901AF79
:100B80001BB2F3510A20043607F098F8C42EECD1BA
:100B90003121384605F04AFA0134E4B2032C45F815
:100BA000040F01D00026E0E733B0F0BD6C2A00202E
:100BB00060270020FFF786BE08B5FFF7FBFE0C4B51
:100BC0000C4A1868B2F900C000EB0C0119605868B3
:100BD000B2F90210B2F904C09A68401802EB0C0195
:100BE00058609960044B1878421C1A7008BD00BF09
:100BF0002827002060270020112A0020F0B5114A84
:100C0000114C17781148124900231646114D5A59B4
:100C100092FBF7F200EE102A04340430F8EEC06ABA
:100C200094ED007AD0ED007A46EE877A002217EE36
:100C300090CA5A5104330C2B41F804CFE6D13270DC
:100C4000F0BD00BF112A00206C270020C027002023
:100C50009C2700202827002010B5002408E0FFF77B
:100C600097FEFFF7A9FF40F6C41007F021F8013402
:100C7000B4F5C87FF3D1204820490023204C1A59ED
:100C800000EE902A9FED1F0AB8EEE07A043087EE5E
:100C9000007AD0ED007A67EE277A17EE902A41F8B5
:100CA000042F00221A5104330C2BE7D11649174B9D
:100CB00017481A7091ED022ADFED162A72EEC21A59
:100CC000D1ED004A32EE211AD1ED013AB5EEC01A4B
:100CD000F1EE10FA104BB1EE644AB1EE633AD8BFB0
:100CE000B1EE411A80ED004A80ED013AC0ED021AE2
:100CF00083ED001A10BD00BF6C2700209C27002048
:100D0000282700200000C843A0270020112A002027
:100D1000C42700206DE71CC1B4290020322290FBBB
:100D2000F2F101F00101462007F02AB838B5094D6B
:100D3000094C2A682068131AB3F57A7F09D3FFF7A4
:100D40009FFEFFF739FF054B1868FFF7E7FF29689B
:100D5000216038BD74290020642900201C2800204F
:100D60000448054A002303604360836013605360B6
:100D7000704700BFFC260020142A00202DE9F84F00
:100D80002DED068BDDED108A08EE103A68EEA82AEC
:100D900048EE082A9DED119ADDED127A49EE092AF6
:100DA000B6EE003A27EE833ADFF83092864C874F52
:100DB000874D884EDFF828A2DFF828B2DFF82882B6
:100DC00089ED003A09EE900A12EE900A0AEE902A96
:100DD0000AEE101A10F092F811F0F8FC10F0C4FBB3
:100DE00002EE100A88EE825AD8F80000C9EE023AE4
:100DF000D4ED000A97ED006AD5ED006A96ED000A81
:100E000066EE261A26EEA01A50EE201A06EE001AFA
:100E100020EE000A16EE060A88EE024A06EEE60A00
:100E200000EEA00A71EE015A20EE058A15EEA38AA3
:100E3000DAED007A9BED007A48EE077A71EEA14A6E
:100E400025EE849A64EEA38A18EE101A50EE048AF6
:100E500014EE859ACAED007A05F004F9434610B104
:100E60000022CAF80020DFF88491DFF88481D9EDF0
:100E7000004A9BED007A48EE874A83ED008AC9ED6F
:100E8000004AD8F8000018EE901A05F0EBF8434637
:100E900010B10020C9F80000DFF858819BED004A2E
:100EA00098ED005A09EE045ADFF84CB1C3ED008A00
:100EB00088ED005ADBF8000019EE101A05F0D2F8A0
:100EC00043465A4608B10021196082ED009A424A11
:100ED000D2ED000A40EE89AA40EE889A00EEA8AA58
:100EE000D3ED003AD9ED006A9AED006A7AEEA3AA32
:100EF000D5ED004A3AEE26AA97ED007A79EE869A69
:100F000096ED005A64EEAA5A24EE8A0A47EE295A50
:100F100094ED001A15EE690A41EE4A5A2F4B25EE60
:100F20002A4A01EE6A0A17EE0A4A93ED003AF0EEF9
:100F3000452A65EE0A7A45EE832A01EE294AB0EE8B
:100F4000472A47EE2A7A00EE032AF0EE641A44EEAE
:100F5000E97A44EE031A22EEA26A02EE026A07EE72
:100F6000831A01EEA16A01EE016A87ED002A16EEEE
:100F7000100AC6ED002AC5ED001A84ED001A0FF024
:100F8000BDFF11F023FC10F0EFFAD7ED006A05EE7B
:100F9000900AD6ED000AD5ED003A94ED000AC6EEAF
:100FA000A56AC0EEA50AC3EEA53AC0EE255AC7ED64
:100FB000006AC6ED000AC5ED003AC4ED005ABDEC6A
:100FC000068BBDE8F88F00BF7C2C0020702C002021
:100FD000782C0020742C0020F826002030280020D7
:100FE00098270020842C0020102C0020FC270020B3
:100FF000142C0020B8270020182C00202DE9F843DD
:101000003C4C3D4E3D4D3E4F2DED048BD4ED005AF2
:1010100096ED008AD5ED007AD7ED008A68EE255A64
:1010200048EEA75AB7EE009A35EEA55A15EE100A0B
:101030000FF064FF68EE084A48EEA84A804634EE96
:10104000A44A894679EE443A13EE900A0FF056FF0F
:1010500002460B464046494611F0C2F910F084FAA8
:1010600097ED006AD4ED002AD5ED006A96ED003ABE
:1010700066EE222A56EE832ADFF8888032EEA22A14
:10108000C8F8000012EE100A0FF038FF11F054F902
:1010900010F06AFAD6ED008AD7ED001A95ED007AC5
:1010A00094ED008A68EEA11A48EE071AC8F8040009
:1010B00031EEA11A11EE100A0FF020FF68EE080AB7
:1010C00048EEA80A044630EEA00A0D4679EE407AB2
:1010D00017EE900A0FF012FF02460B4620462946F3
:1010E00011F07EF910F040FAC8F80800BDEC048B4E
:1010F000BDE8F8837C2C0020782C0020702C002088
:10110000742C0020FC26002008B5FFF729FE0F4BA9
:101110000F491048104A4FF07E5CC3F800C000230E
:101120000B60036013600D490D480E4A0B600360AD
:1011300013600D490D480E4A0B60036013600D48A3
:101140000D490E4A0E4B08601A6008BD702C002035
:10115000742C0020782C00207C2C00209827002064
:10116000FC270020B8270020102C0020142C002081
:10117000182C0020CDCC4C3EF82600206F12033AEC
:10118000842C00201FB5DDF818E0DDF81CC0074CEA
:10119000CDF800E0CDF804C024680294FFF7EEFD1E
:1011A00004B0BDE81040FFF729BF00BF440C002089
:1011B000F8B5244D29600C68561EB100012707FAC6
:1011C00001F704F1340E7B000EEB01026C60AA60A3
:1011D0002E616B612868007905F0A2FA1A4AB0FB0B
:1011E000F2F14B1E00224FF6FF70A362E062226014
:1011F000E16821F00103E360206A20EA070222622D
:10120000236A6969012E23EA01032362D4BF04F132
:10121000180304F11C0306F001001968C000FF2246
:1012200002FA00FC21EA0C061E601A68612101FA2C
:1012300000F616431E60206A0123074327622360DD
:10124000F8BD00BF4C2C002040420F0038B50F4CB9
:101250000F4BD4F8F45308221A70ADB1D4F8F00350
:1012600094F8FC130A2205F063F8294694F8FD234C
:1012700040F2DC50FFF79CFF94F8FD13054A284626
:10128000BDE8384005F074BB38BD00BF3C1A0020F3
:10129000482C0020C503010808B5FFF707F9BDE891
:1012A0000840FFF7D3BF00000249034B0A5C33F844
:1012B00012007047C25B0208200C002038B50024E1
:1012C00033E02046FFF7F0FF2D4902EE900A2D484B
:1012D000A300CA18C11892ED007A91ED002AF8EE29
:1012E000E26A294A294906EE872ACB18FDEEC21A7E
:1012F00011EE900A42F8240055F8242001EE102A3D
:10130000F8EEE17AF8EEC10A17EE900A10EE901AA4
:101310001A6804F073FE00EE100ABDEEC06A16EE05
:10132000100A45F824000134E4B2194D2A68194D19
:101330009442C6DB184C94ED007A00231749EC5810
:1013400058581749241A05EE104A04EE900AB8EED0
:10135000C54AF8EEE43A44EE073ABDEEE33A13EE3E
:10136000100A585004330C2BE8D1032305E055F83C
:10137000230041F823000133DBB29342F7DB38BD91
:101380003C27002008270020982B0020CC29002093
:10139000F0260020D82B002028280020AC28002090
:1013A000B82B00200C224243054B10B59C189950D5
:1013B000044A02EB0111486860604B7B237210BD48
:1013C0004C2800203C1A002070B50A4C0A4E00251B
:1013D00009E056F8042F54F80C0C14F8081C92B2CB
:1013E000FEF7CCFF0135054803680C349D42F0DB65
:1013F00070BD00BF502800201C2A00202428002097
:1014000070B50646084C002507E054F80C0C14F89B
:10141000081CB2B2FEF7B2FF0135044803680C3471
:101420009D42F2DB70BD00BF502800202428002020
:10143000F8B51F4F1F4E0728C8BF08203860354633
:1014400000241BE01C4A2046115DFFF7ABFF55F856
:101450000C0C007905F064F9184955F80C3CB0FB08
:10146000F1F21B68511E88B240F6C4129862DA622B
:1014700015F8100C072106F02DFC013439680C35E5
:101480008C42DFDB002309E056F80C0C02685001A7
:1014900000F184420120C2F880021B180C368B42F6
:1014A000F2DB4FF47A70BDE8F840FFF7A9BF00BF48
:1014B0002428002050280020AD56020840420F008A
:1014C00038B5054600240FE040F24C40FFF798FF86
:1014D000FA2006F0F3FB4FF47A70FFF791FFFA2041
:1014E00006F0ECFB0134E4B2AC42EDD138BD0000B3
:1014F000044901EB800393ED000AFDEEC07A17EE7C
:10150000900A7047A0290020044901EB800393ED65
:10151000000AFDEEC07A17EE900A7047E42700201B
:10152000104838B500680FF0E9FC0F4B0446186806
:101530000D460FF0E3FC02460B462046294610F00C
:101540004FFF10F011F807EE900AF5EEC07AF1EEB9
:1015500010FA44BF9FED057A77EE877A17EE900A6E
:1015600038BD00BFA8260020A4260020DB0FC940FC
:10157000044905488A6808B50260FFF7D1FF034BAC
:10158000186008BD702A00203C280020C0280020D8
:1015900010B52DED028BFFF7C3FF9FED438A07EED9
:1015A000100AB4EEC87AF1EE10FA06DD0FF0A6FCD0
:1015B00039A3D3E9002310F015FF3C483C4A816869
:1015C00013683C4C8B423C4B04D0D4F800C01160F3
:1015D000C3F800C018680FF091FC31A3D3E90023D1
:1015E00010F000FF0FF0C0FF07EE900AF5EEC07A92
:1015F000F1EE10FA08DDC7EE880ABDEEE00A10EE43
:10160000101A012930D10AE0F1EE671AC1EE881AEA
:10161000BDEEE11A11EE102A012A25D114E00FF0D7
:101620006DFC1DA3D3E9002310F0DCFE02460B463F
:1016300019A1D1E900010FF001FB0FF095FF07EEB2
:10164000100AF1EE477A0FE00FF058FC12A3D3E92D
:10165000002310F0C7FE10A3D3E900230FF0F0FA27
:101660000FF082FF07EE900A1449154891ED002A09
:1016700090ED008A67EE828AFFF752FF07EE900A2C
:1016800048EE278A0F4BC4ED008AC3ED008ABDECFB
:10169000028B10BDAFF3008000000060FB21094009
:1016A00000000060FB211940DB0F4940702A002038
:1016B0003C2800206C2A0020C0280020CC0C0020F0
:1016C000C42800205C29002010B5044604F05DFC0D
:1016D00001EE900AB8EEE11A84ED011A04F055FC0F
:1016E000404200EE900AB8EEE00A84ED020A04F0EF
:1016F0004CFC07EE100AF8EEC77AC4ED007A10BD74
:10170000F8B54A4D4A4C2DED088B07460E461E2073
:10171000032104F01DFC1E210622464806F09CFC15
:101720002846FFF7D1FF1E200221012204F04EFCC3
:10173000414B42484249434A95ED004AD0ED004AA8
:10174000D3ED009A95ED013A44EE249AD0ED013A9A
:1017500093ED019A95ED022AD0ED022AD3ED028A8B
:1017600003EE239A42EE228AC1ED009A3649C2ED79
:10177000008A84ED009AC1ED028A3846C1ED009AD4
:1017800081ED019A0FF0BAFB04460D4610F046FDBC
:101790000FF0EAFE29460BEE100A204610F080FDFD
:1017A0000FF0E2FE0AEE900A30460FF0A7FB044667
:1017B0000D4610F033FD06460F462046294610F030
:1017C0006FFD0FF0D1FE39460AEE100A30460FF0D9
:1017D000CBFE69EE2A1A01EE100A21EE8A8A09EE82
:1017E000818A68EE8B0A68EEAA8A59EE0B8A00EEAF
:1017F0008A8A28EEA80A08EE080AF1EE688A10EE36
:10180000100A0FF07BFB10F0E1FF0FF0ADFE07EECA
:10181000900A88EE277A0D480D4BC8EEA77A80ED26
:10182000007AC3ED007ABDEC088BF8BDA02900203A
:10183000C8280020EC2C0020E4260020A00C00206A
:10184000B4270020CC280020E4270020A426002074
:10185000A82600200A2008B506F030FA1E2004F061
:1018600099FB102804D10D4B186840F004021A604F
:10187000012120221E2004F0A9FB142006F01EFAEC
:1018800002211E20012204F0A1FB142006F016FA0A
:1018900000200146BDE80840FFF732BF442C00207D
:1018A0000548064B90ED007A93ED000A77EE407AFA
:1018B00017EE900A704700BF0C2A0020FC2B002076
:1018C00008B5FFF7EDFF00EE100AFDEEC07A084BF9
:1018D00017EE900A1A6800F5FA70904201DD186060
:1018E00008BD044B19688842B8BF186008BD00BF26
:1018F0001C0C0020500C002030B5C489002224F0BC
:10190000FF03C3811346511012F0010F15BF10F8E9
:10191000111030F811104B4083EA1123082113F401
:10192000004F4FEA43031DBF83F440554FF6FE734B
:101930002B409BB20139F2D10132102AE3D1C4818C
:10194000180B30BD70B5124D0646A0243046214616
:1019500004F0FEFA02220F48314606F07DFB022811
:1019600013D104F009FB0234E4B2B02C25F8020FC5
:10197000ECD1094C2046FFF7BFFFE28902F00F01CE
:10198000431A584240EB030070BD002070BD00BFF9
:10199000422A0020EC2C0020442A00201E2104F0C2
:1019A000D7BA000010B50021044604F0D1FA032292
:1019B00021460B4806F050FB094806F060FB03285F
:1019C0000BD104F0D7FA044604F0D4FA000240EA3E
:1019D000044404F0CFFA204310BD002010BD00BF26
:1019E000EC2C00207620582104F0B2BA2DE9F843FF
:1019F0007620FFF7D7FF1849184A8B884C8910606A
:101A00004FEA034824020B89154D041BA3FB04670E
:101A10004FEAE47C03FB0C77F20942EA4762FB11D0
:101A20004FF0000912EB080243EB0903C5E900235C
:101A30004B88DE03CB880B49A3FB044503FB0C5505
:101A4000220A42EA056200272B12921943EB070390
:101A5000C1E90023BDE8F883442A0020AC27002018
:101A600000280020002A00207620482104F070BAC7
:101A700038B57620FFF796FF124B134918600B68B4
:101A80004968C217414303FB0212A3FB00010F4B3D
:101A90005118D3E90023440D44EAC1244D15A21A7C
:101AA00065EB0303900A40EA835099120FF07CFE25
:101AB000DFED077A06EE900A66EEA76A16EE900A48
:101AC00038BD00BF88270020002A00200028002001
:101AD0000000003D38B5164C23782DED028BF3B194
:101AE000144D95ED008AFFF7C3FF07EE900A1249E7
:101AF00038EE278A85ED008A0D786A1C0F4D0A7032
:101B00002878142805D1FFF76DFF00232B70237070
:101B100001E0FFF7A9FF2A78501C287005E0FFF7C5
:101B200065FFFFF7A1FF01212170BDEC028B38BDDD
:101B300038270020F829002035280020802C00209C
:101B4000F8B52D4D2B78002B51D006EE903A2B4C4A
:101B50002B4B94ED007AF8EEE67AC7EE277A9FEDEC
:101B6000297AC7EE876AC3ED007A16EE900A0FF065
:101B7000C5F9254B064618680F460FF0BFF9024617
:101B80000B463046394610F087FC02460B460020D3
:101B90001E491F4E0FF052F815A3D3E900230FF092
:101BA00001FA0FF0E1FC1B4B18601B4B197819B1BF
:101BB000002230601A7005E0184B31681A6804F092
:101BC0001DFA306000222260154C20780021297017
:101BD00068B9FEF7DFFB13490B68C3EB000C124832
:101BE000844504D93068114B012218602270F8BD79
:101BF0000000000040A5E54035280020F82900201D
:101C00009C26002080E6C547D00C00200000F03F55
:101C10000C2A0020542A00209C0C00205C0C002080
:101C20000C280020A026002080969800FC2B002085
:101C300008B5FFF74FFFBDE80840FFF781BF000080
:101C400010B52DED028B9FED0C8A1924FFF7F0FFE4
:101C50000A4BD3ED007A0C2038EE278A06F02EF8D6
:101C6000013CF3D1B3EE090A88EE000A044880ED86
:101C7000000ABDEC028B10BD00000000542A0020B9
:101C8000FC2B002010B5FEF785FB1A4C1A4920608A
:101C90001A4A1B4B1B4C1A600020086020607620FB
:101CA000FFF77CFE032006F009F87620FFF74AFED6
:101CB00020B1154B186840F008021A60FFF792FE39
:101CC0001249134800230B7003700A2005F0F6FF39
:101CD000FFF700FF0A2005F0F1FFFFF7A9FF0A2038
:101CE00005F0ECFFFFF7ACFFFFF7AAFF2168094AF8
:101CF000116010BDA02600209C260020AEDC423ED4
:101D0000D00C0020FC2B0020442C00203827002081
:101D1000802C00200C2A002007EE100A9FED0B0AF1
:101D2000DFED0B6A27EE001A27EE267AFCEEC10AD9
:101D300027EE000A10EE900AFCEEC07A0549064B29
:101D4000088017EE902A1A80704700BF0000C84232
:101D5000CDCC8C3F320C0020480C002009490B7878
:101D600083420ED90849182202FB00104FF49663F3
:101D7000C38042F2AC6100230022018103824282CF
:101D800043617047F4260020B40C0020084B182251
:101D900002FB0033587850B9D888B0F5FA7F05D3E4
:101DA000B0F5577F2CBF03200220704701207047F9
:101DB000B40C002010B50446FFF7E8FF064A1821CE
:101DC00001FB04230549DB880A8850438342ACBFEA
:101DD0000020012010BD00BFB40C0020320C0020F8
:101DE00010B50446FFF7D2FF064A182101FB042371
:101DF0000549DB880A8850438342ACBF002001209C
:101E000010BD00BFB40C0020480C00202DE9F843A1
:101E10002E4B2F4F2F4C002581461D703D7098464C
:101E20004EE0207805F036FFB4F90260B4F804C043
:101E30002289464344BF06F57E661F360CEB2631E9
:101E400088B2824288BF2081E080A07AFF2827D014
:101E500005F020FFB4F90C60E28946430A235E4393
:101E600044BF06F57E661F360A214A4302EB263C34
:101E7000B4F91230A4F810C00FFA8CF0B4F9106065
:101E800062698342B8BFA4F812C009FB06F05B2167
:101E9000484344BF00F5FE40FF3002EBE03363618E
:101EA000EEB23046FFF786FF10B1012088F800003F
:101EB0003046FFF795FF08B101223A70013518341A
:101EC000054B19788D42ACDBBDE8F883B0270020C4
:101ED000642C0020B40C0020F426002038B5094CF6
:101EE00020700846FFF718FF002503E0E8B2FFF76F
:101EF00035FF013523789D42F8DB0020BDE83840EE
:101F0000FFF784BFF42600200D480E490E4A0F4B00
:101F100070B50468086811681A680D4BC0EB040CB2
:101F200020180CEB0106C1EB0C054418411AB61A37
:101F3000AD18A4188A1A1E605D60DC609A6070BDDE
:101F40004C0C00206C2C002090270020B029002091
:101F5000202A00200320002105F012BF03200121C8
:101F600005F00EBF10B50320002105F0B3FE0320DD
:101F7000012105F005FF012103480A460023BDE8C1
:101F8000104005F087BD00BF3427002038B5064C4F
:101F900003460D462046194605F0ECFD204629462D
:101FA000BDE8384005F0EFBD3427002038B5074CB8
:101FB000257855B9FFF7CEFF054928460978FFF780
:101FC000E5FFFFF7CBFF0123237038BD2028002059
:101FD000002C002010B5074C237853B1FFF7BAFF4F
:101FE000054900200978FFF7D1FFFFF7B7FF002070
:101FF000207010BD20280020AD290020F8B50D4626
:102000009DF818101E26044606FB031617460AB153
:10201000FFF7E0FFFFF79EFF17F0010018BF102049
:1020200017F002070CBF3B46082315F1FF3718BF16
:10203000012740EA070242EA03010420FFF7A6FF56
:10204000310A0520FFF7A2FFF1B20620FFF79EFF3D
:1020500000260EE034B1204608F090FAB04203D3D7
:10206000A15D02E0214600E000210720FFF78EFF7E
:102070000136F1B2A942EDD31FB10720FF21FFF7CE
:1020800085FFBDE8F840FFF769BF000009490A4B2A
:102090004FF4F070102208601A600849084B48207D
:1020A0004C2208701A700749074B422040220870E2
:1020B0001A7070475C2A0020D8280020AD29002023
:1020C0006029002088260020002C0020F7B5414D13
:1020D0002A7812F0020064D002F0FD0212F0100F14
:1020E0002A703D4C4ED03D4E3178FF294AD071B117
:1020F000236812F0040718BF0227C2F3C0020120B0
:10210000033B00903A433648DBB2FFF777FF354F89
:102110002A783B783078324E591C236812F0040E2E
:1021200018BF4FF0020E091A033B00F1010C02F038
:1021300008025FFA8CFC002A14BF72464EF00102BE
:102140003018C9B2DBB2CDF800C0FFF757FF3F78B7
:102150001A2F39D829782268781C11F0040518BF85
:102160000225C7F11B0CC1F3C00ED41E0237FFB20B
:1021700030185FFA8CF145EA0E02E3B20097FFF7E0
:102180003DFF21E012F004052368154818BF022521
:10219000C2F3C00E0124033B00941C2145EA0E0249
:1021A0000EE0114B1C78621ED2B2FD2A0ED8012C13
:1021B0001A700BD1084B19680094CB1E02461C21E3
:1021C000DBB2FFF71BFF02E0012400E004462046DB
:1021D000FEBD00BF582A0020D8280020AC290020CE
:1021E000212C0020D02800208C27002008B42DE9C5
:1021F000F343394BDDF82490384E90461A78044664
:102200000F4622B132789111B1EB901F5FDCB9F12A
:10221000000F07D1324849461C2208F003F986F81E
:10222000009046E004F0200100290CBF3225FF2574
:102230001D702B4D34700AAB1D214A462846019370
:102240000AF0F6FCC0B21C2828BF1C20C0F11C09F3
:10225000002128184A4608F0E5F8E1071CD54FEAA6
:1022600069035FFA83F9B9F1000F15D0284608F029
:1022700085F92946024605EB090008F075F820218A
:102280004A46284608F0CEF8E20605D54F4409EB49
:102290000802FFB25FFA82F8124913481B2F28BFC9
:1022A0001B27B8F11B0F28BF4FF01B080F7080F8D9
:1022B000008014F0020003D0FFF708FF002007E0C1
:1022C00096F800E04EF0020C86F800C000E0012015
:1022D000BDE8FC4301B070478C270020582A00203D
:1022E000212C0020AC290020D02800200748084AD3
:1022F00008B5FF2100230370117020200A46FFF764
:1023000075FFBDE80840FFF751BE00BF9C290020C3
:10231000AC0C0020F0B505468BB08B4C062900F2C2
:102320000E81DFE811F009000C010C010C0107001F
:1023300009000700002303E1012877D003D3022816
:1023400040F0FD80E7E0814B93ED002A9FED807A1D
:10235000B5EEC02AF1EE10FAD4BFF1EE425AFDEE0E
:10236000C25A22EE072A93ED011AFDEEC21AB5EE0B
:10237000C01A11EE907A4CBF2D262026D8BFFDEE54
:10238000E55A002FB8BF7F426421F1EE10FAD4BFA6
:10239000B1EE416ABDEEC16A21EE071A93ED020A61
:1023A000FDEEC10AB5EEC00A10EE90CA4CBF2D205A
:1023B0002020D8BFBDEEC66A6422BCF1000FB8BFB2
:1023C000CCF1000CF1EE10FAD4BFF1EE406AFDEE54
:1023D000C06A20EE070A97FBF1F5FDEEC07A01FB1B
:1023E00015759CFBF2F702FB17C117EE902A4CBF44
:1023F0002D232023D8BFFDEEE66A0390002AB8BF44
:1024000052426420059192FBF0F1069300FB1123E8
:10241000FF2108930096CDED015A02958DED046AD7
:10242000CDED076A20200A464A4B71E04A4BD3EDB6
:10243000007ADFED473AF5EEC07AF1EE10FAD4BF3C
:10244000F1EE675AFDEEE75A67EEA37AD3ED014A43
:10245000BDEEE75AF5EEC04A15EE107A4CBF2D26B8
:102460002026D8BFFDEEE55A002FB8BF7F42642179
:10247000F1EE10FAD4BFB1EE646ABDEEE46A64EE28
:10248000A34A93ED023ABDEEE44AB5EEC03A14EE2B
:1024900010CA4CBF2D202020D8BFBDEEC66ABCF1AB
:1024A000000FB8BFCCF1000C6422F1EE10FAD4BFDB
:1024B000F1EE436AFDEEC36A23EE233A97FBF1F592
:1024C00001FB1575FDEEC32A9CFBF2F702FB17C258
:1024D000059212EE902A4CBF2D212021D8BFFDEE8F
:1024E000E66A002AB8BF5242642392FBF3FE0390CF
:1024F000069103FB1E20FF21CDED015A8DED046AEC
:10250000CDED076A154B08900096029520200A46EB
:10251000FFF76CFE13E00020FEF7F6FF07460120F0
:10252000FEF7F2FF06462846FEF7EEFFFF21029077
:102530000A4620200A4B00970196FFF757FE032317
:1025400023700BB0F0BD00BF9C290020A027002005
:102550000000C842EE560208102800201457020856
:102560003A57020838B50F4C00232370C1B910B197
:10257000012815D107E00C49086038BDE8B2FFF723
:10258000EDFB013500E00D46084A10788542F5DB89
:10259000FF21074B21200A46FFF728FE0A2323705C
:1025A00038BD00BF9C29002098290020F426002077
:1025B0004E57020813B5FFF769FDFFF7CBFC194B27
:1025C00000201978FFF7E2FCFFF7C8FC012005F0B6
:1025D00075FB0024FFF7BEFC07E004F11000C0B259
:1025E0000221FFF7D3FC0134E4B20F4A11688C4298
:1025F000F3D30E4B00201978FFF7C8FC642005F0D8
:102600005DFBFFF7ABFC0A4A0A4910780A4B002829
:1026100018BF0B46FF21009302200A46074BFFF725
:10262000E5FD1CBD88260020D8280020AD2900200B
:10263000002C002063570208675702086C570208F5
:1026400001281FB5154B1649164A07D118680C68A2
:1026500004EB000C1468C4EB0C00186008681060F0
:102660001A68114BB2FBF3F2104B19688A4213D06F
:102670003C201A60B2FBF0F300FB1322009207210A
:102680000B4A02A807F044FF17210022009102A87C
:1026900006211346FFF7B2FC1FBD00BF982900209A
:1026A00074290020642A002040420F00640C00209E
:1026B000765702082DE9F0414D4D4E4E2A781827E5
:1026C00007FB026488B0E0880A24B0FBF4F191FBB8
:1026D000F4F304FB1312009307211023019205A8C1
:1026E000454A07F015FF95F800804046FFF778FB54
:1026F000021C18BF012208F10108002001215FFA25
:1027000088F3009005A8FFF779FC95F80080404613
:10271000FFF750FB021C18BF012208F1010C012138
:1027200000915FFA8CF305210DF11500FFF766FCAF
:102730002A7807FB0267BB7AFF2B4BD0B7F9103022
:1027400093FBF4FE8EEAEE7CACEBEE7CBCF1630F07
:102750000DDD7A694FF47A7092FBF0F1009105A8D3
:102760000C21264A9EFBF4F307F0D2FE28E0BEF1CE
:10277000000F06DBBEF1090F05DD9EFBF4F42023FC
:1027800006E02D2300E020236FF009049EFBF4F403
:102790000A219EFBF1FC01FB1CE018210028B8BFB8
:1027A000404201FB02660190009472694FF47A7016
:1027B00092FBF0F1029105A80C21114A07F0A8FE46
:1027C00028780622431C009205A80B210022DBB2C8
:1027D000FFF714FC0B48297890F800E04A1C92FBA4
:1027E000FEF30EFB1321297008B0BDE8F08100BF95
:1027F0000E280020B40C0020815702088C570208D4
:1028000098570208F426002070B507EE100A2DED47
:10281000028BB2EE048A27EE080A524EFDEEC07A11
:10282000336817EE904AA34284B008EE901A15461A
:1028300033D004F16300C6281FD8002C06DB092C16
:1028400006DD0A2294FBF2F2202306E02D2300E0AD
:1028500020236FF0090194FBF1F200920A2294FB0D
:10286000F2FC02FB1C400028B8BF40420190072147
:1028700002A83D4A07F04CFE07E00A2302A8072100
:102880003A4A94FBF3F307F043FE002202A8062124
:1028900013460092FFF7B2FB3460012D0ED002D335
:1028A000022D5BD149E0324B1978002956D0002225
:1028B00000201A700292ADF80C0048E02C4B28EE74
:1028C000881A1978FDEEC10A01291A4610EE904ABD
:1028D000284B02D11868A04240D00121117004F1A8
:1028E0006302C62A1C601FD8002C06DB092C06DDFB
:1028F0000A2394FBF3F2202306E02D2300E020239B
:102900006FF0090094FBF0F20A2094FBF0FE0092B5
:1029100000FB1E42002AB8BF5242019202A80721C2
:10292000154A07F0F5FD12E00A2302A80721134A11
:1029300094FBF3F307F0ECFD09E00D4B1978022945
:102940000CD01D7002A807210D4A07F0E1FD0022FE
:10295000062102A813460091FFF750FB04B0BDEC1E
:10296000028B70BD580C0020AA570208B657020807
:10297000100C0020680C0020BC570208C857020841
:10298000CE57020806EE900ADFED150A86EEA07A11
:1029900030B5144D4FF4B4702B6885B09FED120A1A
:1029A00027EE000AFDEEC07A17EE901A01F5B47416
:1029B00094FBF0F200FB12449C420ED006210B4A1D
:1029C000234602A807F0A4FD0D230022009302A8CD
:1029D00005211346FFF712FB2C6005B030BD00BF88
:1029E000DB0F49400C0C002000003443D55702088F
:1029F0009FED4B0A06EE901A86EE807A2DE9F0479D
:102A0000484E904600252DED028BDFED477A08EE0B
:102A1000900A27EE278A84B0444C454A15F8049062
:102A2000136804EE109AF8EE443AB2EE0D3A5B08E1
:102A3000122733EE632A7B43F2EE082A03F10A00E1
:102A400022EE222ADFED3B1A04EE900A62EE211AF2
:102A5000B8EE641A01EEA81AA3F1480100EE901A2C
:102A600071EE087AB8EE607A9246F4EEC77AF1EE2B
:102A700010FA09D4483305EE103AB8EE457AF4EE70
:102A8000C77AF1EE10FA04DDFCEEC75A15EE904A53
:102A900003E0BCEEE76A16EE104A1222E4B2737845
:102AA000B4FBF2F79F4207D0002001210246CDF887
:102AB0000090FFF7A3FA77701220B4FBF0F300FB4D
:102AC000134104A8803900F8011D0022012116F8E5
:102AD000013FCDF800900135FFF790FA062D9BD10C
:102AE000154C2278424515D04FEA4800C3B2DAF8B7
:102AF0000000591C9A1C8DF80C1043080E218DF80B
:102B00000D20009103A802210022DBB2FFF776FA24
:102B100084F8008004B0BDEC028BBDE8F08700BFF4
:102B2000DB0FC93E892600200000A442BC5B0208DE
:102B3000D82800203333B33F600C002010B5FFF7D6
:102B4000C5FA00282FD1184C237813F0550F06D062
:102B50001649174A086812784968FFF749FF207834
:102B600083070FD513480078FFF76AFDFEF798FE3C
:102B70001149124A09681278FFF746FE104B18688F
:102B8000FFF700FF94F800C05FEA0C7003D5094B13
:102B90001878FFF78FFD20784100CAB2227012B971
:102BA000014B01221A7010BD7D290020FC26002057
:102BB000C0270020D1270020482800208926002097
:102BC0005C2900202DE9704F0E4601311D468B18FF
:102BD0002DED028B9D420446DDED0B8A9DED0C8AA6
:102BE00048DC6DB968EE887AF5EEC07AF1EE10FA3D
:102BF00006D5D0ED000AB1EE600A80ED000A27E0AC
:102C000020680EF07BF982469DF828000128C5EB6C
:102C100006000CBFDFF86890DFF868908B460EF076
:102C20005BF902460B46002014490FF035FC4FF0CB
:102C3000000802460B46404649460EF0B3F90246EC
:102C40000B46504659460DF0FBFF0EF08DFC206000
:102C5000D4ED007AF4EEE87AF1EE10FA08D4F4EE4E
:102C6000487AF1EE10FACCBFF0EE488AF0EE678AAF
:102C7000C4ED008ABDEC028BBDE8708F00002440DB
:102C80000000F03F0000F0BF70B588B0062900F2E8
:102C90009180DFE811F007005300740016000D006A
:102CA0008F008201824B00221A705A709A7081E064
:102CB0007F4A137813B1581E10706CE07D490B7079
:102CC0006BE17B4B1A78082A1C4602D8541C1C70F6
:102CD00070E0DA78002A25D09B78012B0CD002D343
:102CE000022B1AD111E06078734A74491C2303FB4C
:102CF00000230868186010E060786F4A6F4B1C2151
:102D000001FB00201968416007E060786A4A6B495E
:102D10001C2303FB002308689860FF2120200A463B
:102D2000674B03E0FF21674B20200A46FFF75EFA5E
:102D3000604B0A200121187021702EE15C4A137843
:102D40002BB95378092B35D85D1C557032E0012B17
:102D500005D19378012B2DD85E1C96702AE0092BA3
:102D60004FF0010101D1D17024E0574A574C009136
:102D70000192023B029451480421022217E04C4A7E
:102D80001378012B05D80133D15C99B10139D154A5
:102D900010E0092B02D10020D0700BE04A4E4B4DC1
:102DA000464801960222023B009202950421DBB2C2
:102DB000FFF708FF3E4C404BA078627828B91C21F1
:102DC00001FB0233D3ED007A08E01C26012806FB44
:102DD00002350CBFD5ED017AD5ED027A2378374D57
:102DE000012B9FED3B7A02D8C5ED007A03E0082B5A
:102DF00074D8062B07D843B96378ABB10A2B0CBF44
:102E00000F230D2311E00C2100E00B21012B04D036
:102E1000CA18D1B20A460D230DE018B1022807D016
:102E20000D2306E00E2304E00E230922052102E013
:102E30000F230B22114694F801C0264C54F82C6045
:102E400020B1012814BF4420492000E05020D5EDD6
:102E5000000ABDEEE01AF5EEC00AF8EEC16AF1EE26
:102E600010FA30EEE60AD8BFB1EE606A20EE070A2B
:102E7000D8BFBDEEC66AB5EEC00AACBF2B252D2566
:102E8000CCBF11EE104A16EE104AF1EE10FAD8BF80
:102E9000B1EE400AFDEEC07A8DE8480002900E4B7C
:102EA000039530200494CDED057AFFF79FF974E087
:102EB000842900209C2900207C2A0020D42800207E
:102EC000DB570208ED57020800007AC400007A447C
:102ED0000000C8426C0C002003580208BDEEE75AFF
:102EE000F5EEC07AF8EEC54A95ED003AF1EE10FA2B
:102EF000D8BFB1EE676A37EEE44AD8BFBDEEC66A06
:102F0000FDEEC33A24EE074AD8BF16EE102AB8EEFB
:102F1000E36AB5EEC04AC8BF15EE102AACBF2B2637
:102F20002D2673EE462AF1EE10FAB5EEC03AD8BF60
:102F3000B1EE444AF1EE10FAD8BFF1EE435A62EE18
:102F4000872AD8BFFDEEE55A94F803E00192F5EE2A
:102F5000C02AACBF2B202D20CCBF13EE903A15EE2B
:102F6000903AF1EE10FAD8BFF1EE622ABEF1000FEE
:102F70000CBF4E215921BDEEC42AFDEEE21A069186
:102F800015210390049330200A46054B00968DEDE1
:102F9000022ACDED051AFFF729F908B070BD00BF70
:102FA0001B58020810B5431C08E01C01084A115DBB
:102FB0000401125D914206D007D30133DBB20D2B21
:102FC000F3D9012010BD002010BD012010BD00BFAD
:102FD000DC5A020813B5154B1978FF2904461DD099
:102FE000134A117831B10F20FF2100900A462020AA
:102FF000104B0FE0FFF7D6FF0F4901EB0414002838
:103000000CBF0D220E2263688DE80C00FF210B4BD4
:1030100020200A46FFF7EAF802B010BD20200A4639
:10302000002302B0BDE81040FFF7E0B8AC0C002070
:10303000122A002039580208DC5A020840580208B7
:1030400010B515490B78FF2B25D0144802783AB1FA
:10305000134A02EB03118B68087B0121984710BDCE
:103060003BB11801013B0E4A1C01105C145D844207
:1030700003D20C4B01221A7008E0DBB21C01145D74
:10308000844201D10B7001E0013BF6E70878BDE80E
:103090001040FFF79FBF10BDAC0C00209C29002002
:1030A000DC5A0208122A002038B5174D2C78FF2C64
:1030B00029D0164B1A783AB1154800EB04140221B6
:1030C000A268207B904738BD124B197809B11A705D
:1030D00014E02046FFF766FFA8B9631C0BE00C4A1A
:1030E0002101180112F801C012F800E0F44501D1E5
:1030F0002B7003E00133DBB20D2BF0D92878BDE84B
:103100003840FFF767BF38BDAC0C00209C29002079
:10311000DC5A0208122A0020F8B51D4C2278FF2A3A
:1031200005D1FEF757FF1B4A0023137011E01A4D1B
:10313000287848B1194901EB021003218368007B0C
:1031400098472B78FBB1F8BD124B197839B112B9F9
:10315000FF23237017E0013A2270187013E00F4824
:103160001601831903F108079B6823B10120287019
:1031700038799847F8BD0132130110F806C0C15CD8
:103180008C4538BF22702078BDE8F840FFF722BF99
:10319000AC0C0020122A00209C290020DC5A0208D6
:1031A00038B5154C2378FF2B24D0144D2A784AB11A
:1031B000134901EB031004218368007B98472B78A7
:1031C0009BB138BD1BB10E491A018A5C12B9FF23AD
:1031D00023700AE0013BDBB2180111F800C09445EE
:1031E000F8D2084A2370002111702078BDE83840D9
:1031F000FFF7F0BE38BD00BFAC0C00209C290020BA
:10320000DC5A0208122A002070B5514D2B78FF2B92
:103210002C4612D04F4802787AB14F4E317861B1C6
:103220004E4800EB031207219368107B98473378D0
:10323000002B40F08B8028782EE0494A1178012934
:1032400016D1FF2B00F08280434D287830B1434ADD
:1032500002EB03118B68087B062198470020FF21B1
:1032600003460A46FEF7C2FF00202870FF2347E00E
:10327000394D2A78012A13D9013AD1B2012929708E
:103280000ED1364901EB031005218368007B984776
:103290002B78002B5AD12078BDE87040FFF79ABEFA
:1032A000304A13889088A3F5AE610939A0F5BA6257
:1032B0001FFA81FC0C3ABCF1C60F23D8A0F5AE630F
:1032C000093B9CB2C62C284C01D8002318E013B24D
:1032D000002BB8BF5B42B3F5C87F01DD0020207032
:1032E0002178002932D1C82B30DD0FFA82FEBEF1E1
:1032F000000F02DDFFF7A4FE01E0FFF7D5FE01237A
:10330000237070BD0FFA82FCBCF1000FB8BFCCF186
:10331000000CBCF1630F19DCA3F5BA620C3A13B2CE
:1033200083EAE372A2EBE372C82A0FDD0E4C002B96
:10333000237803DD43B9FFF7EFFE05E013B1B2F5E3
:10334000C87F01DBFFF72CFF0123237070BD00BF96
:10335000AC0C0020342800209C290020DC5A0208F4
:10336000D1270020B82B0020300C00202DE9F0419F
:10337000274F284C3B78284D012B44D1274EFEF790
:103380008FFAD6F80080264A01464046FDF7FEF83F
:1033900000EE100A2349FDEEC07A0B6817EE900A82
:1033A000984204DB204A13689842B8BF034613F5DD
:1033B0007A7F28D01D491E480A68E9680068551AB6
:1033C000002DB8BF6D42854202DD0220387018E042
:1033D000184D28681518A94207DD96ED007A9FED73
:1033E000161A77EE010AC6ED000AC0EB020C614521
:1033F00007DAD6ED002A9FED102A72EEC21AC6ED4A
:10340000001AD31800E0EB682360BDE8F08100BF2C
:10341000892600204C0C0020B82B002048280020D2
:103420005C2B0020540C0020980C0020380C00204D
:10343000140C0020180C00200AD7233C2DE9F0477B
:103440002DED028B3D483E4C03783E4E3E4D012B08
:1034500046D1DFF81C91DFF81C81D9F80020D8F89C
:103460000070D11B03EE101A9FED388AF8EEC32AC4
:10347000374F384A396822EE882A12EE100AFDF7D3
:1034800085F8D8F804307A688246D9F80400C3EB8E
:10349000000C01EE90CAB8EEE11A82F0004121EE74
:1034A000087A2D4A17EE100AFDF770F821682B4AAA
:1034B00007465046FDF76AF800EE900A6168284A10
:1034C000FDEEE07A384681F00041C6ED007AFDF766
:1034D0005DF800EE100AFDEEC06AC5ED006A28E056
:1034E000204F0020FDF73AF8D4ED000AD7ED007A1E
:1034F00020EEA70A1C4A10EE101AFDF747F806EE58
:10350000900ABDEEE66A012086ED006AFDF726F816
:1035100094ED015AD7ED005A65EE654A134A14EE50
:10352000901AFDF733F804EE100AFDEEC43AC5ED2B
:10353000003ABDEC028BBDE8F08700BFC027002039
:1035400010280020902700206C2C0020A69BC43A55
:10355000FC260020D02A0020EC2A0020242B00206A
:10356000402B0020340C00207C2A0020982A0020C8
:10357000B82B0020AC2800201B4B1A781B4B032AC9
:103580000CD0052A19D0012A0CBF4FF4FA624FF46F
:103590007A721A605A609A60DA6023E0144802680E
:1035A000B2F5966FB4BF11464FF49661B2F57A7FCB
:1035B000ACBF0A464FF47A72EBE700220D4951582E
:1035C000B1F57A7F05DBB1F5966FA8BF4FF4966130
:1035D00001E04FF47A7199500432102AEED1064B73
:1035E00001221A70FDF7F0BE44280020202A002096
:1035F000B00C0020B8290020F8270020074A1368E3
:10360000B3F57A7F05DB40F23A718B42A8BF0B46D7
:1036100001E04FF47A731360704700BF4C0C002038
:10362000154A164B106816494FF4FA6210B59A60A5
:10363000DA601A605A60134B086048608860C8609E
:1036400093E8060098689142B8BF1146DA68814253
:10365000B8BF01469142B8BF11460022B1F5FA6FDA
:1036600005DD9C58C1F5FA6C04EB0C00985004324F
:10367000102AF3D110BD00BFF4270020D42700206A
:1036800078260020202A0020F8B55C485C4E03789C
:103690005C4C012B7ED15C4A5C495D4B92ED007A1B
:1036A000DFED5C7A5C4A67EE277A9FED5C6A92ED0B
:1036B000007A77EE465A77EEC76AF4EEE57AF1EED5
:1036C00010FAC1ED007AC3ED006A05D89FED540AE7
:1036D00076EE806AC3ED006A77EE060AF4EEE07AD1
:1036E000F1EE10FA07DB93ED002ADFED4D1A32EE12
:1036F000611A83ED001AF06840F24C4C604542DDDF
:103700003F488168A1F5B860C11E32290ED94549EC
:103710000023C2ED007AC1F8A030434A4349236038
:1037200000201070424B0A681A6033E093ED007A73
:10373000F5EE002AB4EEE27AF1EE10FA06D5BDEE0F
:10374000003AB4EEC37AF1EE10FA1EDC3649384D79
:103750000878364F68B93B682F683648DF1B8742C8
:1037600018D90120C2ED007A002208702B60226077
:1037700010E017EE101A00202F4AFCF707FF3968F7
:103780002060296006E0C2ED007A264A002323600B
:10379000C2F8A030294BB2689968501A07EE900A17
:1037A000D4ED004AF8EEE73ADFED257A9FED254AA1
:1037B00064EEA77A43EE847A9FED237AF4EEC77A1B
:1037C000F1EE10FA0BD49FED215AF4EE457AF1EEAA
:1037D00010FACCBF15EE100A17EE900A01E017EEB2
:1037E000100A1B491B4A8968FCF7D0FE05EE900AB7
:1037F0001948BDEEE56A80ED006AF8BD9429002005
:10380000B82B0020B02600205C2900204028002092
:1038100008280020E12E6542802900200000344362
:103820000000B4437C2A0020F027002074290020E7
:10383000682C002020A10700082B0020AC280020C5
:1038400035FA8E3C0BD7A33BDB0F49C0DB0F494059
:1038500010280020B42A0020B0290020F8B5FFF776
:10386000EDFDFFF711FF28480368DA0703D4FFF7DF
:103870007DFDFFF7C3FE254C217821B1244D2A7828
:103880000AB1FEF741FBFFF7CBFE224B2249D86875
:1038900040F24B4C604501DD002315E01F4A204EED
:1038A000204F126836783D780023CA502EB1002D83
:1038B00014BF10464FF4FA6000E010461A4FD8517A
:1038C0000433102BF1D1E7E71848CA581D58954228
:1038D00004DB154A9A589542B8BF2A46C2500433B1
:1038E000102BF1D1217809B9FFF746FE2078012885
:1038F00009D1074B93F800E0BEF1010F03D1BDE8F9
:10390000F840FDF761BDF8BD1C280020D12700203C
:10391000F8270020B82B002078260020F42700206C
:10392000C1270020C0270020D4270020202A002003
:1039300038B585B22946074802F0DBFA0024A91CF5
:1039400060F30F0489B2034802F0D3FA60F31F4416
:10395000204638BD882C002038B504468DB2294653
:10396000A2B2054802F0CDFAA91C034889B2220C84
:10397000BDE8384002F0C5BA882C00200B4A38B5A3
:103980001C2404FB002408460D46FFF7D1FF2060ED
:10399000281DFFF7CDFF606005F10800FFF7C8FFA5
:1039A0000023A060E360636138BD00BF7C2A002073
:1039B00038B5094B1C2404FB00340D462068FFF782
:1039C000CBFF6068291DFFF7C7FFA06805F108015C
:1039D000BDE83840FFF7C0BF7C2A0020514B524859
:1039E0004FF0814170B5596519675049504E1860C4
:1039F000D861C3F8A800C3F8C4004FF07E504D4D05
:103A00004D4C08604D499E605E62C3F8B060C3F8DB
:103A1000CC604B4E9D63C3F88C40C3F8E010494C1A
:103A2000C3F8F810484D4949C3F8E46000226FF02C
:103A30003106C3F890405A601A629A65DA655A678F
:103A40009A67DD631A64C3F89420C3F8AC20C3F806
:103A5000C820C3F8E820C3F8FC20C3F80021C3F84D
:103A600004210E603A4932260E603A490C603A4908
:103A70005A260E60394EFA243460394E394C0021F2
:103A800031607160B1603849384E0A604A608A60BE
:103A90003749206030600A606060A0607060354C1B
:103AA0004A60B0608A60344E344926609E615E632D
:103AB0001E65DE66C3F88860C3F8A460C3F8C06002
:103AC000C3F8DC60C3F8146108602D4E2D492E4BFD
:103AD00040F27E44346019602C4E2D4C2D49082351
:103AE000013BDBB246F8040F44F8042F41F8040F01
:103AF000002BF5D1284829490370294B2948012278
:103B00001A704FF07C5C284AC1F808C0274902604F
:103B1000274B28480D604EF6602240F2AA511960EA
:103B2000026070BD7C2A00200000C842340C0020D6
:103B3000000096C300004843000040400000C84118
:103B40009A99193FCDCCCC3D0000A040540C0020E8
:103B5000980C00205C0C0020180C0020140C002095
:103B6000702A002070270020C4270020A00C00200D
:103B7000E42600201C2C002000007A442828002085
:103B8000F42700200AE81CC1B429002038270020AF
:103B900004270020C8290020C0270020CC290020AD
:103BA00094290020040C0020B81E5540AC260020AB
:103BB000000C0020400C0020002070B50146FFF7EB
:103BC000DDFE01202421FFF7D9FE02201821FFF796
:103BD000D5FE03200C21FFF7D1FE04203021FFF792
:103BE000CDFE05203C21FFF7C9FE06204821FFF746
:103BF000C5FE54210720FFF7C1FE4FF4A070FFF768
:103C000097FE614C614E206060210820FFF7B6FEF0
:103C10004FF49470FFF78CFE5D4C5E4DC4F8F800D5
:103C20004FF49270FFF784FE5B4B18604FF4967070
:103C3000FFF77EFE00EE100A5848FDEEC07AC0ED98
:103C4000007A4FF49870FFF773FE07EE100A544A9B
:103C5000FDEEC76A4FF49070C2ED006AFFF768FE90
:103C600006EE100AFDEEC65A4FF48E70C6ED005AED
:103C7000FFF75EFE05EE100AFDEEC54A0920C5ED10
:103C8000004A6C21FFF77AFE4FF4AE70FFF750FE4A
:103C9000444E454D30604FF4B070FFF749FE286048
:103CA0004FF4B270FFF744FE70604FF4B470FFF74A
:103CB0003FFE68604FF4B670FFF73AFEB0604FF415
:103CC000B870FFF735FEA8604FF4BA70FFF730FE0A
:103CD000364908604FF4BC70FFF72AFE04EE100A64
:103CE000334BFDEEC43A4FF4BE70C3ED003AFFF71C
:103CF0001FFE03EE100A2F48FCEEC32AC0ED002A77
:103D00004FF48070FFF714FE2B4AA06110606063CF
:103D10002065E066C4F88800C4F8A400C4F8C000B8
:103D2000C4F8DC00C4F814014FF48470FFF700FEFF
:103D300002EE100A2149FDEEC21A4FF48670C1ED61
:103D4000001AFFF7F5FD1E4B18604FF48870FFF75F
:103D5000EFFD01EE100AFCEEC10A1A4810EE902A9F
:103D600002704FF48C70FFF7E3FD174908604FF4C1
:103D70008A70FFF7DDFD00EE100AFCEEC07A134BEF
:103D800017EE900A187070BD340C0020540C0020FF
:103D90007C2A0020980C00205C0C0020180C0020CD
:103DA000140C0020E4260020A00C0020040C0020AD
:103DB000000C0020400C00201C2C0020F4270020C8
:103DC000AC260020C0270020B42900209429002020
:103DD000F8B572B600200146FFF7EAFD0120242164
:103DE000FFF7E6FD03200C21FFF7E2FD0420302160
:103DF000FFF7DEFD02201821FFF7DAFD05203C2148
:103E0000FFF7D6FD7A4E7B4D7B4F06204821FFF70A
:103E1000CFFD07205421FFF7CBFD30684FF4A07190
:103E2000FFF79AFD08206021FFF7C2FD734A4FF4A7
:103E30009471D2F8F800FFF78FFD714908684FF4CC
:103E40009271FFF789FD2C686E4D03EE104AF8EE73
:103E5000C32A4FF4967112EE900AFFF77DFD6A486F
:103E60006A4C036802EE103AF8EEC21A4FF49871E9
:103E700011EE900AFFF770FD3E68654F01EE106A83
:103E8000F8EEC10A4FF4907110EE900AFFF764FD4E
:103E9000604A614E116800EE101AF8EEC07A4FF4D5
:103EA0008E7117EE900AFFF757FD09206C21FFF77E
:103EB0007FFD28684FF4AE71FFF74EFD20684FF488
:103EC000B071FFF749FD68684FF4B271FFF744FD28
:103ED00060684FF4B471FFF73FFDA8684F4D4FF491
:103EE000B671FFF739FDA0684FF4B871FFF734FDE4
:103EF0004B484FF480710068FFF72EFD494B4FF49B
:103F000082711868FFF728FD002404F19C0157F81E
:103F1000040FFFF721FD04F1A00156F8040FFFF78D
:103F20001BFD04F1A40155F8040F0C34FFF714FD38
:103F3000602CEAD13C4B1A6800EE102AF8EEC07AE9
:103F40004FF4847117EE900AFFF706FD37490868B1
:103F50004FF48671FFF700FD3548037807EE103AFD
:103F6000F8EE476A4FF4887116EE900AFFF7F4FCFA
:103F7000304A117806EE101AF8EE465A4FF48A715C
:103F800015EE900AFFF7E8FC2B484FF48C7100689F
:103F9000FFF7E2FCFC212948FFF7DEFC284B4FF439
:103FA000BA711868FFF7D8FC264A116805EE101A96
:103FB000F8EEC54A4FF4BC7114EE900AFFF7CCFC42
:103FC0002148036804EE103AF8EE443A4FF4BE710B
:103FD00013EE900AFFF7C0FC00204FF4C071FFF70A
:103FE000BBFC00204FF4C271FFF7B6FC62B6F8BD0F
:103FF000340C0020180C0020540C00207C2A0020D7
:104000005C0C0020E4260020140C0020A00C0020F2
:1040100038270020980C002004270020C829002001
:104020001C2C002028280020F4270020AC2600208B
:10403000C027002094290020B4290020666646404D
:10404000040C0020000C0020400C002030B585B08E
:1040500006295ED8DFE801F00808082D04040400F2
:104060002D4B00221A7054E02C4A2D4B10782D4D08
:1040700003EB001401290CBF4FF0010C4FF0000CB2
:10408000646885F800C0204606F078FA2A78264B46
:10409000011D002A0CBF0E220F220CBF4E205920FA
:1040A000C9B28DE8140002900A463020FEF79EF84F
:1040B0002FE01C4B184C197800220129227028D1BE
:1040C00010B1012825D108E0FFF782FEFCF7BCFA09
:1040D000FF2121200A46154B17E0FF210A46144B09
:1040E0002120FEF783F8FFF779FCFFF771FEFCF75C
:1040F00037FDFCF7B1FDFCF7A7FAFDF7ABFBFDF7C9
:10410000C1FDFF210B4B21200A46FEF76FF80A2064
:10411000207005B030BD00BF9C290020AC0C0020F1
:10412000DC5A020884290020455802084E5802082B
:10413000605802087458020838B54FF49A70FFF7B7
:10414000F7FB02EE100A204C204DFDEEC21A4FF490
:104150009C70C4ED001AFFF7EBFB01EE100AFDEEB8
:10416000C10A4FF49E70C4ED010AFFF7E1FB00EEB7
:10417000100AFDEEC07A4FF48C70C4ED027AFFF79E
:10418000D7FB134B134C18604FF4A470FFF7D0FB10
:1041900028604FF4A270FFF7CBFB20604FF4A870AB
:1041A000FFF7C6FB68604FF4A670FFF7C1FB6060C5
:1041B0004FF4AC70FFF7BCFBA8604FF4AA70FFF798
:1041C000B7FBA06038BD00BF702A00207027002018
:1041D000B4290020C427002038B5244C244D94ED88
:1041E000002AF8EEC21A4FF49A7111EE900AFFF706
:1041F000B3FB94ED011AF8EEC10A4FF49C7110EE76
:10420000900AFFF7A9FBA0681A4C00EE100AF8EE1E
:10421000C07A4FF49E7117EE900AFFF79DFB164B84
:104220004FF48C711868FFF797FB28684FF4A4715E
:10423000FFF792FB20684FF4A271FFF78DFB6868CF
:104240004FF4A871FFF788FB60684FF4A671FFF781
:1042500083FBA8684FF4AC71FFF77EFBA0684FF4B6
:10426000AA71BDE83840FFF777BB00BF702A002075
:1042700070270020C4270020B429002038B5514CF5
:10428000FDF71CF8E26840F24B439A425EDCA068FE
:10429000984214DC4C4D2B78012B10D14FF47A70DE
:1042A000FDF7AEF8494A4A48262100231170FF2144
:1042B00003702B7041200A46464BFDF797FFA1681B
:1042C000404A40F24B43994215DC106840F26C7C46
:1042D000604510DD52689A420DDC3C4B1821197084
:1042E000FCF73EFCFCF7B8FCFFF776FFFCF7ACF9F7
:1042F0000320FDF7E5F8A06840F26C7290421DDDE6
:10430000314B1978D1B934480278012A16D1334893
:104310000178002954D132491A7040F24C402B4B9D
:10432000086048608860C8603422FF211A7041200C
:104330000A462C4BFDF75AFFFCF786F9A26840F2BB
:104340004C4E724502DD244B01201870204B197829
:1043500049B91D4A1278012A05D12349E068096844
:104360008842C8BF1A7022696469204B40F2DC5051
:10437000824240F2D56CD4BF0022012264451A70FB
:104380001B4C18DC217802291AD01A4D2A787AB1F0
:10439000FDF786FA184A194B10600A4AC3F8EC0078
:1043A0000021C3F8F410D0681549002308602B7071
:1043B0000120207038BD0F4A0121002311702370A5
:1043C00038BD00BFB82B0020D1270020080C0020EA
:1043D000C127002089580208F8270020342800202F
:1043E000202A002098580208F4270020C027002027
:1043F00089260020F0290020482800207C2A00205F
:10440000380C002008B5FFF797FE1B4B93ED007AA0
:10441000F7EE007AB4EE677AF1EE10FA0ED193ED72
:10442000017AB4EE677AF1EE10FA23D193ED020A25
:10443000B4EE670AF1EE10FA13D008BDB5EE407A7B
:10444000F1EE10FA16D1D3ED017AF5EE407AF1EEE5
:1044500010FA0FD1D3ED020AF5EE400AF1EE10FA90
:1044600008D1064A06485A6018609A60BDE80840BC
:10447000FFF7B2BE08BD00BF70270020C6F99BBA87
:10448000C6F99B3A38B54620002103F023FC0024EE
:10449000462004F00101013403F072FCE4B2322042
:1044A00003F00CFC0A2CF3D14520002103F012FC90
:1044B0004520002103F064FC4520002103F00AFCA4
:1044C0004520002103F05CFC2020032103F002FCC6
:1044D0000020014603F0FEFB0020014603F050FCE3
:1044E000FBF758FF0C4905460C4802F062FDFBF74C
:1044F00051FF2246411B094802F0E4FD17210848FC
:10450000162203F02DFDFFF77DFF04480549BDE8A5
:10451000384002F04EBD00BFA7580208E82C00202A
:10452000EC2C0020F0580208F8B54FF48270FFF729
:10453000FFF90E4B0E4F0F4E0F4D1860002404F183
:104540009C00FFF7F5F947F8040F04F1A000FFF70E
:10455000EFF946F8040F04F1A400FFF7E9F90C3471
:10456000602C45F8040FEAD1F8BD00BF28280020D0
:104570003827002004270020C829002010B5124B3E
:10458000124C187888B11248007820B121780020A8
:1045900001F002010AE00F4A13781BB1237803F0FF
:1045A000060103E01846194600E0014603F0E8FB67
:1045B000094A11784520012918BF002103F0E0FBCA
:1045C0002178481C207010BDD12700207C290020B4
:1045D000B0270020642C0020C0270020074BD3ED1B
:1045E000007AF5EEC07AF1EE10FA44BF9FED047A3E
:1045F00077EE877A17EE900A704700BF5C2900209B
:10460000DB0FC940F8B5002604460F460670354654
:104610000F4803F01BFB28B90120013603F04EFBC5
:10462000F6B206E00A4803F024FB60550135EDB20E
:10463000002625B1601910F8013C3B2B04D0092E4F
:1046400002D8791E8D42E3DB00226255F8BD00BF1F
:10465000E82C00201FB500210B2201A8009105F0D5
:10466000E1FE68460F21FFF7CDFF684605F0C4FD67
:104670000CF07AFF05B000BD084910B51C2404FBFE
:104680000014FFF7E7FF2060FFF7E4FF6060FFF72B
:10469000E1FF0023A060E360636110BD7C2A00207D
:1046A00010B50446FFF7D6FFDFED0B7A07EE100AD0
:1046B000B4EE677AF1EE10FA4FF00000074B04D128
:1046C000074A1C701070012010BD1870054B4FF484
:1046D0007A71196010BD00BF66E6F64244280020DA
:1046E000D1270020B00C00201FB500210C2201A80A
:1046F000009105F097FE68461021FFF783FF68469A
:1047000005F07EFD05B000BD38B5864803F09EFA81
:10471000002800F0B781834803F0ABFA824B187091
:104720003138292800F2AE81DFE810F06501670119
:104730006C017B018801AC01AC01AC01AC01AC01A6
:10474000AC01AC01AC01AC01AC01AC012A003400FD
:1047500045004C0081008F009D00AC00BE00D000E1
:10476000D300EB00EE0024013F014901AC01AC0194
:10477000AC01AC01510157015F01AC01AC019B01DF
:104780000020FFF779FF0120FFF776FFFFF762FFB8
:10479000664B0EE00320FFF76FFF0420FFF76CFF6E
:1047A0000620FFF769FF0720FFF766FFFFF752FFBC
:1047B0005F4B186038BD0220FFF75EFF0520FFF752
:1047C0005BFF06E10820FFF757FFFFF743FF594A59
:1047D000C2F8F800FFF73EFF02EE900A5649BDEE20
:1047E000E22A81ED002AFFF735FF01EE900A534BD4
:1047F000BDEEE11A83ED001AFFF72CFF00EE900AE0
:104800004F4ABDEEE07A82ED007AFFF723FF00EE1B
:10481000100A4C48FDEEC07AC0ED007AFFF71AFF8F
:10482000494908600920BDE83840FFF725BFFFF778
:1048300011FF464B1860FFF70DFF03EE900A444846
:10484000BDEEE33A80ED003A38BDFFF703FF414C7F
:104850002060414C04F12005FFF7FCFE44F8040FF2
:10486000AC42F9D138BDFFF7F5FE04EE900A3B49A2
:10487000BDEEE44A81ED004A14EE104AFFF7EAFE6D
:10488000374B0DE0FFF7E6FE05EE900A334ABDEE2A
:10489000E55A82ED005A15EE104AFFF7DBFE314B68
:1048A00003EB8404206038BDFFF798F8FFF790FA17
:1048B000FFF792FCFCF754F9FCF7CEF9FBF7C4FEC6
:1048C000FCF7C8FFBDE83840FDF7DCB9FCF748F954
:1048D00013E0FFF7BFFE244D244C2860FFF7BAFE1B
:1048E0002060FFF7B7FE6860FFF7B4FE6060FFF777
:1048F000B1FEA860FFF7AEFEA060BDE83840FFF74C
:104900006BBCFCF7A9F9F8E7FFF7A4FE184C206090
:10491000FFF7A0FE6060FFF79DFEA060BDE8384095
:10492000FFF756BAE82C00203C0C0020340C002085
:104930001C2C00207C2A0020180C0020140C0020C5
:10494000540C0020980C00205C0C0020AC260020A9
:10495000F427002028280020C8290020EC29002066
:104960003C2700200827002070270020C4270020B3
:10497000E4260020FFF76EFE434C2060FFF76AFE3E
:1049800000EE100A414BFDEEC07AC3ED007AFFF74E
:1049900061FE06EE900A3E48BCEEE66A80ED006AD3
:1049A0002068BDE83840FDF7B7B9FFF79DFEFFF777
:1049B0009BFEFFF799FEBDE83840FFF795BE0D243A
:1049C000013CE4B2FFF746FE002CF9D138BDFFF7F9
:1049D00041FEBDE83840FFF73DBE0624FFF73AFE32
:1049E000611ECCB2002CF9D138BDFFF7F1F9BDE85A
:1049F0003840FBF729BE012000E00220BDE8384026
:104A0000FFF74EBE0320FFF74BFE00283AD0FFF71A
:104A100021FE00EE900A1F4ABDEEE07A82ED007A98
:104A200038BD0420FFF73CFE00282BD01A4A194B52
:104A300000214FF47A701170186038BD0520FFF71F
:104A40002FFEF8B10024FFF705FE01EE900ABDEE3F
:104A5000E11A124B11EE100AE0500434102CF2D17E
:104A600038BDFFF7F7FD02EE100AF7EE002AB4EEAC
:104A7000622AF1EE10FA0A4B02D10121197038BDF9
:104A800000221A7038BD00BF040C0020000C00206A
:104A9000400C0020B00C002044280020B829002041
:104AA000102A002001482C2102F06EBAE82C0020C8
:104AB00008B501460A22034802F0DDFABDE80840C5
:104AC000FFF7F0BFE82C002008B501460A22034892
:104AD00002F005FBBDE80840FFF7E4BFE82C00202A
:104AE00007B50CF00BFA02460B460548022100916F
:104AF00002F0AEFB03B05DF804EBFFF7D3BF00BFDD
:104B0000E82C0020074B10B51C2404FB003420685F
:104B1000FFF7E6FF6068FFF7E3FFA068BDE810401D
:104B2000FFF7DEBF7C2A0020844638B50B480C46D0
:104B30006146154602F02DFA0848094902F029FAA3
:104B4000084803681C4203D10448074902F021FACF
:104B500002482946BDE8384002F02BBAE82C002074
:104B6000005D0208442C00200259020800000000E9
:104B700013B50A220E21344802F0B8FA33493248FC
:104B800002F007FA01242EA3D3E900232E48009453
:104B900002F063FB2C482E4902F0FBF92A482D490C
:104BA00002F007FA28482C4902F0F3F926482B496D
:104BB00002F0FFF924482A4902F0EBF90A22082101
:104BC000214802F093FA2048264902F0E2F9042134
:104BD0000A221D4802F08AFA21462348234AFFF799
:104BE000A3FF02212248214AFFF79EFF0821214806
:104BF0001E4AFFF799FF04211F481C4AFFF794FF44
:104C000010211E481E4AFFF78FFF20211D481C4A15
:104C1000FFF78AFF40211C48194AFFF785FF8021D2
:104C20001A48174AFFF780FF1948154A4FF4807158
:104C300002B0BDE81040FFF777BF00BFAFF30080C0
:104C4000000000C0CCCC0840E82C00200759020826
:104C50001A590208275902082D5902083D5902081D
:104C60004459020858590208615902086B59020850
:104C700074590208825902088C590208995902088D
:104C8000A6590208AE590208BC590208CC590208BC
:104C9000DD590208AFF30080F7B58E4C23786A2BFC
:104CA000264600F0018128D8642B00F0908012D8AD
:104CB000612B62D009D8232B00F05782362B00F0ED
:104CC0005982212B40F0638246E2622B60D0632B35
:104CD00040F05D8271E0672B00F0B28006D8652B52
:104CE00000F09880662B40F052829BE0682B00F029
:104CF000BC80692B40F04B8229E0702B00F09B8137
:104D000011D86D2B00F06C8106D86B2B00F0088158
:104D10006C2B40F03C8244E16E2B00F081816F2BC4
:104D200040F0358209E2732B00F0AD8106D8712B7B
:104D300000F08F81722B40F02A8291E1752B00F0F8
:104D40000282C0F0E681762B40F02182EFE1624CD6
:104D50002068FFF7C5FE6068FFF7C2FEA0685F4CE1
:104D6000FFF7BEFE2068FFF7BBFE6068FFF7B8FEE6
:104D7000A068FFF7B5FE00248CE00020FFF7C2FE1C
:104D80000120FFF7BFFE564B1868FFF7A9FE3DE074
:104D90000320FFF7B7FE0420FFF7B4FE0620FFF75D
:104DA000B1FE0720FFF7AEFE4E4800680CF0A6F8F3
:104DB0000B4602210246009130E10220FFF7A2FEDD
:104DC0000520FFF79FFE484A48481178C0E10820B7
:104DD000FFF798FE4649D1F8F800FFF781FE454BF2
:104DE0001868FFF771FE444A1068FFF76DFE4348EC
:104DF0000068FFF769FE42490868FFF765FE414B0E
:104E00001868FFF76DFE0920FFF77CFE374802F0B7
:104E1000C5F8ACE13C480068FFF762FE3B4A334806
:104E2000116895E13A4D3B4C2868FFF759FE04F1B3
:104E3000200554F8040FFFF753FEAC42F9D1A1E16D
:104E4000354C04F1200554F8040F0CF057F80246D5
:104E50000B4626480621009102F0FAF92C2123483E
:104E600002F092F8AC42EED18CE12C4C04F120051A
:104E700054F8040F0CF042F8024606200B4600904E
:104E80001A4802F0E5F92C21184802F07DF8AC42EE
:104E9000EED177E120460134FCF736FBE4B2FFF7B0
:104EA00013FE032CF6D13CE10020FCF721FBFFF7B9
:104EB0000BFE0120FCF71CFBFFF706FE0220FCF7AF
:104EC00017FB014609480A2203B0BDE8F04002F092
:104ED0000DB900BF3C0C00201028002068290020DC
:104EE000340C00201C2C002094290020E82C0020E9
:104EF0007C2A0020180C0020140C0020540C0020E8
:104F0000980C00205C0C0020AC260020F427002028
:104F100028280020C8290020382700200427002046
:104F20009F4EA04F30680BF0E9FF062502460B4666
:104F30009D48009502F08CF9FFF7B4FD38680BF03E
:104F4000DDFF02460B469848009502F081F9FFF715
:104F5000A9FD70680BF0D2FF02460B4692480095FF
:104F600002F076F9FFF79EFD78680BF0C7FF024666
:104F70000B468D48009502F06BF9FFF793FDB06882
:104F80000BF0BCFF02460B468748009502F060F923
:104F9000FFF788FDB8680BF0B1FF009502460B469D
:104FA0003CE0824C824DFBF707FE2668287896FB92
:104FB000F0F0FFF789FD2B786168002691FBF3F094
:104FC0002660FFF781FDA26895F800C0666092FB3D
:104FD000FCF175480A2202F089F8A6602E70D6E02E
:104FE000744D28680BF08AFF062602460B466E4871
:104FF000009602F02DF9FFF755FD68680BF07EFF73
:1050000002460B466848009602F022F9FFF74AFD77
:10501000A8680BF073FF009602460B466248A1E0B9
:1050200065490868FFF75CFD644A1068FFF74CFDAE
:105030005D48634B0FE00C24013C0020E4B2FFF715
:1050400043FD002CF8D1584821460A2202F04EF8C0
:105050009BE055485B4B19680A2201F0FFFF86E090
:10506000594C2068FFF73CFD6068FFF739FDFFF7FA
:10507000B5FA0BF043FF0246022000900B464A4867
:1050800002F0EBF883E0514A4F4C1078FFF710FD27
:105090002068FFF725FD6068FFF722FDFFF79EFA05
:1050A000FFF71EFDFCF7FCFBFFF71AFD484B1878D5
:1050B000FFF70AFD0024474960580434FFF704FD58
:1050C000202CF8D10024444820580434FFF7FCFC7D
:1050D000102CF8D10020FFF7F7FC0020FFF7F4FCBC
:1050E0000020FFF7F1FC0020FFF7EEFC3B49CA88E7
:1050F00000EE102ADFED3A7AB8EE407AC7EE276A62
:1051000016EE900AFFF7ECFC364B1878FFF7D0FC50
:1051100007E000242F4820580434FFF7D5FC202C4A
:10512000F8D1214803B0BDE8F04001F037BF0020BE
:10513000FFF7CAFC0020FFF7C7FC0020FFF7C4FC04
:105140000020FFF7C1FC0020FFF7BEFC164800213D
:105150000A2201F0CBFF0AE0012300930EA3D3E95A
:105160000023114802F079F801E0FFF701FD582211
:1051700022700CE00024184960580434FFF7A4FCA6
:10518000102CF8D1084801F009FF5820307003B006
:10519000F0BD00BFAFF30080000000C0CCCC0840E1
:1051A00070270020C4270020E82C0020282700209A
:1051B000112A0020E4260020040C0020000C00200E
:1051C000400C0020442C0020FC260020D127002089
:1051D00089260020B82B0020202A0020B40C0020B3
:1051E0000000C842C027002010B502E0206802F08D
:1051F000FBFA034C206802F00CFB0028F6D110BD2E
:10520000402A002010B501E002F0EEFA084C2068B8
:1052100002F0FFFA01282068F6D802F0FAFA20B16D
:105220002068BDE8104002F0DFBAFF2010BD00BFCB
:10523000402A0020024A11684B1C1818704700BF12
:105240003828002004490B68C21A02F40041480AB9
:1052500000F04000704700BF38280020024B4FF498
:105260009641186002F074BA402A0020F0B5332845
:1052700093B000F0398105D831280CD0322840F0A5
:10528000D78196E08A2806D08E2800F0928089285F
:1052900040F0CE8128E100212D22684605F0C2F8B9
:1052A00078247C23A0227D218A27F42601258DF8ED
:1052B00000308DF803208DF82B108DF801708DF8DB
:1052C00015608DF816508DF817408DF81940FCF7D1
:1052D000F7FA8DF8150000128DF81600FBF7BEF8EE
:1052E000A44B8DF80B0093ED007ADFEDA30A87EE57
:1052F000207A4FF4B475A1488DF80D400478002C45
:1053000014BF102400249FED9E0A27EE000AFDEE34
:10531000C07A17EE907A07F5B47292FBF5F605FBAA
:105320001621984D8DF806102B7803BB9649974AA5
:105330000B789748012B01D1137004E0022B00D0A9
:105340000BB90126067017783FB10B78022B00D0FD
:105350001BB90023137028222A70007838B109780D
:10536000012904D18A4A0027272617702E7004B914
:105370002C78884F884E97F800C0A44506D1306835
:10538000FFF760FF88B141F2883001E04FF4FA6026
:10539000FFF750FF306034B195F800E0A64502D128
:1053A000784B002018703C7000E004468DF80240F5
:1053B00039E100212D22684605F034F87C22E020F6
:1053C0008DF80020F4228DF803008DF81A20482073
:1053D0007D2214218DF822008DF82B206F48704A11
:1053E0008DF818108E238DF8191078218DF8013062
:1053F0008DF824100123B2F806C001788DF81B3017
:105400000A23BCFBF3F311B95C48017811B1802188
:105410008DF80410917A8DF81E308DF816308DF8C5
:1054200014301B0AFF298DF81F308DF817308DF8C6
:10543000153007D05A48B0F910E064239EFBF3F012
:1054400083B200E00023180AFF2918BF52698DF8C3
:105450001D001ABF4FF47A7092FBF0F000208DF817
:105460001C3003128DF821308DF82000FCF728FA4B
:105470008DF81A0000128DF81B00FAF7EFFF010AF1
:105480008DF80E108DF80C108DF80D008DF80B00B6
:10549000FAF77AFF434B1A68C2EB000C1FFA8CF143
:1054A00088181860404B1A688818404A18601078AD
:1054B0003F4B404A80B1188801EB000C1FFA8CF179
:1054C0004EF65F2E7145198006D9107801F5AD5E54
:1054D000411CA3F800E011701B8811789A128DF816
:1054E00027108DF828209EE0334B6A4603F12805EB
:1054F00018685968144603C40833AB422246F7D1F2
:105500001868206019792171FCF7DAF92B4A2C49C7
:105510008DF8050003128DF8063010680B688DF8C1
:1055200007008DF80930FAF799FF020A8DF80F008D
:105530008DF80D008DF80B0013488DF810200378BE
:105540008DF80E20012B8DF80C2041D11D491E4AEB
:105550001E4B09681268DB6801EB020C634501DD34
:105560002B2338E08A1A934201DA2D2333E03D23BE
:1055700031E000BF5C290020DB0F4940B02700204C
:1055800000003443080C002089260020082A00204F
:10559000B8280020D1280020602A0020642C002098
:1055A000B40C0020BC28002038280020D12700207F
:1055B0002C280020682A0020805602081C0C00209D
:1055C000500C0020380C0020180C0020B82B0020B4
:1055D000022B02D121238DF82630174991F800E0E3
:1055E0001621BEF1010F0CBF144A154A0CA804F095
:1055F0008FFF0CA804F0C2FFC0F115025008C2B220
:1056000000230BE00DF1480C0CEB030010F8181C04
:1056100049B18018013300F8371CDBB203EB020EEE
:10562000BEF1140FEEDD6846FAF702FF012000E03C
:10563000002013B0F0BD00BFC0270020ED590208C4
:10564000015A020870B52A4C2378032B4ED8DFE8A4
:1056500003F002111F3DFFF7D5FDC0B2FF2845D072
:10566000FFF704FE002841D0FAF794FE21490123F8
:1056700008600BE01F4DFAF78DFE2A68801AB0F51E
:10568000FA6F33D9FAF786FE02232860237070BDC3
:10569000184EFAF77FFE3368C3EB000CBCF57A7F37
:1056A00024D9154D15482B78006815495A1CC95C3A
:1056B00003682A701A689047FFF796FDFAF76AFEAA
:1056C000297830602C2911D90323DFE7094DFFF732
:1056D0008BFDFAF75FFE2B68C21A41F288308242D6
:1056E00004D9FAF757FE00212860217070BD00BF71
:1056F00021280020C8290020D0270020402A00208F
:10570000B426002010B533484FF4E13102F09CFA82
:105710004620002102F0DEFA4620002102F030FB94
:10572000FEF74AFAFC20FEF703F9DFED2B7A07EECD
:10573000100AB4EE677AF1EE10FA03D0FEF74EF9D4
:10574000FEF746FBFEF79EFE0420FBF771FE0820E5
:10575000FBF7A2FDFEF7E8FEFBF7D6FC1F494FF072
:105760007B54CC66C1F888401D4CFCF78BFA23684B
:105770001C4A43F02000116820600120FCF7AEFBBA
:10578000216841F040032360FCF7ECFBFCF712FFBB
:10579000FAF7CAFFFBF736F9FBF70CFAFEF7CCFC79
:1057A000FBF7DEF9226842F010002060FCF752F8A7
:1057B000FBF7DEFE0C48FFF751FDFAF7EBFD0B4956
:1057C00008604620012102F0DBFA094B00221A7022
:1057D00010BD00BFE82C0020666646407C2A0020F1
:1057E000442C0020040C0020D02C00201C2A002077
:1057F000F8270020F0B5224B224C18682268224F6F
:105800001A60111A00EE101ADFED207AB8EE407A15
:1058100085B0C7EE277A1E4E1E4D0024C7ED007AD4
:10582000FBF754F9FBF7EAF91B4A56F8040F63013A
:10583000D118FAF727FF0134032C45F8040FF3D1F0
:10584000164B174A59680091D3F808E0CDF804E0E8
:10585000D7F800C0CDF808C0106851681B6892687E
:10586000FBF790FCFCF736F90E480168C90701D434
:10587000FCF766F905B0BDE8F040FDF7EFBF00BFEB
:10588000F429002074290020440C002000247449CD
:105890009C27002064290020DC28002068290020A3
:1058A000102800201C280020094B0A4A1968126899
:1058B000501A00EE100ADFED087AB8EE407A074978
:1058C0001A60C7EE277AC1ED007AFEF7D7BC00BF99
:1058D000902900207429002000247449440C0020E1
:1058E0000D480E4A0168126808B5531A00EE103AC6
:1058F000DFED0B7AB8EE407A0A4B0B490260C7EE37
:10590000277A1868C1ED007A5968FBF7F9FEBDE8FF
:105910000840FBF73DBE00BF782900207429002015
:1059200000247449FC260020440C002008B5114ACC
:10593000114B126819681A60501A01EE100A9FED97
:105940000F0AF8EE410A0E4980EE800A9FED0D7AAB
:1059500081ED000A20EE070AFCEEC07A17EE900AED
:1059600080B2FCF753FAFEF7CFFEBDE80840FFF720
:1059700093B900BF742900209C270020002474499B
:10598000440C002000007A4408B50C4A0C4B126805
:1059900019681A60501A00EE100ADFED0A7AB8EEA4
:1059A000407A0949C7EE277AC1ED007AFDF72CFC51
:1059B000FDF7C4F8BDE80840FEF7E0BD74290020FB
:1059C000F82B002000247449440C002070B5214CB1
:1059D000214D224EFAF7DEFC21682860401A306023
:1059E000FBF7A4F9326842F20F739A4226461C4C28
:1059F00027D92068431C2360FFF7FCFE2268D007EC
:105A000001D4FFF751FF22680A23B2FBF3F003FB36
:105A1000102111B9FFF764FF11E0124B2A681968D1
:105A2000114BC1EB020C9C4502D9FFF77FFF06E04A
:105A30000E480168501A984201D9FFF7A5FF2A685D
:105A40003260FFF7FFFD2368632B02D90448002171
:105A5000016070BD1C2A002074290020BC27002092
:105A60001C2800209C270020A0860100F82B002085
:105A700008B5FFF747FEFFF7A9FFFCE708B50421CB
:105A80000A48FAF773FE0A490A4891ED000AB7EE90
:105A9000007A77EE407A0221C0ED007A064801F0E4
:105AA000D3FFFAF777FC054B186008BD902600205D
:105AB000CC0C0020C428002034270020682C0020B3
:105AC00010B50C888368A4B24FF6FF7084420B4473
:105AD00008D008881FFA80FC944508D102E00A68C3
