:020000040801F1
:10000000000001201509020861580108655801081F
:10001000695801086D580108715801081109020852
:10002000110902081109020811090208B16A010840
:100030001109020811090208D56A0108B550010822
:100040001109020811090208110902081109020820
:100050001109020811090208114C0108174C010886
:100060001D4C0108234C0108294C0108DD4A0108F8
:10007000ED4A0108FD4A01080D4B01081D4B01081E
:100080002D4B01083D4B0108110902081109020816
:100090001109020811090208110902082F4C010870
:1000A0003D540108495401085554010861540108A0
:1000B0006D5401087954010885540108194F01084D
:1000C000314F0108254F01083D4F01081109020871
:1000D00011090208F5560108015701080D570108DA
:1000E000374C01081109020811090208B55401082A
:1000F000C1540108CD540108D9540108110902085E
:100100001109020811090208915401081109020895
:1001100019570108255701089D540108A9540108E1
:100120004D4B01085D4B01086D4B01087D4B0108EB
:10013000110902081109020811090208110902082F
:10014000110902081109020811090208BD6E01080F
:10015000110902081109020811090208110902080F
:1001600011090208110902081109020811090208FF
:1001700011090208110902081109020811090208EF
:10018000110902081109020810B542F2F054C2F236
:100190000004237863B940F20000C0F2000028B1E7
:1001A00043F68C60C0F60200AFF30080012121709D
:1001B00010BD00BF08B540F20003C0F200034BB110
:1001C00043F68C6042F2F451C0F60200C2F2000124
:1001D000AFF3008042F2F050C2F20000016829B192
:1001E00040F20003C0F2000303B1984708BD00BF0E
:1001F0000C4BDA68D1030ED4D868C2060DD4D96886
:1002000011F0EF0F0BD1DA6802F00203002B0CBFE4
:1002100005200C20704701207047032070470B20F9
:10022000704700BF003C024013B50446FFF7E0FFF3
:100230000CE000230193FF2301E00198431E01938A
:1002400001990029F9D1FFF7D3FF013C012803D11F
:10025000002CEED1062002E0002C08BF06201CBDB9
:1002600070B5044641B1012908D0022914BF4FF4EA
:1002700040764FF4007603E00E4601E04FF48076BE
:1002800040F6FF70FFF7D0FF052820D1104D2869F8
:1002900020F440732B612A6916432E61296921F0ED
:1002A000F80028612B6943F0020214432C6129698C
:1002B00041F48030286140F6FF70FFF7B5FF2B69ED
:1002C00023F002022A61296921F0F8032B6170BD35
:1002D000003C024000F17843B3F5803F05DA002B83
:1002E000BCBF074BC3189B1306E0B3F5003F02DB0E
:1002F0005B14043300E00423D8000321FFF7B0BFF0
:10030000FF3F00F8134B00F178429A4270B5044663
:100310000E461CD81F20FFF787FF052818D10E4D69
:10032000296921F4407028612B6943F480722A61A5
:10033000296941F0010028611F202680FFF774FF22
:10034000062805D02B6923F001022A6170BD072021
:1003500070BD00BFFEFF0700003C0240044B1A695D
:10036000002A03DA0349044859605860704700BF07
:10037000003C024023016745AB89EFCD036801399A
:10038000343343F821207047014B1868704700BF91
:10039000602D002038B5FFF7F7FF094B04469D6834
:1003A000FFF7F2FF8442F6D1C5F524354035A82188
:1003B000B5FBF1F54FF47A7000FB045038BD00BF77
:1003C00010E000E0174B30B558689C682468026A5A
:1003D000596911EA02001DD19D89611B89B2A1F5FD
:1003E0006072551F1FFA85FC40F2AE45AC450E4ABF
:1003F00007D8107807280CD80C4D25F810100130BC
:1004000003E040F6C415A94201D9107001E00920AB
:1004100010709C815A68116A586980EA010313625E
:1004200030BD00BF8C26002030280020400C00206A
:1004300010B500231A46C45C06495C540133A21867
:100440002C2B92B2F7D1044B81F82C20002018708D
:1004500010BD00BF782800204826002010B50E48A7
:100460000378012B12D10D480D4A0E4B006812681B
:10047000DB6881188B420CDC821A47F2305C47F251
:10048000CC449342B4BF2046604610BD47F2305082
:1004900010BD47F2945010BD8C2900207C0C002028
:1004A000100C00201028002005F0FEBB244A254B2C
:1004B000106040F2DC514FF47A7219605960996013
:1004C000DA601A615A619A61DA61002307E001215A
:1004D0001D4A03EB010C42F823105FFA8CF38342B0
:1004E000F5DB1A4B40F2DC5119605960996000232A
:1004F00008E0174A02EB83014FF07E5C5A1CC1F8FA
:1005000000C0D3B28342F4DB002308E0114A02EBBF
:1005100083014FF07E5C0133C1F800C0DBB283423F
:10052000F4DB002308E00C4A02EB83014FF07E5C11
:100530000133C1F800C0DBB28342F4DB704700BF77
:10054000AC2900201028002058280020D4290020A1
:10055000602B0020042A00206C2600200849094B4B
:1005600051F8202053F82010531A00EE103ADFED16
:10057000067AB8EEC07A67EE276A16EE900A7047E0
:1005800010280020D42900200BD7A33B2A4B07EECC
:10059000101A196801EE101AD2ED040AB8EE410AD9
:1005A00007EE900A254830EE606ADFED256A037891
:1005B00086EE265A82ED040A77EEC75A33B1D2EDA1
:1005C000051A45EE851AC2ED051A01E000205061BA
:1005D000D2ED066A92ED056AF1EE667AB4EEE76A4C
:1005E000F1EE10FA08D4B4EE666AF1EE10FACCBF60
:1005F000F0EE667AF0EE467AD2ED034A92ED024AC8
:1006000077EE643ADFED0F2A63EE843A65EE222A34
:1006100092ED013AC3EEA22A82ED037A92ED007ABE
:10062000C2ED057A67EE837A45EE877A37EEA22A25
:1006300012EE100A704700BFCC260020AC27002025
:10064000002474490000C8420C490D4B086807EEAD
:10065000100AF8EE477A00225A61C3ED047A1A6351
:10066000C3ED0B7ADA64C3ED127A9A66C3ED197A98
:10067000C3F88420C3ED207A704700BFCC26002049
:100680002C2A002091ED005A9FED203A05EE900AA9
:100690009FED1F2A65EE037A45EE827AD1ED014A7D
:1006A000DFED1C2A44EEA27A91ED024A44EE037A71
:1006B000D1ED031A41EE827A91ED047A9FED161A7C
:1006C00047EE017AD1ED056ADFED140A46EEE07AD5
:1006D00091ED066A9FED120A46EE007A91ED073A17
:1006E000DFED103A43EE637A086081ED034AC1ED15
:1006F000024A81ED015A81ED076AC1ED066A81ED7A
:10070000057AC1ED047A17EE900A7047D58111BBC6
:100710007932F83A1A1B5E3B382F5740200B89403C
:100720000A771C404CF3063F0D4B0E4A0020186020
:1007300058609860D860186158619861D8611862F3
:1007400058629862D862186358639863D8631A64D1
:100750005A649A64DA641A655A659A65DA6570476C
:10076000FC2800206DE71CC14160704710B50446AD
:1007700005F00CFE204605F0B1FE01462046FFF7CD
:10078000F3FF00232372204610BD2DE9F0410446FB
:100790000D460079012117461E4605F093FF20798A
:1007A000002105F039FF204629463A463346BDE888
:1007B000F04105F011BEF8B504460D460079002160
:1007C0001F46164605F07EFF207A60F07F031D432A
:1007D000E9B2204605F079FE3D4606E020460021BC
:1007E00005F073FE06F8010B013D002DF6DC2079C3
:1007F0000121BDE8F84005F065BF07B501230DF103
:100800000702FFF7D8FF9DF807000EBDF8B50446B4
:100810000D46007900211F46164605F053FF237A46
:100820001D43E9B2204605F050FE3D4605E0204656
:1008300016F8011B05F049FE013D002DF7DC20797B
:100840000121BDE8F84005F03DBF07B502AB03F854
:10085000012D1A460123FFF7D9FF0EBD08B5034845
:10086000052101220323FFF790FF08BDF028002097
:1008700010B5054C204605F0CDFD012120460A4665
:100880000323FFF782FF10BDF028002008B50346C0
:100890000A4604481946FFF7D8FF0120BDE8084082
:1008A00005F0AEBEF028002010B501460448FFF761
:1008B000A4FF0446012005F0A3FE204610BD00BFA2
:1008C000F0280020254B10B51C78002C44D10122C3
:1008D0001A702348234905F024F8FFF7BFFF75205D
:1008E000FFF7E2FF00F07E0068282FD11E4B18684A
:1008F00040F0030119601A481C4905F012F88021E4
:100900006B20FFF7C3FF642005F07AFE6A201021F8
:10091000FFF7BCFF6B200321FFF7B8FF6C202146D7
:10092000FFF7B4FF19202146FFF7B0FF1A2003217B
:10093000FFF7ACFF1B201021FFF7A8FF1C200821A8
:10094000FFF7A4FFBDE81040FFF792BF0448084935
:10095000BDE8104004F0E5BF10BD00BFB82800207E
:10096000202C0020153F0208842B00202E3F020877
:100970003C3F020801EBD171491004E00378427852
:1009800043700270023011F1FF31F7D2704700005E
:1009900010B5064C06483B2122460E23FFF70BFFFD
:1009A00020460E21BDE81040FFF7E4BF502B002089
:1009B000F0280020074810B5074C016822684B1C3E
:1009C0009342036004D0FFF7E3FF23685A1C2260C0
:1009D00010BD00BFB0280020B026002010B5074C85
:1009E0000748216802684B1C9342236004D0FFF73C
:1009F000CFFF23685A1C226010BD00BF882700204B
:100A0000B0260020024A034B1A60FFF75BBF00BF0D
:100A100058A00B3A982B002008B5FFF7BBFC124BEF
:100A2000DFED127A93ED027AB4EEE77AF1EE10FA86
:100A30000F4B06DC9FED0F0AB4EEC07AF1EE10FA10
:100A400010D519680C4A411A01EE901A9FED0B1A45
:100A5000F8EE616AD2ED000AC6EE816A47EE260A18
:100A6000C2ED000A186008BDC428002035FA8E3C8B
:100A7000A429002035FA8EBC5C260020002474498D
:100A800010B5FFF7ABFF0D4B0D491C68B1F908001D
:100A90000C4A24181C6010605C68B1F90A00B1F9B6
:100AA0000C10506020185860986891604118996047
:100AB000054B1878421C1A7010BD00BFA02B0020F7
:100AC000502B00207C290020A82900207FB51F4B37
:100AD0001F4D1A6895F800C0596892FBFCF41D4A36
:100AE00092E84100241A91FBFCF0301A9E6891684C
:100AF000019496FBFCFC0022CCEB01011A605A60C9
:100B00009A602A7001EE904A134A144B029000EE4C
:100B1000900A06EE901AD2ED007AB8EEE11AB8EE1D
:100B2000E00AB8EEE67A21EE271A20EE270A67EEF1
:100B3000277A039183ED001A83ED010AC3ED027A4F
:100B400004B0BDE87040FFF767BF00BFA02B0020D6
:100B5000A829002090290020982B0020C4280020DC
:100B6000F0B5124DB3B000241CE0FFF711FF104B9D
:100B70000CB91B8903E0012C0CBF5B899B8901AF79
:100B80001BB2F3510A20043605F03AFDC42EECD115
:100B90003121384603F050FF0134E4B2032C45F80C
:100BA000040F01D00026E0E733B0F0BD8C2900200F
:100BB000502B0020FFF786BE08B5FFF7FBFE0C4B5D
:100BC0000C4A1868B2F900C000EB0C0119605868B3
:100BD000B2F90210B2F904C09A68401802EB0C0195
:100BE00058609960044B1878421C1A7008BD00BF09
:100BF00000280020502B002072270020F0B5114A59
:100C0000114C17781148124900231646114D5A59B4
:100C100092FBF7F200EE102A04340430F8EEC06ABA
:100C200094ED007AD0ED007A46EE877A002217EE36
:100C300090CA5A5104330C2B41F804CFE6D13270DC
:100C4000F0BD00BF7227002030280020B02B00200C
:100C5000402B00200028002010B5002408E0FFF7FA
:100C600097FEFFF7A9FF40F6C41005F0C3FC01345E
:100C7000B4F5C87FF3D1204820490023204C1A59ED
:100C800000EE902A9FED1F0AB8EEE07A043087EE5E
:100C9000007AD0ED007A67EE277A17EE902A41F8B5
:100CA000042F00221A5104330C2BE7D11649174B9D
:100CB00017481A7091ED022ADFED162A72EEC21A59
:100CC000D1ED004A32EE211AD1ED013AB5EEC01A4B
:100CD000F1EE10FA104BB1EE644AB1EE633AD8BFB0
:100CE000B1EE411A80ED004A80ED013AC0ED021AE2
:100CF00083ED001A10BD00BF30280020402B0020DB
:100D0000002800200000C843442B00207227002048
:100D1000B42B00206DE71CC19C290020184B93EDDB
:100D2000007AF7EE007AB4EE677AF1EE10FA0ED19F
:100D300093ED017AB4EE677AF1EE10FA1FD193EDDC
:100D4000020AB4EE670AF1EE10FA13D07047B5EE5E
:100D5000407AF1EE10FA12D1D3ED017AF5EE407A35
:100D6000F1EE10FA0BD1D3ED020AF5EE400AF1EEE6
:100D700010FA04D1034A04485A6018609A60704718
:100D800034280020C6F99BBAC6F99B3A10B5462014
:100D9000002105F041FC0024462004F0010101344B
:100DA00005F090FCE4B2322005F02AFC0A2CF3D1C5
:100DB0004520002105F030FC4520002105F082FC93
:100DC0004520002105F028FC4520002105F07AFC93
:100DD0002020032105F020FC0020014605F01CFC2A
:100DE0000020014605F06EFC1020032105F014FCE4
:100DF0002420032105F010FC1120032105F00CFC38
:100E00002520032105F008FC2220032105F004FC25
:100E10002320032105F000FC0848094904F081FD66
:100E200017210848162205F03DFDFFF777FF03481C
:100E30000549BDE8104004F074BD00BF202C00201F
:100E40004E3F0208242C0020973F0208322290FBDC
:100E5000F2F101F00101462005F034BC38B5094D2E
:100E6000094C2A682068131AB3F57A7F09D3FFF773
:100E700007FEFFF7A1FE054B1868FFF7E7FF29689B
:100E8000216038BDCC260020D0260020502800202C
:100E90000448054A00230360436083601360536085
:100EA000704700BFD4280020F42900202DE9F84F16
:100EB0002DED068BDDED108A08EE103A68EEA82ABB
:100EC00048EE082A9DED119ADDED127A49EE092AC5
:100ED000B6EE003A27EE833ADFF83092864C874F21
:100EE000874D884EDFF828A2DFF828B2DFF8288285
:100EF00089ED003A09EE900A12EE900A0AEE902A65
:100F00000AEE101A0EF02AFC10F090F80EF05CFFBA
:100F100002EE100A88EE825AD8F80000C9EE023AB2
:100F2000D4ED000A97ED006AD5ED006A96ED000A4F
:100F300066EE261A26EEA01A50EE201A06EE001AC9
:100F400020EE000A16EE060A88EE024A06EEE60ACF
:100F500000EEA00A71EE015A20EE058A15EEA38A72
:100F6000DAED007A9BED007A48EE077A71EEA14A3D
:100F700025EE849A64EEA38A18EE101A50EE048AC5
:100F800014EE859ACAED007A03F072FD434610B163
:100F90000022CAF80020DFF88491DFF88481D9EDBF
:100FA000004A9BED007A48EE874A83ED008AC9ED3E
:100FB000004AD8F8000018EE901A03F059FD434695
:100FC00010B10020C9F80000DFF858819BED004AFD
:100FD00098ED005A09EE045ADFF84CB1C3ED008ACF
:100FE00088ED005ADBF8000019EE101A03F040FDFE
:100FF00043465A4608B10021196082ED009A424AE0
:10100000D2ED000A40EE89AA40EE889A00EEA8AA26
:10101000D3ED003AD9ED006A9AED006A7AEEA3AA00
:10102000D5ED004A3AEE26AA97ED007A79EE869A37
:1010300096ED005A64EEAA5A24EE8A0A47EE295A1F
:1010400094ED001A15EE690A41EE4A5A2F4B25EE2F
:101050002A4A01EE6A0A17EE0A4A93ED003AF0EEC8
:10106000452A65EE0A7A45EE832A01EE294AB0EE5A
:10107000472A47EE2A7A00EE032AF0EE641A44EE7D
:10108000E97A44EE031A22EEA26A02EE026A07EE41
:10109000831A01EEA16A01EE016A87ED002A16EEBD
:1010A000100AC6ED002AC5ED001A84ED001A0EF0F4
:1010B00055FB0FF0BBFF0EF087FED7ED006A05EE83
:1010C000900AD6ED000AD5ED003A94ED000AC6EE7E
:1010D000A56AC0EEA50AC3EEA53AC0EE255AC7ED33
:1010E000006AC6ED000AC5ED003AC4ED005ABDEC39
:1010F000068BBDE8F88F00BFF0270020E427002012
:10110000EC270020E8270020A82800204028002005
:1011100088290020542800207C27002078270020E0
:101120008027002008270020842700202DE9F8438D
:101130003C4C3D4E3D4D3E4F2DED048BD4ED005AC1
:1011400096ED008AD5ED007AD7ED008A68EE255A33
:1011500048EEA75AB7EE009A35EEA55A15EE100ADA
:101160000EF0FCFA68EE084A48EEA84A804634EED3
:10117000A44A894679EE443A13EE900A0EF0EEFA4C
:1011800002460B46404649460FF05AFD0EF01CFE43
:1011900097ED006AD4ED002AD5ED006A96ED003A8D
:1011A00066EE222A56EE832ADFF8888032EEA22AE3
:1011B000C8F8000012EE100A0EF0D0FA0FF0ECFCA6
:1011C0000EF002FED6ED008AD7ED001A95ED007AFA
:1011D00094ED008A68EEA11A48EE071AC8F80400D8
:1011E00031EEA11A11EE100A0EF0B8FA68EE080AF4
:1011F00048EEA80A044630EEA00A0D4679EE407A81
:1012000017EE900A0EF0AAFA02460B46204629462F
:101210000FF016FD0EF0D8FDC8F80800BDEC048BE9
:10122000BDE8F883F0270020EC270020E427002009
:10123000E8270020D428002008B5FFF729FE0F4B2F
:101240000F491048104A4FF07E5CC3F800C00023DD
:101250000B60036013600D490D480E4A0B6003607C
:1012600013600D490D480E4A0B60036013600D4872
:101270000D490E4A0E4B08601A6008BDE427002095
:10128000E8270020EC270020F027002088290020F4
:1012900078270020082700207C27002080270020B6
:1012A00084270020CDCC4C3EA82800206F12033AA2
:1012B000542800201FB5DDF818E0DDF81CC0074CED
:1012C000CDF800E0CDF804C024680294FFF7EEFDED
:1012D00004B0BDE81040FFF729BF00BF840C002018
:1012E000F8B5244D29600C68561EB100012707FA95
:1012F00001F704F1340E7B000EEB01026C60AA6072
:101300002E616B612868007903F0C2FE1A4AB0FBB7
:10131000F2F14B1E00224FF6FF70A362E0622260E2
:10132000E16821F00103E360206A20EA07022262FB
:10133000236A6969012E23EA01032362D4BF04F101
:10134000180304F11C0306F001001968C000FF2215
:1013500002FA00FC21EA0C061E601A68612101FAFB
:1013600000F616431E60206A0123074327622360AC
:10137000F8BD00BF8C26002040420F0038B50F4C4E
:101380000F4BD4F8F45308221A70ADB1D4F8F0031F
:1013900094F8FC130A2203F083FC294694F8FD23F9
:1013A00040F2DC50FFF79CFF94F8FD13054A2846F5
:1013B000BDE8384003F094BF38BD00BFD419002009
:1013C00030280020C503010808B5FFF76FF8BDE815
:1013D0000840FFF7D3BF00000249034B0A5C33F813
:1013E00012007047B8400208400C002038B50024B5
:1013F00033E02046FFF7F0FF2D4902EE900A2D481A
:10140000A300CA18C11892ED007A91ED002AF8EEF7
:10141000E26A294A294906EE872ACB18FDEEC21A4C
:1014200011EE900A42F8240055F8242001EE102A0B
:10143000F8EEE17AF8EEC10A17EE900A10EE901A73
:101440001A6803F0E1FA00EE100ABDEEC06A16EE6B
:10145000100A45F824000134E4B2194D2A68194DE8
:101460009442C6DB184C94ED007A00231749EC58DF
:1014700058581749241A05EE104A04EE900AB8EE9F
:10148000C54AF8EEE43A44EE073ABDEEE33A13EE0D
:10149000100A585004330C2BE8D1032305E055F80B
:1014A000230041F823000133DBB29342F7DB38BD60
:1014B000602B0020042A0020142600206C26002027
:1014C000AC2900205828002010260020D429002014
:1014D000102800200C224243054B10B59C1899504F
:1014E000044A02EB0111486860604B7B237210BD17
:1014F00010270020D419002070B50A4C0A4E002590
:1015000009E056F8042F54F80C0C14F8081C92B299
:10151000FEF734FF0135054803680C349D42F0DBCB
:1015200070BD00BF14270020DC260020AC2B00205B
:1015300070B50646084C002507E054F80C0C14F86A
:10154000081CB2B2FEF71AFF0135044803680C34D8
:101550009D42F2DB70BD00BF14270020AC2B0020A1
:10156000F8B51F4F1F4E0728C8BF08203860354602
:1015700000241BE01C4A2046115DFFF7ABFF55F825
:101580000C0C007903F084FD184955F80C3CB0FBB5
:10159000F1F21B68511E88B240F6C4129862DA62FA
:1015A00015F8100C072105F037F8013439680C35AF
:1015B0008C42DFDB002309E056F80C0C0268500176
:1015C00000F184420120C2F880021B180C368B42C5
:1015D000F2DB4FF47A70BDE8F840FFF7A9BF00BF17
:1015E000AC2B0020142700200D3F020840420F00C2
:1015F00038B5054600240FE040F24C40FFF798FF55
:10160000FA2004F0FDFF4FF47A70FFF791FFFA2003
:1016100004F0F6FF0134E4B2AC42EDD138BD000075
:10162000044901EB800393ED000AFDEEC07A17EE4A
:10163000900A7047B4260020044901EB800393ED23
:10164000000AFDEEC07A17EE900A7047A42600202B
:10165000104838B500680EF081F80F4B0446186842
:101660000D460EF07BF802460B46204629460FF049
:10167000E7FA0EF0A9FB07EE900AF5EEC07AF1EE5C
:1016800010FA44BF9FED057A77EE877A17EE900A3D
:1016900038BD00BFC4270020C0270020DB0FC94091
:1016A000044905488A6808B50260FFF7D1FF034B7B
:1016B000186008BD90290020E82800205C26002042
:1016C00010B52DED028BFFF7C3FF9FED438A07EEA8
:1016D000100AB4EEC87AF1EE10FA06DD0EF03EF80C
:1016E00039A3D3E900230FF0ADFA3C483C4A8168A6
:1016F00013683C4C8B423C4B04D0D4F800C01160C2
:10170000C3F800C018680EF029F831A3D3E900230C
:101710000FF098FA0EF058FB07EE900AF5EEC07A3B
:10172000F1EE10FA08DDC7EE880ABDEEE00A10EE11
:10173000101A012930D10AE0F1EE671AC1EE881AB9
:10174000BDEEE11A11EE102A012A25D114E00EF0A7
:1017500005F81DA3D3E900230FF074FA02460B46E7
:1017600019A1D1E900010DF099FE0EF02DFB07EE55
:10177000100AF1EE477A0FE00DF0F0FF12A3D3E963
:1017800000230FF05FFA10A3D3E900230DF088FEC9
:101790000EF01AFB07EE900A1449154891ED002A45
:1017A00090ED008A67EE828AFFF752FF07EE900AFB
:1017B00048EE278A0F4BC4ED008AC3ED008ABDECCA
:1017C000028B10BDAFF3008000000060FB210940D8
:1017D00000000060FB211940DB0F494090290020E8
:1017E000E8280020002A00205C260020780C002039
:1017F000942700207427002010B5044603F0CBF88E
:1018000001EE900AB8EEE11A84ED011A03F0C3F874
:10181000404200EE900AB8EEE00A84ED020A03F0BE
:10182000BAF807EE100AF8EEC77AC4ED007A10BDD8
:10183000F8B54A4D4A4C2DED088B07460E461E2042
:10184000032103F08BF81E210622464805F0A6F876
:101850002846FFF7D1FF1E200221012203F0BCF829
:10186000414B42484249434A95ED004AD0ED004A77
:10187000D3ED009A95ED013A44EE249AD0ED013A69
:1018800093ED019A95ED022AD0ED022AD3ED028A5A
:1018900003EE239A42EE228AC1ED009A3649C2ED48
:1018A000008A84ED009AC1ED028A3846C1ED009AA3
:1018B00081ED019A0DF052FF04460D460FF0DEF85F
:1018C0000EF082FA29460BEE100A20460FF018F9A6
:1018D0000EF07AFA0AEE900A30460DF03FFF044609
:1018E0000D460FF0CBF806460F46204629460FF06E
:1018F00007F90EF069FA39460AEE100A30460EF082
:1019000063FA69EE2A1A01EE100A21EE8A8A09EEBC
:10191000818A68EE8B0A68EEAA8A59EE0B8A00EE7D
:101920008A8A28EEA80A08EE080AF1EE688A10EE04
:10193000100A0DF013FF0FF079FB0EF045FA07EED9
:10194000900A88EE277A0D480D4BC8EEA77A80EDF5
:10195000007AC3ED007ABDEC088BF8BDB4260020F8
:10196000CC270020242C0020D42700202C0C002081
:10197000C8270020D0270020A4260020C027002050
:10198000C42700200A2008B504F03AFE1E2003F008
:1019900007F8102804D10D4B186840F004021A60B3
:1019A000012120221E2003F017F8142004F028FE45
:1019B00002211E20012203F00FF8142004F020FE63
:1019C00000200146BDE80840FFF732BF842B00200D
:1019D0000548064B90ED007A93ED000A77EE407AC9
:1019E00017EE900A704700BFC0280020D8260020BC
:1019F00008B5FFF7EDFF00EE100AFDEEC07A084BC8
:101A000017EE900A1A6800F5FA70904201DD18602E
:101A100008BD044B19688842B8BF186008BD00BFF4
:101A2000880C0020200C002030B5C489002224F04E
:101A3000FF03C3811346511012F0010F15BF10F8B8
:101A4000111030F811104B4083EA1123082113F4D0
:101A5000004F4FEA43031DBF83F440554FF6FE731A
:101A60002B409BB20139F2D10132102AE3D1C4815B
:101A7000180B30BD70B5124D0646A02430462146E5
:101A800002F06CFF02220F48314604F087FF022863
:101A900013D102F077FF0234E4B2B02C25F8020F24
:101AA000ECD1094C2046FFF7BFFFE28902F00F019D
:101AB000431A584240EB030070BD002070BD00BFC8
:101AC000AE290020242C0020B02900201E2102F085
:101AD00045BF000010B50021044602F03FFF03227D
:101AE00021460B4804F05AFF094804F06AFF032816
:101AF0000BD102F045FF044602F042FF000240EA2B
:101B0000044402F03DFF204310BD002010BD00BF83
:101B1000242C00207620582102F020BF2DE9F84324
:101B20007620FFF7D7FF1849184A8B884C89106038
:101B30004FEA034824020B89154D041BA3FB0467DD
:101B40004FEAE47C03FB0C77F20942EA4762FB119F
:101B50004FF0000912EB080243EB0903C5E900232B
:101B60004B88DE03CB880B49A3FB044503FB0C55D4
:101B7000220A42EA056200272B12921943EB07035F
:101B8000C1E90023BDE8F883B0290020D028002057
:101B9000F8270020382600207620482102F0DEBEFB
:101BA00038B57620FFF796FF124B134918600B6883
:101BB0004968C217414303FB0212A3FB00010F4B0C
:101BC0005118D3E90023440D44EAC1244D15A21A4B
:101BD00065EB0303900A40EA835099120EF014FA61
:101BE000DFED077A06EE900A66EEA76A16EE900A17
:101BF00038BD00BFE027002038260020F82700204D
:101C00000000003D38B5164C23782DED028BF3B162
:101C1000144D95ED008AFFF7C3FF07EE900A1249B5
:101C200038EE278A85ED008A0D786A1C0F4D0A7000
:101C30002878142805D1FFF76DFF00232B7023703F
:101C400001E0FFF7A9FF2A78501C287005E0FFF794
:101C500065FFFFF7A1FF01212170BDEC028B38BDAC
:101C60008C2700209C2B0020712700204926002073
:101C7000F8B52D4D2B78002B51D006EE903A2B4C19
:101C80002B4B94ED007AF8EEE67AC7EE277A9FEDBB
:101C9000297AC7EE876AC3ED007A16EE900A0DF036
:101CA0005DFD254B064618680F460DF057FD0246B0
:101CB0000B46304639460FF01FF802460B4600200F
:101CC0001E491F4E0DF0EAFB15A3D3E900230DF0CA
:101CD00099FD0EF079F81B4B18601B4B197819B160
:101CE000002230601A7005E0184B31681A6802F063
:101CF0008BFE306000222260154C20780021297074
:101D000068B9FEF747FB13490B68C3EB000C124898
:101D1000844504D93068114B012218602270F8BD47
:101D20000000000040A5E540712700209C2B00200A
:101D3000BC28002080E6C5471C0C00200000F03FB6
:101D4000C0280020E0280020140C0020000C0020F7
:101D5000E4280020242A002080969800D82600201D
:101D600008B5FFF74FFFBDE80840FFF781BF00004F
:101D700010B52DED028B9FED0C8A1924FFF7F0FFB3
:101D80000A4BD3ED007A0C2038EE278A04F038FC99
:101D9000013CF3D1B3EE090A88EE000A044880ED55
:101DA000000ABDEC028B10BD00000000E0280020FE
:101DB000D826002010B5FEF7EDFA1A4C1A4920601B
:101DC0001A4A1B4B1B4C1A600020086020607620CA
:101DD000FFF77CFE032004F013FC7620FFF74AFE99
:101DE00020B1154B186840F008021A60FFF792FE08
:101DF0001249134800230B7003700A2004F000FC02
:101E0000FFF700FF0A2004F0FBFBFFF7A9FF0A2001
:101E100004F0F6FBFFF7ACFFFFF7AAFF2168094AC1
:101E2000116010BD242A0020BC280020AEDC423EF8
:101E30001C0C0020D8260020842B00208C2700209A
:101E400049260020C028002007EE100A9FED0B0A4B
:101E5000DFED0B6A27EE001A27EE267AFCEEC10AA8
:101E600027EE000A10EE900AFCEEC07A0549064BF8
:101E7000088017EE902A1A80704700BF0000C84201
:101E8000CDCC8C3F6C0C0020240C002009490B7831
:101E900083420ED90849182202FB00104FF49663C2
:101EA000C38042F2AC61002300220181038242829E
:101EB0004361704770270020540C0020084B182203
:101EC00002FB0033587850B9D888B0F5FA7F05D3B3
:101ED000B0F5577F2CBF03200220704701207047C8
:101EE000540C002010B50446FFF7E8FF064A1821FD
:101EF00001FB04230549DB880A8850438342ACBFB9
:101F00000020012010BD00BF540C00206C0C0020EC
:101F100010B50446FFF7D2FF064A182101FB04233F
:101F20000549DB880A8850438342ACBF002001206A
:101F300010BD00BF540C0020240C00202DE9F843F4
:101F40002E4B2F4F2F4C002581461D703D7098461B
:101F50004EE0207804F040FBB4F90260B4F804C00D
:101F60002289464344BF06F57E661F360CEB2631B8
:101F700088B2824288BF2081E080A07AFF2827D0E3
:101F800004F02AFBB4F90C60E28946430A235E435D
:101F900044BF06F57E661F360A214A4302EB263C03
:101FA000B4F91230A4F810C00FFA8CF0B4F9106034
:101FB00062698342B8BFA4F812C009FB06F05B2136
:101FC000484344BF00F5FE40FF3002EBE03363615D
:101FD000EEB23046FFF786FF10B1012088F800000E
:101FE0003046FFF795FF08B101223A7001351834E9
:101FF000054B19788D42ACDBBDE8F883A0290020A1
:10200000A1290020540C00207027002038B5094C6D
:1020100020700846FFF718FF002503E0E8B2FFF73D
:1020200035FF013523789D42F8DB0020BDE83840BC
:10203000FFF784BF702700200D480E490E4A0F4B52
:1020400070B50468086811681A680D4BC0EB040C81
:1020500020180CEB0106C1EB0C054418411AB61A06
:10206000AD18A4188A1A1E605D60DC609A6070BDAD
:10207000500C0020DC260020882B0020E0290020C6
:10208000E02600202DE9F041284F294C294DFFF78B
:10209000EFFD3B78012B44D1274EFFF799FCD6F892
:1020A0000080264A01464046FEF770FA00EE100A0C
:1020B0002349FDEEC07A0B6817EE900A984204DBC4
:1020C000204A13689842B8BF034613F57A7F28D098
:1020D0001D491E480A68E9680068551A002DB8BFF6
:1020E0006D42854202DD0220387018E0184D2868E4
:1020F0001518A94207DD96ED007A9FED161A77EEC6
:10210000010AC6ED000AC0EB020C614507DAD6ED04
:10211000002A9FED102A72EEC21AC6ED001AD318DB
:1021200000E0EB682360BDE8F08100BF8C2900204F
:10213000500C002010280020AC2800200C2B002080
:10214000380C00203C0C00207C0C0020040C0020EB
:10215000100C00200AD7233C2DE9F0472DED028B0F
:102160003D483E4C03783E4E3E4D012B46D1DFF8B4
:102170001C91DFF81C81D9F80020D8F80070D11B21
:1021800003EE101A9FED388AF8EEC32A374F384A0B
:10219000396822EE882A12EE100AFEF7F7F9D8F80D
:1021A00004307A688246D9F80400C3EB000C01EED3
:1021B00090CAB8EEE11A82F0004121EE087A2D4A69
:1021C00017EE100AFEF7E2F921682B4A074650463F
:1021D000FEF7DCF900EE900A6168284AFDEEE07A2D
:1021E000384681F00041C6ED007AFEF7CFF900EEE7
:1021F000100AFDEEC06AC5ED006A28E0204F0020FD
:10220000FEF7ACF9D4ED000AD7ED007A20EEA70A6C
:102210001C4A10EE101AFEF7B9F906EE900ABDEE50
:10222000E66A012086ED006AFEF798F994ED015AFE
:10223000D7ED005A65EE654A134A14EE901AFEF780
:10224000A5F904EE100AFDEEC43AC5ED003ABDEC66
:10225000028BBDE8F08700BF802B0020C42800203F
:10226000882B0020DC260020A69BC43AD42800201E
:10227000802A00209C2A0020D42A0020F02A002056
:10228000180C00202C2A0020482A002010280020AA
:10229000D42900201B4B1A781B4B032A0CD0052A8B
:1022A00019D0012A0CBF4FF4FA624FF47A721A6007
:1022B0005A609A60DA6023E014480268B2F5966FBB
:1022C000B4BF11464FF49661B2F57A7FACBF0A46AF
:1022D0004FF47A72EBE700220D495158B1F57A7F3D
:1022E00005DBB1F5966FA8BF4FF4966101E04FF49E
:1022F0007A7199500432102AEED1064B01221A70DD
:10230000FFF7FAB8EC280020E0260020280C002077
:10231000B02700208C2B0020074A1368B3F57A7F82
:1023200005DB40F23A718B42A8BF0B4601E04FF447
:102330007A731360704700BF500C0020154A164B8B
:10234000106816494FF4FA6210B59A60DA601A60A4
:102350005A60134B086048608860C86093E80600C4
:1023600098689142B8BF1146DA688142B8BF014609
:102370009142B8BF11460022B1F5FA6F05DD9C58B5
:10238000C1F5FA6C04EB0C0098500432102AF3D11A
:1023900010BD00BF98270020C42900204C26002033
:1023A000E0260020F8B55C485C4E03785C4C012BBD
:1023B0007ED15C4A5C495D4B92ED007ADFED5C7A40
:1023C0005C4A67EE277A9FED5C6A92ED007A77EEC1
:1023D000465A77EEC76AF4EEE57AF1EE10FAC1EDEF
:1023E000007AC3ED006A05D89FED540A76EE806A44
:1023F000C3ED006A77EE060AF4EEE07AF1EE10FA29
:1024000007DB93ED002ADFED4D1A32EE611A83ED02
:10241000001AF06840F24C4C604542DD3F4881684C
:10242000A1F5B860C11E32290ED945490023C2ED7D
:10243000007AC1F8A030434A43492360002010705D
:10244000424B0A681A6033E093ED007AF5EE002AF9
:10245000B4EEE27AF1EE10FA06D5BDEE003AB4EE33
:10246000C37AF1EE10FA1EDC3649384D0878364F43
:1024700068B93B682F683648DF1B874218D90120AE
:10248000C2ED007A002208702B60226010E017EE87
:10249000101A00202F4AFEF779F839682060296069
:1024A00006E0C2ED007A264A00232360C2F8A0307D
:1024B000294BB2689968501A07EE900AD4ED004A89
:1024C000F8EEE73ADFED257A9FED254A64EEA77A2C
:1024D00043EE847A9FED237AF4EEC77AF1EE10FA98
:1024E0000BD49FED215AF4EE457AF1EE10FACCBFF1
:1024F00015EE100A17EE900A01E017EE100A1B49BC
:102500001B4A8968FEF742F805EE900A1948BDEEAD
:10251000E56A80ED006AF8BD04270020102800203D
:102520004428002074270020D4260020F029002011
:10253000E12E6542A8270020000034430000B44388
:102540002C2A00200C270020CC260020B4280020B4
:1025500020A10700B82A0020D429002035FA8E3C9B
:102560000BD7A33BDB0F49C0DB0F4940C428002039
:10257000642A0020E0290020F8B5FFF7EDFDFFF701
:1025800011FF28480368DA0703D4FFF77BFDFFF744
:10259000C3FE254C217821B1244D2A780AB1FFF7DA
:1025A0004BFDFFF7CBFE224B2249D86840F24B4C43
:1025B000604501DD002315E01F4A204E204F1268C0
:1025C00036783D780023CA502EB1002D14BF104636
:1025D0004FF4FA6000E010461A4FD8510433102B24
:1025E000F1D1E7E71848CA581D58954204DB154A4F
:1025F0009A589542B8BF2A46C2500433102BF1D1E5
:10260000217809B9FFF746FE2078012809D1074B48
:1026100093F800E0BEF1010F03D1BDE8F840FEF7EA
:102620006BBFF8BD50280020402600208C2B0020D6
:10263000102800204C26002098270020AC270020DE
:10264000802B0020C4290020E026002038B585B268
:102650002946074802F053F90024A91C60F30F042F
:1026600089B2034802F04BF960F31F44204638BD9D
:10267000C02B002038B504468DB22946A2B20548C9
:1026800002F045F9A91C034889B2220CBDE8384084
:1026900002F03DB9C02B00200B4A38B51C2404FBC6
:1026A000002408460D46FFF7D1FF2060281DFFF7E4
:1026B000CDFF606005F10800FFF7C8FF0023A060B0
:1026C000E360636138BD00BF2C2A002038B5094B98
:1026D0001C2404FB00340D462068FFF7CBFF606824
:1026E000291DFFF7C7FFA06805F10801BDE83840C4
:1026F000FFF7C0BF2C2A0020514B52484FF08141B8
:1027000070B5596519675049504E1860D861C3F8C3
:10271000A800C3F8C4004FF07E504D4D4D4C0860EA
:102720004D499E605E62C3F8B060C3F8CC604B4E0A
:102730009D63C3F88C40C3F8E010494CC3F8F8100F
:10274000484D4949C3F8E46000226FF03106C3F8F0
:1027500090405A601A629A65DA655A679A67DD6333
:102760001A64C3F89420C3F8AC20C3F8C820C3F897
:10277000E820C3F8FC20C3F80021C3F804210E6050
:102780003A4932260E603A490C603A495A260E60A0
:10279000394EFA243460394E394C00213160716071
:1027A000B1603849384E0A604A608A603749206013
:1027B00030600A606060A0607060354C4A60B06054
:1027C0008A60344E344926609E615E631E65DE6613
:1027D000C3F88860C3F8A460C3F8C060C3F8DC60C5
:1027E000C3F8146108602D4E2D492E4B40F27E44F3
:1027F000346019602C4E2D4C2D490823013BDBB26F
:1028000046F8040F44F8042F41F8040F002BF5D1CB
:10281000284829490370294B294801221A704FF092
:102820007C5C284AC1F808C027490260274B284829
:102830000D604EF6602240F2AA511960026070BD30
:102840002C2A00200000C842180C0020000096C36B
:1028500000004843000040400000C8419A99193FD9
:10286000CDCCCC3D0000A040380C00203C0C00201A
:10287000000C0020100C0020040C002090290020E7
:1028800034280020B42B00202C0C0020D42700205A
:102890004426002000007A441026002098270020BB
:1028A0000AE81CC19C2900205C2B0020002A002083
:1028B00068260020802B00206C26002004270020A2
:1028C000080C0020B81E55400C280020700C002079
:1028D000800C0020002070B50146FFF7DDFE0120CE
:1028E0002421FFF7D9FE02201821FFF7D5FE03208F
:1028F0000C21FFF7D1FE04203021FFF7CDFE05208B
:102900003C21FFF7C9FE06204821FFF7C5FE5421F0
:102910000720FFF7C1FE4FF4A070FFF797FE614C50
:10292000614E206060210820FFF7B6FE4FF49470DE
:10293000FFF78CFE5D4C5E4DC4F8F8004FF49270CA
:10294000FFF784FE5B4B18604FF49670FFF77EFE36
:1029500000EE100A5848FDEEC07AC0ED007A4FF440
:102960009870FFF773FE07EE100A544AFDEEC76A2F
:102970004FF49070C2ED006AFFF768FE06EE100A91
:10298000FDEEC65A4FF48E70C6ED005AFFF75EFE9C
:1029900005EE100AFDEEC54A0920C5ED004A6C217E
:1029A000FFF77AFE4FF4AE70FFF750FE444E454DF0
:1029B00030604FF4B070FFF749FE28604FF4B270FA
:1029C000FFF744FE70604FF4B470FFF73FFE68609D
:1029D0004FF4B670FFF73AFEB0604FF4B870FFF7EF
:1029E00035FEA8604FF4BA70FFF730FE3649086034
:1029F0004FF4BC70FFF72AFE04EE100A334BFDEED5
:102A0000C43A4FF4BE70C3ED003AFFF71FFE03EE69
:102A1000100A2F48FCEEC32AC0ED002A4FF4807044
:102A2000FFF714FE2B4AA061106060632065E0662A
:102A3000C4F88800C4F8A400C4F8C000C4F8DC00DE
:102A4000C4F814014FF48470FFF700FE02EE100A80
:102A50002149FDEEC21A4FF48670C1ED001AFFF74E
:102A6000F5FD1E4B18604FF48870FFF7EFFD01EE87
:102A7000100AFCEEC10A1A4810EE902A02704FF4B8
:102A80008C70FFF7E3FD174908604FF48A70FFF779
:102A9000DDFD00EE100AFCEEC07A134B17EE900A33
:102AA000187070BD180C0020380C00202C2A002053
:102AB0003C0C0020000C0020100C0020040C002016
:102AC000D42700202C0C0020080C0020700C0020C3
:102AD000800C002044260020982700200C2800208D
:102AE000802B00209C29002004270020F8B572B616
:102AF00000200146FFF7EAFD01202421FFF7E6FD53
:102B000003200C21FFF7E2FD04203021FFF7DEFD5A
:102B100002201821FFF7DAFD05203C21FFF7D6FD42
:102B20007A4E7B4D7B4F06204821FFF7CFFD0720D3
:102B30005421FFF7CBFD30684FF4A071FFF79AFDE9
:102B400008206021FFF7C2FD734A4FF49471D2F858
:102B5000F800FFF78FFD714908684FF49271FFF795
:102B600089FD2C686E4D03EE104AF8EEC32A4FF42F
:102B7000967112EE900AFFF77DFD6A486A4C036871
:102B800002EE103AF8EEC21A4FF4987111EE900A64
:102B9000FFF770FD3E68654F01EE106AF8EEC10A5E
:102BA0004FF4907110EE900AFFF764FD604A614E99
:102BB000116800EE101AF8EEC07A4FF48E7117EE1D
:102BC000900AFFF757FD09206C21FFF77FFD286869
:102BD0004FF4AE71FFF74EFD20684FF4B071FFF770
:102BE00049FD68684FF4B271FFF744FD60684FF427
:102BF000B471FFF73FFDA8684F4D4FF4B671FFF772
:102C000039FDA0684FF4B871FFF734FD4B484FF41D
:102C100080710068FFF72EFD494B4FF482711868F0
:102C2000FFF728FD002404F19C0157F8040FFFF77B
:102C300021FD04F1A00156F8040FFFF71BFD04F17C
:102C4000A40155F8040F0C34FFF714FD602CEAD1F1
:102C50003C4B1A6800EE102AF8EEC07A4FF48471EB
:102C600017EE900AFFF706FD374908684FF48671A2
:102C7000FFF700FD3548037807EE103AF8EE476A93
:102C80004FF4887116EE900AFFF7F4FC304A117881
:102C900006EE101AF8EE465A4FF48A7115EE900AB5
:102CA000FFF7E8FC2B484FF48C710068FFF7E2FC5B
:102CB000FC212948FFF7DEFC284B4FF4BA71186855
:102CC000FFF7D8FC264A116805EE101AF8EEC54A3F
:102CD0004FF4BC7114EE900AFFF7CCFC2148036856
:102CE00004EE103AF8EE443A4FF4BE7113EE900A37
:102CF000FFF7C0FC00204FF4C071FFF7BBFC0020C1
:102D00004FF4C271FFF7B6FC62B6F8BD180C002094
:102D1000100C0020380C00202C2A0020000C002071
:102D2000D4270020040C00202C0C00205C2B002059
:102D30003C0C0020002A00206826002044260020A9
:102D400010260020982700200C280020802B00202F
:102D5000042700209C29002066664640080C0020BD
:102D6000700C0020800C002038B54FF49A70FFF7EB
:102D70006DFC02EE100A204C204DFDEEC21A4FF4FD
:102D80009C70C4ED001AFFF761FC01EE100AFDEE25
:102D9000C10A4FF49E70C4ED010AFFF757FC00EE24
:102DA000100AFDEEC07A4FF48C70C4ED027AFFF782
:102DB0004DFC134B134C18604FF4A470FFF746FC06
:102DC00028604FF4A270FFF741FC20604FF4A87018
:102DD000FFF73CFC68604FF4A670FFF737FC6060BB
:102DE0004FF4AC70FFF732FCA8604FF4AA70FFF705
:102DF0002DFCA06038BD00BF9029002034280020A1
:102E00009C290020B42B002038B5244C244D94ED8F
:102E1000002AF8EEC21A4FF49A7111EE900AFFF7E9
:102E200029FC94ED011AF8EEC10A4FF49C7110EEE2
:102E3000900AFFF71FFCA0681A4C00EE100AF8EE8B
:102E4000C07A4FF49E7117EE900AFFF713FC164BF1
:102E50004FF48C711868FFF70DFC28684FF4A471CB
:102E6000FFF708FC20684FF4A271FFF703FC6868C5
:102E70004FF4A871FFF7FEFB60684FF4A671FFF7EF
:102E8000F9FBA8684FF4AC71FFF7F4FBA0684FF4AE
:102E9000AA71BDE83840FFF7EDBB00BF90290020C4
:102EA00034280020B42B00209C29002070B5494C08
:102EB000494DFEF79BFAE26840F24B439A424DDCE3
:102EC000A06898420DDC454E3378012B09D14FF4B0
:102ED0007A70FEF72DFB424A0020262130702870C0
:102EE0001170A1683B4A40F24B43994215DC1068CF
:102EF00040F26C7C604510DD52689A420DDC384B24
:102F000018211970FDF72CFEFDF7A6FEFFF77CFFD8
:102F1000FDF79AFB0320FEF76BFBA06840F26C7292
:102F2000904213DD2D4B197881B92E480278012A81
:102F30000CD12D491A702A4B40F24C4034220860C3
:102F400048608860C8601A70FDF77EFBA26840F296
:102F50004C4E724502DD234B01201870297851B97F
:102F60001E4A1378012B06D1204AE168106881427D
:102F7000C4BF19480370206964691D4B40F2DC51DD
:102F8000884240F2D56CD4BF0020012064451870FF
:102F9000184C18DC2278022A1AD0174D287878B1FC
:102FA000FEF716FD154B164AC3F8EC0010600948F1
:102FB000144A0021C3F8F410C168002311602B707B
:102FC0000120207070BD0C4A012100231170237074
:102FD00070BD00BF10280020AC2700204026002034
:102FE000740C00208C2B0020E02600209827002065
:102FF000802B00208C2900209C2700202C2A0020D8
:10300000AC2800207C0C0020F8B54FF48270FFF74C
:103010001DFB0E4B0E4F0F4E0F4D1860002404F198
:103020009C00FFF713FB47F8040F04F1A000FFF723
:103030000DFB46F8040F04F1A400FFF707FB0C3466
:10304000602C45F8040FEAD1F8BD00BF102600201F
:103050005C2B0020002A00206826002010B5124BAF
:10306000124C187888B11248007820B121780020DD
:1030700001F002010AE00F4A13781BB1237803F034
:10308000060103E01846194600E0014603F01AFB6A
:10309000094A11784520012918BF002103F012FBCD
:1030A0002178481C207010BD40260020A427002055
:1030B000A0290020A1290020802B0020F8B500269F
:1030C00004460F46067035460F4803F061FA28B9EA
:1030D0000120013603F094FAF6B206E00A4803F044
:1030E0006AFA60550135EDB2002625B1601910F875
:1030F000013C3B2B04D0092E02D8791E8D42E3DB24
:1031000000226255F8BD00BF202C00201FB5002111
:103110000B2201A8009105F093FD68460F21FFF7EF
:10312000CDFF684605F0D4FC0CF04EFE05B000BDA6
:10313000084910B51C2404FB0014FFF7E7FF2060CA
:10314000FFF7E4FF6060FFF7E1FF0023A060E360AA
:10315000636110BD2C2A002010B50446FFF7D6FF8E
:10316000DFED0B7A07EE100AB4EE677AF1EE10FA93
:103170004FF00000074B04D1074A1C70107001206B
:1031800010BD1870054B4FF47A71196010BD00BF67
:1031900066E6F642EC28002040260020280C00209D
:1031A0001FB500210C2201A8009105F049FD6846D9
:1031B0001021FFF783FF684605F08EFC05B000BDC7
:1031C00038B5864803F0E4F9002800F0B781834859
:1031D00003F0F1F9824B18703138292800F2AE81E2
:1031E000DFE810F0650167016C017B018801AC012B
:1031F000AC01AC01AC01AC01AC01AC01AC01AC0167
:10320000AC01AC012A00340045004C0081008F0065
:103210009D00AC00BE00D000D300EB00EE00240106
:103220003F014901AC01AC01AC01AC0151015701B6
:103230005F01AC01AC019B010020FFF779FF012089
:10324000FFF776FFFFF762FF664B0EE00320FFF704
:103250006FFF0420FFF76CFF0620FFF769FF0720D0
:10326000FFF766FFFFF752FF5F4B186038BD022083
:10327000FFF75EFF0520FFF75BFF06E10820FFF781
:1032800057FFFFF743FF594AC2F8F800FFF73EFF28
:1032900002EE900A5649BDEEE22A81ED002AFFF7C0
:1032A00035FF01EE900A534BBDEEE11A83ED001A93
:1032B000FFF72CFF00EE900A4F4ABDEEE07A82ED58
:1032C000007AFFF723FF00EE100A4C48FDEEC07AAB
:1032D000C0ED007AFFF71AFF494908600920BDE8F0
:1032E0003840FFF725BFFFF711FF464B1860FFF787
:1032F0000DFF03EE900A4448BDEEE33A80ED003A3C
:1033000038BDFFF703FF414C2060414C04F120051C
:10331000FFF7FCFE44F8040FAC42F9D138BDFFF7CB
:10332000F5FE04EE900A3B49BDEEE44A81ED004A09
:1033300014EE104AFFF7EAFE374B0DE0FFF7E6FE0A
:1033400005EE900A334ABDEEE55A82ED005A15EEBD
:10335000104AFFF7DBFE314B03EB8404206038BDDD
:10336000FFF7CAF9FFF7C2FBFFF74EFDFDF7F8FBC9
:10337000FDF772FCFDF768F9FEF704FBBDE8384085
:10338000FEF718BDFDF7ECFB13E0FFF7BFFE244D81
:10339000244C2860FFF7BAFE2060FFF7B7FE686094
:1033A000FFF7B4FE6060FFF7B1FEA860FFF7AEFE66
:1033B000A060BDE83840FFF727BDFDF74DFCF8E7FA
:1033C000FFF7A4FE184C2060FFF7A0FE6060FFF737
:1033D0009DFEA060BDE83840FFF788BB202C002090
:1033E0000C0C0020180C0020442600202C2A002061
:1033F000100C0020040C0020380C00203C0C002095
:10340000000C00200C280020982700201026002007
:1034100068260020B02B0020602B0020042A00200A
:1034200034280020B42B0020D4270020FFF76EFEA4
:10343000434C2060FFF76AFE00EE100A414BFDEEA0
:10344000C07AC3ED007AFFF761FE06EE900A3E48AF
:10345000BCEEE66A80ED006A2068BDE83840FEF701
:10346000F3BCFFF79DFEFFF79BFEFFF799FEBDE85B
:103470003840FFF795BE0D24013CE4B2FFF746FE4D
:10348000002CF9D138BDFFF741FEBDE83840FFF709
:103490003DBE0624FFF73AFE611ECCB2002CF9D1E6
:1034A00038BDFFF723FBBDE83840FDF7CDB801205C
:1034B00000E00220BDE83840FFF74EBE0320FFF7D2
:1034C0004BFE00283AD0FFF721FE00EE900A1F4A7B
:1034D000BDEEE07A82ED007A38BD0420FFF73CFEB5
:1034E00000282BD01A4A194B00214FF47A70117022
:1034F000186038BD0520FFF72FFEF8B10024FFF754
:1035000005FE01EE900ABDEEE11A124B11EE100A13
:10351000E0500434102CF2D138BDFFF7F7FD02EE75
:10352000100AF7EE002AB4EE622AF1EE10FA0A4B06
:1035300002D10121197038BD00221A7038BD00BFB8
:10354000080C0020700C0020800C0020280C0020AB
:10355000EC280020B02700208D27002001482C21D6
:1035600002F0CAB9202C002008B501460A220348FF
:1035700002F039FABDE80840FFF7F0BF202C002028
:1035800008B501460A22034802F054FABDE8084093
:10359000FFF7E4BF202C002007B50CF0DFF802464F
:1035A0000B4605480221009102F0FEFA03B05DF8D7
:1035B00004EBFFF7D3BF00BF202C0020074B10B552
:1035C0001C2404FB00342068FFF7E6FF6068FFF767
:1035D000E3FFA068BDE81040FFF7DEBF2C2A002003
:1035E000844638B50B480C466146154602F089F909
:1035F0000848094902F085F9084803681C4203D1CC
:103600000448074902F07DF902482946BDE83840E0
:1036100002F087B9202C0020F3410208842B0020FF
:10362000A93F02080000000013B50A220E21344809
:1036300002F007FA3349324802F063F901242EA35D
:10364000D3E900232E48009402F0B3FA2C482E4907
:1036500002F057F92A482D4902F063F928482C490D
:1036600002F04FF926482B4902F05BF924482A4919
:1036700002F047F90A220821214802F0E2F9204825
:10368000264902F03EF904210A221D4802F0D9F928
:1036900021462348234AFFF7A3FF02212248214A5B
:1036A000FFF79EFF082121481E4AFFF799FF0421DA
:1036B0001F481C4AFFF794FF10211E481E4AFFF7BF
:1036C0008FFF20211D481C4AFFF78AFF40211C481C
:1036D000194AFFF785FF80211A48174AFFF780FF34
:1036E0001948154A4FF4807102B0BDE81040FFF749
:1036F00077BF00BFAFF30080000000C0CCCC084013
:10370000202C0020AE3F0208C13F0208CE3F020835
:10371000D43F0208E43F0208EB3F0208FF3F0208E3
:1037200008400208124002081B4002082940020813
:1037300033400208404002084D400208554002084C
:10374000634002087340020884400208AFF300801F
:10375000F7B58E4C23786A2B264600F0018128D8D5
:10376000642B00F0908012D8612B62D009D8232BF3
:1037700000F05782362B00F05982212B40F06382F3
:1037800046E2622B60D0632B40F05D8271E0672BD4
:1037900000F0B28006D8652B00F09880662B40F0D0
:1037A00052829BE0682B00F0BC80692B40F04B827A
:1037B00029E0702B00F09B8111D86D2B00F06C81FB
:1037C00006D86B2B00F008816C2B40F03C8244E162
:1037D0006E2B00F081816F2B40F0358209E2732B54
:1037E00000F0AD8106D8712B00F08F81722B40F074
:1037F0002A8291E1752B00F00282C0F0E681762BDF
:1038000040F02182EFE1624C2068FFF7C5FE60685E
:10381000FFF7C2FEA0685F4CFFF7BEFE2068FFF70F
:10382000BBFE6068FFF7B8FEA068FFF7B5FE002496
:103830008CE00020FFF7C2FE0120FFF7BFFE564BD1
:103840001868FFF7A9FE3DE00320FFF7B7FE04204C
:10385000FFF7B4FE0620FFF7B1FE0720FFF7AEFE2C
:103860004E4800680BF07AFF0B4602210246009199
:1038700030E10220FFF7A2FE0520FFF79FFE484A35
:1038800048481178C0E10820FFF798FE4649D1F872
:10389000F800FFF781FE454B1868FFF771FE444AB8
:1038A0001068FFF76DFE43480068FFF769FE424964
:1038B0000868FFF765FE414B1868FFF76DFE0920A9
:1038C000FFF77CFE374802F021F8ACE13C48006885
:1038D000FFF762FE3B4A3348116895E13A4D3B4C95
:1038E0002868FFF759FE04F1200554F8040FFFF78C
:1038F00053FEAC42F9D1A1E1354C04F1200554F856
:10390000040F0BF02BFF02460B46264806210091C0
:1039100002F04AF92C21234801F0EEFFAC42EED12F
:103920008CE12C4C04F1200554F8040F0BF016FF29
:10393000024606200B4600901A4802F035F92C2169
:10394000184801F0D9FFAC42EED177E120460134AE
:10395000FDF772FEE4B2FFF713FE032CF6D13CE153
:103960000020FDF75DFEFFF70BFE0120FDF758FE7E
:10397000FFF706FE0220FDF753FE014609480A2222
:1039800003B0BDE8F04002F05CB800BF0C0C0020B2
:10399000C428002060260020180C002044260020A7
:1039A00004270020202C00202C2A0020100C0020AE
:1039B000040C0020380C00203C0C0020000C0020DF
:1039C0000C280020982700201026002068260020C0
:1039D0005C2B0020002A00209F4EA04F30680BF087
:1039E000BDFE062502460B469D48009502F0DCF818
:1039F000FFF7B4FD38680BF0B1FE02460B4698485D
:103A0000009502F0D1F8FFF7A9FD70680BF0A6FE53
:103A100002460B469248009502F0C6F8FFF79EFD5D
:103A200078680BF09BFE02460B468D48009502F02D
:103A3000BBF8FFF793FDB0680BF090FE02460B4613
:103A40008748009502F0B0F8FFF788FDB8680BF0E2
:103A500085FE009502460B463CE0824C824DFDF708
:103A6000ABF82668287896FBF0F0FFF789FD2B78F5
:103A70006168002691FBF3F02660FFF781FDA268E4
:103A800095F800C0666092FBFCF175480A2201F0CF
:103A9000D8FFA6602E70D6E0744D28680BF05EFE4D
:103AA000062602460B466E48009602F07DF8FFF7A8
:103AB00055FD68680BF052FE02460B4668480096BA
:103AC00002F072F8FFF74AFDA8680BF047FE009677
:103AD00002460B466248A1E065490868FFF75CFDB5
:103AE000644A1068FFF74CFD5D48634B0FE00C24FF
:103AF000013C0020E4B2FFF743FD002CF8D1584808
:103B000021460A2201F09DFF9BE055485B4B196856
:103B10000A2201F05BFF86E0594C2068FFF73CFD6C
:103B20006068FFF739FD574B18680BF017FE024627
:103B3000022000900B464A4802F03BF883E05248CE
:103B40004F4C0078FFF710FD2068FFF725FD6068F7
:103B5000FFF722FD4B490868FFF71EFDFDF738FF10
:103B6000FFF71AFD494A1078FFF70AFD0024484B79
:103B7000E0580434FFF704FD202CF8D10024454A16
:103B8000A0580434FFF7FCFC102CF8D10020FFF7FC
:103B9000F7FC0020FFF7F4FC0020FFF7F1FC002009
:103BA000FFF7EEFC3C4BD88800EE100ADFED3B7AC5
:103BB000B8EE407AC7EE276A16EE900AFFF7ECFCE3
:103BC00037490878FFF7D0FC07E00024304AA058B6
:103BD0000434FFF7D5FC202CF8D1214803B0BDE810
:103BE000F04001F093BE0020FFF7CAFC0020FFF771
:103BF000C7FC0020FFF7C4FC0020FFF7C1FC002039
:103C0000FFF7BEFC164800210A2201F01AFF0AE065
:103C10000FA3D3E9002301211148009101F0C9FF4E
:103C200001E0FFF701FD582020700CE00024194B43
:103C3000E0580434FFF7A4FC102CF8D1084801F038
:103C400065FE5822327003B0F0BD00BFAFF30080B4
:103C5000000000C0CCCC084034280020B42B002049
:103C6000202C00200028002072270020D4270020CC
:103C7000080C0020700C0020800C0020842B0020F9
:103C8000D428002074270020402600208C29002002
:103C900010280020E0260020540C00200000C8421C
:103CA000802B0020AFF3008010B502E0206802F006
:103CB0003DFA034C206802F04EFA0028F6D110BD00
:103CC000C029002010B501E002F030FA084C20684D
:103CD00002F041FA01282068F6D802F03CFA20B13F
:103CE0002068BDE8104002F021BAFF2010BD00BFDF
:103CF000C0290020024A11684B1C1818704700BFE9
:103D00000C26002004490B68C21A02F40041480A3C
:103D100000F04000704700BF0C260020024B4FF41B
:103D20009641186002F0B6B9C0290020F0B53328DA
:103D300093B000F0398105D831280CD0322840F0FA
:103D4000D78196E08A2806D08E2800F092808928B4
:103D500040F0CE8128E100212D22684604F070FF5A
:103D600078247C23A0227D218A27F42601258DF842
:103D700000308DF803208DF82B108DF801708DF830
:103D800015608DF816508DF817408DF81940FDF725
:103D90002FFE8DF8150000128DF81600FCF75EFB63
:103DA000A44B8DF80B0093ED007ADFEDA30A87EEAC
:103DB000207A4FF4B475A1488DF80D400478002C9A
:103DC00014BF102400249FED9E0A27EE000AFDEE8A
:103DD000C07A17EE907A07F5B47292FBF5F605FB00
:103DE0001621984D8DF806102B7803BB9649974AFB
:103DF0000B789748012B01D1137004E0022B00D0FF
:103E00000BB90126067017783FB10B78022B00D052
:103E10001BB90023137028222A70007838B1097862
:103E2000012904D18A4A0027272617702E7004B969
:103E30002C78884F884E97F800C0A44506D130688A
:103E4000FFF760FF88B141F2883001E04FF4FA607B
:103E5000FFF750FF306034B195F800E0A64502D17D
:103E6000784B002018703C7000E004468DF802404A
:103E700039E100212D22684604F0E2FE7C22E02098
:103E80008DF80020F4228DF803008DF81A204820C8
:103E90007D2214218DF822008DF82B206F48704A66
:103EA0008DF818108E238DF8191078218DF80130B7
:103EB0008DF824100123B2F806C001788DF81B306C
:103EC0000A23BCFBF3F311B95C48017811B18021DE
:103ED0008DF80410917A8DF81E308DF816308DF81B
:103EE00014301B0AFF298DF81F308DF817308DF81C
:103EF000153007D05A48B0F910E064239EFBF3F068
:103F000083B200E00023180AFF2918BF52698DF818
:103F10001D001ABF4FF47A7092FBF0F000208DF86C
:103F20001C3003128DF821308DF82000FDF760FD64
:103F30008DF81A0000128DF81B00FCF78FFA010AA9
:103F40008DF80E108DF80C108DF80D008DF80B000B
:103F5000FCF71AFA434B1A68C2EB000C1FFA8CF1FB
:103F600088181860404B1A688818404A1860107802
:103F70003F4B404A80B1188801EB000C1FFA8CF1CE
:103F80004EF65F2E7145198006D9107801F5AD5EA9
:103F9000411CA3F800E011701B8811789A128DF86B
:103FA00027108DF828209EE0334B6A4603F1280540
:103FB00018685968144603C40833AB422246F7D147
:103FC0001868206019792171FDF712FD2B4A2C49E0
:103FD0008DF8050003128DF8063010680B688DF817
:103FE00007008DF80930FCF739FA020A8DF80F0046
:103FF0008DF80D008DF80B0013488DF81020037814
:104000008DF80E20012B8DF80C2041D11D491E4A40
:104010001E4B09681268DB6801EB020C634501DD89
:104020002B2338E08A1A934201DA2D2333E03D2313
:1040300031E000BF74270020DB0F4940A029002099
:1040400000003443740C00208C290020FC2900203F
:10405000C8260020282A002000270020A1290020AF
:10406000540C0020902700200C2600204026002021
:1040700048280020E4290020E03E0208880C0020A7
:10408000200C00207C0C0020100C002010280020A8
:10409000022B02D121238DF82630174991F800E038
:1040A0001621BEF1010F0CBF144A154A0CA804F0EA
:1040B0003DFE0CA804F070FEC0F115025008C2B21B
:1040C00000230BE00DF1480C0CEB030010F8181C5A
:1040D00049B18018013300F8371CDBB203EB020E44
:1040E000BEF1140FEEDD6846FCF7A2F9012000E0F6
:1040F000002013B0F0BD00BF802B002094400208C8
:10410000A840020870B52A4C2378032B4ED8DFE86C
:1041100003F002111F3DFFF7D5FDC0B2FF2845D0C7
:10412000FFF704FE002841D0FCF734F921490123B0
:1041300008600BE01F4DFCF72DF92A68801AB0F5D6
:10414000FA6F33D9FCF726F902232860237070BD7B
:10415000184EFCF71FF93368C3EB000CBCF57A7FEF
:1041600024D9154D15482B78006815495A1CC95C8F
:1041700003682A701A689047FFF796FDFCF70AF962
:10418000297830602C2911D90323DFE7094DFFF787
:104190008BFDFCF7FFF82B68C21A41F2883082428F
:1041A00004D9FCF7F7F800212860217070BD00BF2A
:1041B000ED280020EC29002048260020C0290020FE
:1041C0007828002010B531484FF4E13102F0DEF9D3
:1041D0004620002102F020FA4620002102F072FA67
:1041E000FEF778FBFC20FEF731FADFED297A07EEC7
:1041F000100AB4EE677AF1EE10FA03D0FEF77CFAFB
:10420000FEF774FCFCF7C2FD0420FDF7A9F90820B5
:10421000FDF7DAF8FEF7F8FEFDF70EF81D494FF04E
:104220007B54CC66C1F888401B4CFDF7C3FD236866
:104230001A4A43F02000116820600120FDF7E6FED5
:10424000216841F040032360FCF76EFAFCF7DAFBCB
:10425000FCF7B0FCFEF788FDFCF782FC226842F018
:1042600010002060FDF78EFBFDF71AFA0C48FFF7EF
:1042700055FDFCF78FF80B4908604620012102F03C
:1042800021FA094B00221A7010BD00BF202C00201B
:10429000666646402C2A0020842B0020080C002053
:1042A000082C0020902B00208C2B00202DE9F047BB
:1042B0002DED028B614F624D624C84B0FCF76AF8C1
:1042C00039682860401A2060FCF7C8FD22685E4CFF
:1042D00042F20F739A4240F2A38022685B4BDFF8F0
:1042E000A0A11968DFF89C91561C2A682660501A14
:1042F00007EE100A9FED568AF8EE477A554E1A607F
:10430000C7EE887A4FF00008C6ED007AFCF7DEFBB6
:10431000FCF774FC50495AF8040F4FEA481C6144FA
:10432000FCF7B0F908F10108B8F1030F49F8040FE0
:10433000F0D14A4B4A4A59680091D3F808E0CDF8C9
:1043400004E030680290516810681B689268FCF7BE
:10435000B1FFFDF757FCFEF70FF92368D90710D41A
:10436000404B2A6819683B481A60C1EB020C00EE0A
:1043700090CAB8EE600A80EE080A80ED000AFEF7E7
:1043800095FD21680A23B1FBF3F003FB1012AAB9D3
:10439000354B28681968354A1860C1EB000E01EEEC
:1043A00090EAB8EE611A1068516881EE081A86ED3D
:1043B000001AFDF73DFAFDF783F92FE02C4A2B6830
:1043C0001068191A2B48814218D903EE901AF8EE9A
:1043D000632A9FED293AC2EE882A1360C6ED002AAF
:1043E00062EE832ABCEEE22A12EE102A90B2FDF7AA
:1043F000A5FDFEF7E5FEFFF7ABF90FE01F4A1168D8
:10440000591A81420AD904EE901AB8EE644A136030
:1044100084EE084A86ED004AFEF720FE2B683B60DA
:10442000FFF770FE2068632802D9074900220A605E
:1044300004B0BDEC028BBDE8F08700BF902B0020DC
:10444000CC260020A027002050280020942B0020FC
:1044500000247449840C0020FC28002060260020E1
:10446000C42800204C280020C0260020D42800208A
:10447000E8290020A086010000007A44C42600201C
:10448000402B00205C26002008B5FFF79BFEFFF7BD
:104490000DFFFCE708B504210848FCF767F9084957
:1044A000084891ED000AB7EE007A77EE407AC0ED49
:1044B000007AFBF76FFF044B186008BDF02800205E
:1044C000780C002094270020B428002010B50C8818
:1044D0008368A4B24FF6FF7084420B4408D008886A
:1044E0001FFA80FC944508D102E00A68013206D127
:1044F00004319942F9D3002010BD832010BD8320E0
:1045000010BD38B50B889BB2581E0C464FF6FD7295
:1045100081B2914203D84EF6EE65AB4203D1628878
:10452000511C8DB200E000252046FBF7D3FE052884
:1045300005D1A01C2946BDE83840FBF7E3BE38BDD5
:1045400070B505460C461646FFF7C0FF60B1284619
:104550002146FFF7D6FF052806D1284621463246D8
:10456000BDE87040FFF7B2BF70BD036842681988AC
:10457000108889B210B580B219B94FF6FF74A04205
:1045800007D040B94FF6FF7399420CBF1046002088
:1045900010BD184610BD002010BD70B58568002004
:1045A0004D19063113E00C884FF6FF73A4B29C42FC
:1045B0000CD094420AD00B1D04E01E88B6B2A6426D
:1045C00004D00433AB42F8D3013080B20431A942A5
:1045D000E9D370BD2DE9F74F9B46836805460C462D
:1045E000164601EB030A0F1D03E03A68013203D0BF
:1045F00004375745F9D344E0301DA3F10208019078
:10460000B04427E0B8F800104FF6FF731FFA81F9A5
:1046100099451DD0D9451BD0A31D05E01A881FFA66
:1046200082FCCC4514D00433BB42F7D327E038F8E2
:10463000023C384699B2FBF765FE052805D1B81C47
:104640004946FBF75FFE052801D0054614E0043714
:10465000A8F1040801988045D4D8284631464FF681
:10466000FF72FFF76DFF054630B929462046FBF77C
:1046700049FE052818BF05462846BDE8FE8F574568
:10468000D5D38125F8E72DE9F04705460E461746B4
:10469000FFF76BFF0446002866D0AB6800EB030908
:1046A000A9F1020314E0188882B2B2420FD133F8A4
:1046B000021C981E8BB2BB4259D04FF6FF7C63455B
:1046C00008D13946FBF71EFE052803D14FE0043B15
:1046D000A342E8D804F1040815E0D8F8003001330B
:1046E0000FD140463946FBF70DFE052843D108F1AE
:1046F00002003146FBF706FE052808BF0020BDE892
:10470000F08708F10408C845E7D321463246284619
:10471000FFF743FFAB68421C990892B2481E8242E1
:1047200028D2D5F80480444508BFD5F800804EF65D
:10473000EE614046FBF7E6FD05281CD108F10400B8
:104740003946FBF7DFFD052815D108F10600314693
:10475000FBF7D8FD05280ED12846414622463346B0
:10476000BDE8F047FFF736BFAB20BDE8F08700207B
:10477000BDE8F0878120BDE8F08700000449054AC4
:104780004FF4804C80E8061084228281704700BF7D
:104790000080000800C0000810B50446FBF7DEFDED
:1047A000216820460022FFF7CBFE0146B0B9206801
:1047B000B0F800C04FF6FF731FFA8CF29A4205D191
:1047C000FBF7A0FD052801D0014607E061682046FF
:1047D0004FF6FF72BDE81040FFF7B2BE084610BDAD
:1047E000F8B50446FBF7BAFDAB202268A081178814
:1047F0006668BFB233884EF6EE618F429BB21CD022
:104800004FF6FF75AF4202D0002F31D039E013B917
:104810002046114609E08B4209D100213046FBF7C2
:1048200071FD05283ED1216820463A4638E0BB425A
:1048300039D12046FFF7B0FF34E02BB911462046AE
:1048400032464FF6FF7319E04FF6FF7293422AD1BA
:10485000204631461A46FFF773FE0546A08110BB7D
:1048600020682946FBF74EFD05281BD1A5811AE0DB
:10487000CBB18B422046314611D12B46FFF7AAFE21
:1048800010E013B92046114609E08B420BD10021FC
:104890003046FBF737FD052804D1216820462A461B
:1048A000FFF74EFEA081A089F8BD70B50D464FF010
:1048B000FF3111808389842B0446164604D1FFF70B
:1048C0008FFF08B1A08970BD2046FFF74EFEA0B152
:1048D000A3689A1E131806300BE0B3F800C01FFA45
:1048E0008CF1A94204D133F8020C3080002070BD55
:1048F000043B8342F1D2822070BDAB2070BD07B56E
:104900000DF10602FFF7D1FFBDF806000EBD838949
:10491000842B70B504460D46164604D1FFF760FFA0
:1049200008B1A08970BD4FF6FF70854206D02046C1
:1049300029463246BDE87040FFF7A5BE822070BD13
:104940000148FFF71BBF00BFC02B0020014802F049
:104950003FB800BF242C002002F024B8034610B555
:1049600006480C46194601F0C2FF04482146FFF7ED
:10497000F3FF0248BDE8104002F04FB8242C00209D
:10498000FFF7E4BF10B5FFF7E1FF0446FFF7DEFFD6
:1049900040EA042010BD08B5FFF7F4FF00B208BDDF
:1049A00010B5044621460B4801F0A1FF002109483B
:1049B000FFF7D2FF074802F030F8642001F020FE34
:1049C00021460122034801F0E9FFBDE81040FFF74E
:1049D000BDBF00BF242C002038B503460C46094853
:1049E0001946154601F083FF21460648FFF7B4FF3C
:1049F00004482946FFF7B0FF0248BDE8384002F0FE
:104A00000CB800BF242C002007EE102AF7EE006A35
:104A1000B4EE667AF1EE10FA07EE900A06EE101A7E
:104A200007D076EEC76A66EE266A47EE876AF0EE32
:104A3000667A17EE900A704770B510E05A1C50F86D
:104A4000236050F82250AE4204DD40F8226040F866
:104A500023500024D3B24A1E9342EFDB14B9002343
:104A60000124F8E701EBD173591050F8210070BD13
:104A700007EE100AB5EEC07AF1EE10FA07EE901AC2
:104A800004DDF5EEC07AF1EE10FA0CD4B5EEC07A82
:104A9000F1EE10FA09D5F5EEC07AF1EE10FAD4BFB6
:104AA00000200120704701207047002070474A1EF7
:104AB00003680121900001FA00F25A60704738B58E
:104AC00050F8313005460C4633B198472846214608
:104AD000BDE83840FFF7EBBF38BD0000024B0121B5
:104AE0001868FFF7ECBF00BFFC0C0020024B02214E
:104AF0001868FFF7E4BF00BFFC0C0020024B032145
:104B00001868FFF7DCBF00BFFC0C0020024B04213B
:104B10001868FFF7D4BF00BFFC0C0020024B052132
:104B20001868FFF7CCBF00BFFC0C0020024B062129
:104B30001868FFF7C4BF00BFFC0C0020024B072120
:104B40001868FFF7BCBF00BFFC0C0020024B01211E
:104B50001868FFF7B4BF00BF000D0020024B022110
:104B60001868FFF7ACBF00BF000D0020024B032107
:104B70001868FFF7A4BF00BF000D002010B5054C5A
:104B800004212068FFF79BFF20680521BDE8104045
:104B9000FFF795BF000D0020024B586100BF00BF1A
:104BA000704700BF00040140074B10B553F8303088
:104BB00004463BB19847012000FA04F0BDE81040DC
:104BC000FFF7EABF10BD00BF040D00200E4B2DE91A
:104BD000F0410D465C69064600270DE0012000FA11
:104BE00006F818EA040F06D0084951F8363013B118
:104BF000984747EA08070136AE42EFD93846BDE884
:104C0000F041FFF7C9BF00BF00040140040D0020C0
:104C10000020FFF7C9BF0120FFF7C6BF0220FFF742
:104C2000C3BF0320FFF7C0BF0420FFF7BDBF0520AF
:104C30000921FFF7CBBF0A200F21FFF7C7BF10B52F
:104C40000446007900F006FA2079BDE8104000F033
:104C5000E5B9000008B50B48FFF7F1FF0A48FFF778
:104C6000EEFF0A48FFF7EBFF0948FFF7E8FF0948A6
:104C7000FFF7E5FF0848FFF7E2FF0848BDE80840F6
:104C8000FFF7DDBF840D00208C0D0020940D002067
:104C90009C0D0020A40D0020AC0D0020B40D0020C0
:104CA000036870B54800032505FA00F402F0030517
:104CB00005FA00FC1E68E4439508264005F003054C
:104CC00046EA0C0605FA00FC1E60DE6826404CEA47
:104CD0000605160906F0030606FA00FCDD609D686D
:104CE00092092C404CEA040002F0010404FA01F29B
:104CF000012404FA01FC9860586820EA0C0042EA9A
:104D00000001596070BD0368C80801F0070130B5A3
:104D100089000F2404FA01FC02F00F0202FA01F1EB
:104D2000083053F8205025EA0C040C4343F8204087
:104D300030BD03681961704703681A6812F4985F00
:104D4000FBD1196841F480701860704703681A68D5
:104D500012F4985FFBD1196841F4007018601A686A
:104D600012F4985FFBD170470368586841EA00026B
:104D70005A6070470368586820EA01025A60704719
:104D80000368186820F480621A607047014B186845
:104D9000704700BF602D0020016810B58A69044685
:104DA00002F47063002283614A618A61FFF7CEFFDB
:104DB00020464FF4E061FFF7DDFFFF23637310BD72
:104DC000F8B5036805695F690446AE789B69FFF72B
:104DD000DDFF6061F80706F0010613D50020E880CA
:104DE0004FF480612046FFF7BFFF26B121680F68AE
:104DF00047F480620A60B5F800C0236846EA4C00B8
:104E000018610027B9071ED5AB8876B1012B17D1E1
:104E10002046FFF7B5FFE2892046012A02D9FFF7B5
:104E20008BFF0DE0FFF792FF0AE0012B0AD0E88824
:104E3000A968471C095CEF802046FFF77AFF01E074
:104E4000002700E0374607F0840EBEF1800F1BD12B
:104E5000E789AFB1EF88A8687A1CC15DEA80204677
:104E6000FFF767FFB5F806C0AB889C450BD14FF440
:104E700080612046FFF77EFFE389591EE18102E051
:104E800000F0C6FC00E0002707F08402842A17D156
:104E9000E689204656B1FFF74FFF23685F69FA079E
:104EA000FCD5206900270C30206109E0FFF74EFF98
:104EB0004FF400712046FFF75DFF02216173374612
:104EC0007B0627D52368E8881969AA68431C115412
:104ED000AA889BB2501E8342EB800ED12046FFF77A
:104EE0004FFFE1892046022903D9BDE8F840FFF7CA
:104EF00023BFBDE8F840FFF729BF93420AD1E389F9
:104F00005A1E90B2E08110B902216173F8BD206988
:104F10000C302061F8BD00000148FFF751BF00BF11
:104F2000BC0D00200148FFF74BBF00BFD80D00208B
:104F30000148FFF731BF00BFBC0D00200148FFF75B
:104F40002BBF00BFD80D002001EBC001880000F18D
:104F500084431A6070470000244B186840F4803284
:104F60001A604FF4A063214A1168890301D4013B00
:104F7000F9D112681D4B920336D51A6CDFF888C040
:104F800042F080501A4A1864116841F48040106061
:104F900099689960986840F400429A609968154A47
:104FA00041F4A05098601449144882E80310144A50
:104FB0005A60196841F0807018600C4B19688801BC
:104FC000FBD5104A40F205611160986820F003019A
:104FD00099609A6842F0020098600448836803F080
:104FE0000C0CBCF1080FF8D1704700BF003802402C
:104FF00000700040D02B002000BD010580DE800243
:1050000008544007003C0240007A030AFFF7A4BF9F
:10501000014B13F810007047E840020838B5044609
:10502000FFF7F6FF094B0A4903EB440451F82050FF
:105030006478284621460122FFF786FF284621464C
:105040000022BDE83840FFF77FBF00BFE8400208FC
:105050004041020810B50446FFF7DAFF0549064A49
:1050600001EB440352F8200059780122BDE81040BA
:10507000FFF76ABFE8400208D440020808B5FFF70E
:10508000C7FF024B53F8200008BD00BFD02B002003
:1050900008B5FFF7F3FF400008BD7047014B07223A
:1050A0001A60704710E000E0014B5860FFF7F6BF50
:1050B00010E000E0044808B5044B01681B684A1C76
:1050C000026003B1984708BD602D0020E02B00204E
:1050D000002808DB421100F01F01012000FA01F056
:1050E000014B43F82200704700E100E070B54E1E0E
:1050F0006FF0070501F00101694308315FFA81FC97
:10510000FF2101FA0CF5134303FA0CF10068741047
:10511000183004F0010450F8246026EA05050D4318
:1051200040F8245070BD023138B550F82130154692
:10513000046823B19847236923EA0505256138BD32
:1051400007218022FFF7EFBF00210122FFF7EBBF0D
:10515000F8B505680646EB682F691F4017F0400454
:1051600003D0046A0CB1A0474024BB0604D5F36900
:1051700013B1984744F02004286920EA04042C6104
:10518000F8BDF8B507680546FB683E691E4016F095
:10519000100403D084690CB1A0471024300704D553
:1051A0006B6913B1984744F00804710704D52B6963
:1051B00013B1984744F00404B20704D5EB6813B167
:1051C000984744F00204386920EA04043C61F8BDC1
:1051D000F8B507680546FB683E691E4016F04004B6
:1051E00003D0046A0CB1A0474024F30604D5AB6990
:1051F00013B1984744F01004300704D56B6913B11C
:10520000984744F00804710704D52B6913B19847F7
:1052100044F00404B20704D5EB6813B1984744F096
:105220000204F30704D5AB6813B1984744F00104B6
:10523000386920EA04043C61F8BD00210122FFF72F
:1052400072BF01EBC001880000F18440704708B5CF
:1052500000680C30FFF7F5FF0023036008BD08B5B8
:105260000068013920308900FFF7EBFF012303605C
:1052700008BD10B504460079FFF7ECFE2079BDE8C3
:105280001040FFF7CBBE00000D4A10B50446106871
:10529000A0470C490868A0470B480068A0470B4B83
:1052A0001868A0470A4A1068A0470A490868A0473A
:1052B00009480068A047094B1868A04710BD00BF07
:1052C000A00E0020A40E0020A80E0020AC0E00208E
:1052D000B00E0020B40E0020B80E0020BC0E00203E
:1052E00038B58B1C044640F8232000680D460C306E
:1052F000FFF7A7FF6379012101602079002B23D1FB
:10530000A0F10A02504240EB0200072D3ED8DFE830
:1053100005F0040909090911111600280CBF2C20F9
:10532000192003E000280CBF2E201B20BDE83840C8
:10533000FFF7CEBE00280CBF2D201A20F6E700286C
:105340000CBF2B201820F1E70B38112816D8DFE806
:1053500000F0090B0D151515151515151515151555
:10536000150F11131C20E1E71D20DFE71E20DDE7EC
:105370003220DBE73620D9E73720D7E70448054A53
:1053800040F2DD11BDE8384000F00CBA38BD00BF76
:10539000544102089741020838B50D4604460235CB
:1053A000FFF755FF002344F8253038BD70B504469B
:1053B000481EC3B2032B0D46164604D91C48AD2126
:1053C0001C4A00F0EFF96179022904D11848B02194
:1053D000194A00F0E7F96279022A27D0012E10D08D
:1053E00002D3022E22D115E020462946FFF7D4FF32
:1053F0002068691E20308900FFF723FF0023036027
:1054000070BD20462946FFF722FF2046294660222C
:10541000082303E02046294610220023FFF766FEFA
:1054200020462946BDE87040FFF719BF70BD00BF98
:105430005441020899410208B5410208014B18681D
:10544000FFF77EBEA00E0020014B1868FFF77CBE60
:10545000A00E0020014B1868FFF77ABEA00E0020B6
:10546000014B1868FFF78DBEA00E0020014B186895
:10547000FFF7AEBEA40E0020014B1868FFF7A8BED0
:10548000A80E0020014B1868FFF7A2BEAC0E00204A
:10549000014B1868FFF79CBEB00E0020014B186846
:1054A000FFF7CBBEB40E0020014B1868FFF7C5BE56
:1054B000B80E0020014B1868FFF742BEBC0E00205A
:1054C000014B1868FFF740BEBC0E0020014B186866
:1054D000FFF73EBEBC0E0020014B1868FFF751BE1F
:1054E000BC0E0020C38881889AB28BB2C188B0F804
:1054F00004C0D31A89B21FFA8CF2914203D20189F7
:105500008AB2501C1B1898B27047C2888388511CFD
:10551000994207D00089904206D1D3F1010038BFEB
:10552000002070470120704700207047C388026840
:10553000D154C38802899A4201D0013300E000238C
:10554000C380704703468288198900689142805C55
:1055500001D0013200E000229A8070470022FF2330
:105560008280C280038101607047420102F1844061
:10557000C161704710B5044604F120010430FFF703
:10558000EDFF04F1100004F59071FFF7E7FF94F8C8
:105590002002FFF75FFD94F821325AB2002A08DB9F
:1055A000012103F01F0001FA00F30249521141F8F2
:1055B000223010BD00E100E038B5044690F820022A
:1055C0000D46FFF75BFD19214143A800B1FBF0F246
:1055D0006420B2FBF0F529010D0900FB15231A0127
:1055E0003232B2FBF0F303F00F0242EA010023680B
:1055F00081B2996038BD03682C21D960D86840F425
:105600000052DA607047006801210C30FFF7ADBF2F
:10561000006800210C30FFF7A8BF37B503680446C7
:1056200019680191019A920610D55D68041D204603
:10563000EDB2FFF76AFF10B12046FFF783FF204667
:10564000294603B0BDE83040FFF770BF019B1B0641
:1056500010D500F110052846FFF744FF28B1284671
:105660002468FFF76FFF606004E02046FFF7D0FF7B
:1056700000BF00BF03B030BD2DE9F84304460D461E
:1056800017460026BE4210D004F11008404615F817
:105690000690FFF73AFF40B940464946FFF746FFFC
:1056A0002046FFF7B0FF0136ECE73046BDE8F8834F
:1056B00030B5054685B000240A20B1FBF0F300FBAD
:1056C000131230320DF8042019460134002BF3D1A7
:1056D0000BE01DF804108DF80F1028460DF10F0196
:1056E0000122FFF7C9FF0028F7D014F1FF34F0D2F0
:1056F00005B030BD014B1868FFF78FBF3011002097
:10570000014B1868FFF789BF34110020014B18685E
:10571000FFF783BF38110020014B1868FFF77DBFEA
:10572000CC190020014B1868FFF777BFD019002073
:1057300013B504468DF8071020460DF1070101222C
:10574000FFF79AFF0028F7D01CBD38B505460C4678
:1057500002E02846FFF7ECFF14F8011B0029F8D1FE
:1057600038BD0368202209B11A8370475A837047F5
:1057700038B5054662B6094C09492068FFF7E5FFD0
:1057800020682946FFF794FF20680A21FFF7D0FF21
:1057900020680D21FFF7CCFFFEE700BF3411002089
:1057A000CE410208F8B5164E05460C4630684FF457
:1057B000E1311746FFF700FF30681249FFF7C5FFD8
:1057C00030683946FFF7C1FF30680F49FFF7BDFF6A
:1057D00030682946FFF7B9FF30680C49FFF7B5FF7D
:1057E00030682146FFF764FF30680A21FFF7A0FF09
:1057F00030680D21FFF79CFF4FF0FF30FFF7B8FF37
:1058000034110020DC410208F2410208F341020891
:10581000F8B5114B05211C6821222046FFF740FAFC
:1058200000252E460127B6F5006F03D0002E08BFD5
:10583000012701E04FF0FF37B5F5006F04BFF619FF
:105840000025B542204601D2012100E00021FFF7EA
:1058500088FF0135E7E700BFD040020800000000E4
:10586000012007E0022005E0032003E0042001E01E
:105870000520FFE7FEE70D4A0121116072B60C4AD0
:1058800000211160064902B4074902B486B00549F7
:105890008E467047AFF30080AFF30080AFF3008017
:1058A00000000061F9FFFFFF7157010814ED00E0EF
:1058B00010E000E0AFF30080AFF30080AFF30080B2
:1058C00038B505460C4603E0286803682846984723
:1058D00014F8011B0029F7D138BD70B504461546F0
:1058E0000E4605E0206816F8011B0368204698471D
:1058F00015F1FF35F6D270BD026808B513689847F8
:1059000008BD026808B55368984708BD10B50D2159
:105910000446FFF7F1FF20460A21BDE81040FFF7DB
:10592000EBBF10B50446FFF7ECFF2046BDE8104082
:10593000FFF7ECBF2DE9F04716461F4690B056EA38
:10594000070282469DF8609005D1302110B0BDE875
:10595000F047FFF7D1BF00245FFA89F54FF0000848
:10596000304639462A4643460AF002FC30460DF8D6
:105970000420394643462A460AF0FAFB06460F46FB
:10598000013456EA0703E7D10DE010AA131913F802
:10599000411C092901D8303100E03731C9B25046E5
:1059A000FFF7AAFF013C002CEFD110B0BDE8F08753
:1059B00070B5049C24B901680B68D1B2984770BDDA
:1059C000E4B20494BDE87040FFF7B4BF13B5002300
:1059D00000920A460446FFF7EBFF204602B0BDE8FE
:1059E0001040FFF793BF07B500230092CAB2FFF73C
:1059F000DFFF0EBD2DE9F041069F064614461D4609
:105A00002FB901680B68D1B29847BDE8F081002C2E
:105A100075F1000305DA2D21FFF76EFF644265EB97
:105A20004505FFB2304622462B460697BDE8F041B9
:105A3000FFF780BF07B5CB1700920A46FFF7DAFFE2
:105A40000EBD10B50446FFF7F5FF2046BDE8104037
:105A5000FFF75CBF000000002DE9F34D1946074633
:105A6000164610461C46002200230AF05BF99DF8FA
:105A70002880012538B13046214643A3D3E90023CD
:105A80000AF046F906E03046214641A3D3E9002357
:105A90000AF034F900B90546EDB23046214600223D
:105AA00000236DB10AF020F918B138462D21FFF717
:105AB00023FF3949384602B0BDE8F04DFFF721BF5A
:105AC0000AF012F928B138462D21FFF715FF04F12D
:105AD000004400250022314B09E0104619460022FF
